{
  "_format": "hh-sol-artifact-1",
  "contractName": "DonationSystem",
  "sourceName": "contracts/DonationSystem.sol",
  "abi": [
    {
      "inputs": [
        {
          "internalType": "address",
          "name": "_usdcToken",
          "type": "address"
        }
      ],
      "stateMutability": "nonpayable",
      "type": "constructor"
    },
    {
      "anonymous": false,
      "inputs": [
        {
          "indexed": true,
          "internalType": "uint256",
          "name": "campaignId",
          "type": "uint256"
        },
        {
          "indexed": true,
          "internalType": "address",
          "name": "owner",
          "type": "address"
        },
        {
          "indexed": false,
          "internalType": "string",
          "name": "title",
          "type": "string"
        },
        {
          "indexed": false,
          "internalType": "uint256",
          "name": "targetAmount",
          "type": "uint256"
        },
        {
          "indexed": false,
          "internalType": "uint256",
          "name": "deadline",
          "type": "uint256"
        }
      ],
      "name": "CampaignCreated",
      "type": "event"
    },
    {
      "anonymous": false,
      "inputs": [
        {
          "indexed": true,
          "internalType": "uint256",
          "name": "campaignId",
          "type": "uint256"
        },
        {
          "indexed": false,
          "internalType": "uint256",
          "name": "timestamp",
          "type": "uint256"
        }
      ],
      "name": "CampaignDeactivated",
      "type": "event"
    },
    {
      "anonymous": false,
      "inputs": [
        {
          "indexed": true,
          "internalType": "address",
          "name": "creator",
          "type": "address"
        },
        {
          "indexed": true,
          "internalType": "bool",
          "name": "status",
          "type": "bool"
        },
        {
          "indexed": false,
          "internalType": "uint256",
          "name": "timestamp",
          "type": "uint256"
        }
      ],
      "name": "CreatorVerified",
      "type": "event"
    },
    {
      "anonymous": false,
      "inputs": [
        {
          "indexed": true,
          "internalType": "uint256",
          "name": "donationId",
          "type": "uint256"
        },
        {
          "indexed": true,
          "internalType": "uint256",
          "name": "campaignId",
          "type": "uint256"
        },
        {
          "indexed": true,
          "internalType": "address",
          "name": "donor",
          "type": "address"
        },
        {
          "indexed": false,
          "internalType": "uint256",
          "name": "amount",
          "type": "uint256"
        },
        {
          "indexed": false,
          "internalType": "uint256",
          "name": "timestamp",
          "type": "uint256"
        }
      ],
      "name": "DonationMade",
      "type": "event"
    },
    {
      "anonymous": false,
      "inputs": [
        {
          "indexed": true,
          "internalType": "uint256",
          "name": "campaignId",
          "type": "uint256"
        },
        {
          "indexed": true,
          "internalType": "address",
          "name": "recipient",
          "type": "address"
        },
        {
          "indexed": false,
          "internalType": "uint256",
          "name": "amount",
          "type": "uint256"
        },
        {
          "indexed": false,
          "internalType": "uint256",
          "name": "timestamp",
          "type": "uint256"
        }
      ],
      "name": "FundsWithdrawn",
      "type": "event"
    },
    {
      "stateMutability": "nonpayable",
      "type": "fallback"
    },
    {
      "inputs": [
        {
          "internalType": "uint256",
          "name": "",
          "type": "uint256"
        },
        {
          "internalType": "uint256",
          "name": "",
          "type": "uint256"
        }
      ],
      "name": "campaignDonations",
      "outputs": [
        {
          "internalType": "uint256",
          "name": "id",
          "type": "uint256"
        },
        {
          "internalType": "uint256",
          "name": "campaignId",
          "type": "uint256"
        },
        {
          "internalType": "address",
          "name": "donor",
          "type": "address"
        },
        {
          "internalType": "string",
          "name": "donorName",
          "type": "string"
        },
        {
          "internalType": "uint256",
          "name": "amount",
          "type": "uint256"
        },
        {
          "internalType": "string",
          "name": "message",
          "type": "string"
        },
        {
          "internalType": "uint256",
          "name": "timestamp",
          "type": "uint256"
        },
        {
          "internalType": "bytes32",
          "name": "txHash",
          "type": "bytes32"
        }
      ],
      "stateMutability": "view",
      "type": "function"
    },
    {
      "inputs": [
        {
          "internalType": "uint256",
          "name": "",
          "type": "uint256"
        }
      ],
      "name": "campaignIds",
      "outputs": [
        {
          "internalType": "uint256",
          "name": "",
          "type": "uint256"
        }
      ],
      "stateMutability": "view",
      "type": "function"
    },
    {
      "inputs": [
        {
          "internalType": "uint256",
          "name": "",
          "type": "uint256"
        }
      ],
      "name": "campaignWithdrawalId",
      "outputs": [
        {
          "internalType": "uint256",
          "name": "",
          "type": "uint256"
        }
      ],
      "stateMutability": "view",
      "type": "function"
    },
    {
      "inputs": [
        {
          "internalType": "uint256",
          "name": "",
          "type": "uint256"
        }
      ],
      "name": "campaigns",
      "outputs": [
        {
          "internalType": "uint256",
          "name": "id",
          "type": "uint256"
        },
        {
          "internalType": "address",
          "name": "owner",
          "type": "address"
        },
        {
          "internalType": "address",
          "name": "beneficiary",
          "type": "address"
        },
        {
          "internalType": "string",
          "name": "title",
          "type": "string"
        },
        {
          "internalType": "string",
          "name": "description",
          "type": "string"
        },
        {
          "internalType": "string",
          "name": "category",
          "type": "string"
        },
        {
          "internalType": "string",
          "name": "imageUrl",
          "type": "string"
        },
        {
          "internalType": "uint256",
          "name": "targetAmount",
          "type": "uint256"
        },
        {
          "internalType": "uint256",
          "name": "raisedAmount",
          "type": "uint256"
        },
        {
          "internalType": "uint256",
          "name": "deadline",
          "type": "uint256"
        },
        {
          "internalType": "bool",
          "name": "isActive",
          "type": "bool"
        },
        {
          "internalType": "bool",
          "name": "isWithdrawn",
          "type": "bool"
        },
        {
          "internalType": "uint256",
          "name": "donorCount",
          "type": "uint256"
        },
        {
          "internalType": "uint256",
          "name": "createdAt",
          "type": "uint256"
        }
      ],
      "stateMutability": "view",
      "type": "function"
    },
    {
      "inputs": [
        {
          "internalType": "string",
          "name": "_title",
          "type": "string"
        },
        {
          "internalType": "string",
          "name": "_description",
          "type": "string"
        },
        {
          "internalType": "string",
          "name": "_category",
          "type": "string"
        },
        {
          "internalType": "string",
          "name": "_imageUrl",
          "type": "string"
        },
        {
          "internalType": "uint256",
          "name": "_targetAmount",
          "type": "uint256"
        },
        {
          "internalType": "uint256",
          "name": "_durationDays",
          "type": "uint256"
        },
        {
          "internalType": "address",
          "name": "_beneficiary",
          "type": "address"
        }
      ],
      "name": "createCampaign",
      "outputs": [
        {
          "internalType": "uint256",
          "name": "",
          "type": "uint256"
        }
      ],
      "stateMutability": "nonpayable",
      "type": "function"
    },
    {
      "inputs": [
        {
          "internalType": "uint256",
          "name": "_campaignId",
          "type": "uint256"
        }
      ],
      "name": "deactivateCampaign",
      "outputs": [],
      "stateMutability": "nonpayable",
      "type": "function"
    },
    {
      "inputs": [
        {
          "internalType": "uint256",
          "name": "_campaignId",
          "type": "uint256"
        },
        {
          "internalType": "string",
          "name": "_donorName",
          "type": "string"
        },
        {
          "internalType": "string",
          "name": "_message",
          "type": "string"
        },
        {
          "internalType": "uint256",
          "name": "_amount",
          "type": "uint256"
        }
      ],
      "name": "donate",
      "outputs": [],
      "stateMutability": "nonpayable",
      "type": "function"
    },
    {
      "inputs": [
        {
          "internalType": "uint256",
          "name": "",
          "type": "uint256"
        }
      ],
      "name": "donations",
      "outputs": [
        {
          "internalType": "uint256",
          "name": "id",
          "type": "uint256"
        },
        {
          "internalType": "uint256",
          "name": "campaignId",
          "type": "uint256"
        },
        {
          "internalType": "address",
          "name": "donor",
          "type": "address"
        },
        {
          "internalType": "string",
          "name": "donorName",
          "type": "string"
        },
        {
          "internalType": "uint256",
          "name": "amount",
          "type": "uint256"
        },
        {
          "internalType": "string",
          "name": "message",
          "type": "string"
        },
        {
          "internalType": "uint256",
          "name": "timestamp",
          "type": "uint256"
        },
        {
          "internalType": "bytes32",
          "name": "txHash",
          "type": "bytes32"
        }
      ],
      "stateMutability": "view",
      "type": "function"
    },
    {
      "inputs": [],
      "name": "getAllCampaigns",
      "outputs": [
        {
          "components": [
            {
              "internalType": "uint256",
              "name": "id",
              "type": "uint256"
            },
            {
              "internalType": "address",
              "name": "owner",
              "type": "address"
            },
            {
              "internalType": "address",
              "name": "beneficiary",
              "type": "address"
            },
            {
              "internalType": "string",
              "name": "title",
              "type": "string"
            },
            {
              "internalType": "string",
              "name": "description",
              "type": "string"
            },
            {
              "internalType": "string",
              "name": "category",
              "type": "string"
            },
            {
              "internalType": "string",
              "name": "imageUrl",
              "type": "string"
            },
            {
              "internalType": "uint256",
              "name": "targetAmount",
              "type": "uint256"
            },
            {
              "internalType": "uint256",
              "name": "raisedAmount",
              "type": "uint256"
            },
            {
              "internalType": "uint256",
              "name": "deadline",
              "type": "uint256"
            },
            {
              "internalType": "bool",
              "name": "isActive",
              "type": "bool"
            },
            {
              "internalType": "bool",
              "name": "isWithdrawn",
              "type": "bool"
            },
            {
              "internalType": "uint256",
              "name": "donorCount",
              "type": "uint256"
            },
            {
              "internalType": "uint256",
              "name": "createdAt",
              "type": "uint256"
            }
          ],
          "internalType": "struct DonationSystem.Campaign[]",
          "name": "",
          "type": "tuple[]"
        }
      ],
      "stateMutability": "view",
      "type": "function"
    },
    {
      "inputs": [],
      "name": "getAllDonations",
      "outputs": [
        {
          "components": [
            {
              "internalType": "uint256",
              "name": "id",
              "type": "uint256"
            },
            {
              "internalType": "uint256",
              "name": "campaignId",
              "type": "uint256"
            },
            {
              "internalType": "address",
              "name": "donor",
              "type": "address"
            },
            {
              "internalType": "string",
              "name": "donorName",
              "type": "string"
            },
            {
              "internalType": "uint256",
              "name": "amount",
              "type": "uint256"
            },
            {
              "internalType": "string",
              "name": "message",
              "type": "string"
            },
            {
              "internalType": "uint256",
              "name": "timestamp",
              "type": "uint256"
            },
            {
              "internalType": "bytes32",
              "name": "txHash",
              "type": "bytes32"
            }
          ],
          "internalType": "struct DonationSystem.Donation[]",
          "name": "",
          "type": "tuple[]"
        }
      ],
      "stateMutability": "view",
      "type": "function"
    },
    {
      "inputs": [],
      "name": "getAllWithdrawals",
      "outputs": [
        {
          "components": [
            {
              "internalType": "uint256",
              "name": "id",
              "type": "uint256"
            },
            {
              "internalType": "uint256",
              "name": "campaignId",
              "type": "uint256"
            },
            {
              "internalType": "string",
              "name": "campaignTitle",
              "type": "string"
            },
            {
              "internalType": "address",
              "name": "recipient",
              "type": "address"
            },
            {
              "internalType": "uint256",
              "name": "amount",
              "type": "uint256"
            },
            {
              "internalType": "string",
              "name": "purpose",
              "type": "string"
            },
            {
              "internalType": "uint256",
              "name": "timestamp",
              "type": "uint256"
            },
            {
              "internalType": "bytes32",
              "name": "txHash",
              "type": "bytes32"
            }
          ],
          "internalType": "struct DonationSystem.Withdrawal[]",
          "name": "",
          "type": "tuple[]"
        }
      ],
      "stateMutability": "view",
      "type": "function"
    },
    {
      "inputs": [
        {
          "internalType": "uint256",
          "name": "_campaignId",
          "type": "uint256"
        }
      ],
      "name": "getCampaign",
      "outputs": [
        {
          "components": [
            {
              "internalType": "uint256",
              "name": "id",
              "type": "uint256"
            },
            {
              "internalType": "address",
              "name": "owner",
              "type": "address"
            },
            {
              "internalType": "address",
              "name": "beneficiary",
              "type": "address"
            },
            {
              "internalType": "string",
              "name": "title",
              "type": "string"
            },
            {
              "internalType": "string",
              "name": "description",
              "type": "string"
            },
            {
              "internalType": "string",
              "name": "category",
              "type": "string"
            },
            {
              "internalType": "string",
              "name": "imageUrl",
              "type": "string"
            },
            {
              "internalType": "uint256",
              "name": "targetAmount",
              "type": "uint256"
            },
            {
              "internalType": "uint256",
              "name": "raisedAmount",
              "type": "uint256"
            },
            {
              "internalType": "uint256",
              "name": "deadline",
              "type": "uint256"
            },
            {
              "internalType": "bool",
              "name": "isActive",
              "type": "bool"
            },
            {
              "internalType": "bool",
              "name": "isWithdrawn",
              "type": "bool"
            },
            {
              "internalType": "uint256",
              "name": "donorCount",
              "type": "uint256"
            },
            {
              "internalType": "uint256",
              "name": "createdAt",
              "type": "uint256"
            }
          ],
          "internalType": "struct DonationSystem.Campaign",
          "name": "",
          "type": "tuple"
        }
      ],
      "stateMutability": "view",
      "type": "function"
    },
    {
      "inputs": [],
      "name": "getCampaignCount",
      "outputs": [
        {
          "internalType": "uint256",
          "name": "",
          "type": "uint256"
        }
      ],
      "stateMutability": "view",
      "type": "function"
    },
    {
      "inputs": [
        {
          "internalType": "uint256",
          "name": "_campaignId",
          "type": "uint256"
        }
      ],
      "name": "getCampaignDonations",
      "outputs": [
        {
          "components": [
            {
              "internalType": "uint256",
              "name": "id",
              "type": "uint256"
            },
            {
              "internalType": "uint256",
              "name": "campaignId",
              "type": "uint256"
            },
            {
              "internalType": "address",
              "name": "donor",
              "type": "address"
            },
            {
              "internalType": "string",
              "name": "donorName",
              "type": "string"
            },
            {
              "internalType": "uint256",
              "name": "amount",
              "type": "uint256"
            },
            {
              "internalType": "string",
              "name": "message",
              "type": "string"
            },
            {
              "internalType": "uint256",
              "name": "timestamp",
              "type": "uint256"
            },
            {
              "internalType": "bytes32",
              "name": "txHash",
              "type": "bytes32"
            }
          ],
          "internalType": "struct DonationSystem.Donation[]",
          "name": "",
          "type": "tuple[]"
        }
      ],
      "stateMutability": "view",
      "type": "function"
    },
    {
      "inputs": [
        {
          "internalType": "uint256",
          "name": "_campaignId",
          "type": "uint256"
        }
      ],
      "name": "getCampaignWithdrawal",
      "outputs": [
        {
          "components": [
            {
              "internalType": "uint256",
              "name": "id",
              "type": "uint256"
            },
            {
              "internalType": "uint256",
              "name": "campaignId",
              "type": "uint256"
            },
            {
              "internalType": "string",
              "name": "campaignTitle",
              "type": "string"
            },
            {
              "internalType": "address",
              "name": "recipient",
              "type": "address"
            },
            {
              "internalType": "uint256",
              "name": "amount",
              "type": "uint256"
            },
            {
              "internalType": "string",
              "name": "purpose",
              "type": "string"
            },
            {
              "internalType": "uint256",
              "name": "timestamp",
              "type": "uint256"
            },
            {
              "internalType": "bytes32",
              "name": "txHash",
              "type": "bytes32"
            }
          ],
          "internalType": "struct DonationSystem.Withdrawal",
          "name": "",
          "type": "tuple"
        }
      ],
      "stateMutability": "view",
      "type": "function"
    },
    {
      "inputs": [],
      "name": "getContractBalance",
      "outputs": [
        {
          "internalType": "uint256",
          "name": "",
          "type": "uint256"
        }
      ],
      "stateMutability": "view",
      "type": "function"
    },
    {
      "inputs": [],
      "name": "getDonationCount",
      "outputs": [
        {
          "internalType": "uint256",
          "name": "",
          "type": "uint256"
        }
      ],
      "stateMutability": "view",
      "type": "function"
    },
    {
      "inputs": [],
      "name": "getPlatformStats",
      "outputs": [
        {
          "internalType": "uint256",
          "name": "totalCampaigns",
          "type": "uint256"
        },
        {
          "internalType": "uint256",
          "name": "totalDonations",
          "type": "uint256"
        },
        {
          "internalType": "uint256",
          "name": "totalFundsRaised",
          "type": "uint256"
        },
        {
          "internalType": "uint256",
          "name": "activeCampaigns",
          "type": "uint256"
        }
      ],
      "stateMutability": "view",
      "type": "function"
    },
    {
      "inputs": [
        {
          "internalType": "address",
          "name": "_user",
          "type": "address"
        }
      ],
      "name": "getUserCampaigns",
      "outputs": [
        {
          "components": [
            {
              "internalType": "uint256",
              "name": "id",
              "type": "uint256"
            },
            {
              "internalType": "address",
              "name": "owner",
              "type": "address"
            },
            {
              "internalType": "address",
              "name": "beneficiary",
              "type": "address"
            },
            {
              "internalType": "string",
              "name": "title",
              "type": "string"
            },
            {
              "internalType": "string",
              "name": "description",
              "type": "string"
            },
            {
              "internalType": "string",
              "name": "category",
              "type": "string"
            },
            {
              "internalType": "string",
              "name": "imageUrl",
              "type": "string"
            },
            {
              "internalType": "uint256",
              "name": "targetAmount",
              "type": "uint256"
            },
            {
              "internalType": "uint256",
              "name": "raisedAmount",
              "type": "uint256"
            },
            {
              "internalType": "uint256",
              "name": "deadline",
              "type": "uint256"
            },
            {
              "internalType": "bool",
              "name": "isActive",
              "type": "bool"
            },
            {
              "internalType": "bool",
              "name": "isWithdrawn",
              "type": "bool"
            },
            {
              "internalType": "uint256",
              "name": "donorCount",
              "type": "uint256"
            },
            {
              "internalType": "uint256",
              "name": "createdAt",
              "type": "uint256"
            }
          ],
          "internalType": "struct DonationSystem.Campaign[]",
          "name": "",
          "type": "tuple[]"
        }
      ],
      "stateMutability": "view",
      "type": "function"
    },
    {
      "inputs": [
        {
          "internalType": "address",
          "name": "_user",
          "type": "address"
        }
      ],
      "name": "getUserDonations",
      "outputs": [
        {
          "components": [
            {
              "internalType": "uint256",
              "name": "id",
              "type": "uint256"
            },
            {
              "internalType": "uint256",
              "name": "campaignId",
              "type": "uint256"
            },
            {
              "internalType": "address",
              "name": "donor",
              "type": "address"
            },
            {
              "internalType": "string",
              "name": "donorName",
              "type": "string"
            },
            {
              "internalType": "uint256",
              "name": "amount",
              "type": "uint256"
            },
            {
              "internalType": "string",
              "name": "message",
              "type": "string"
            },
            {
              "internalType": "uint256",
              "name": "timestamp",
              "type": "uint256"
            },
            {
              "internalType": "bytes32",
              "name": "txHash",
              "type": "bytes32"
            }
          ],
          "internalType": "struct DonationSystem.Donation[]",
          "name": "",
          "type": "tuple[]"
        }
      ],
      "stateMutability": "view",
      "type": "function"
    },
    {
      "inputs": [],
      "name": "getWhitelistedCount",
      "outputs": [
        {
          "internalType": "uint256",
          "name": "",
          "type": "uint256"
        }
      ],
      "stateMutability": "view",
      "type": "function"
    },
    {
      "inputs": [],
      "name": "getWhitelistedCreators",
      "outputs": [
        {
          "internalType": "address[]",
          "name": "",
          "type": "address[]"
        }
      ],
      "stateMutability": "view",
      "type": "function"
    },
    {
      "inputs": [],
      "name": "getWithdrawalCount",
      "outputs": [
        {
          "internalType": "uint256",
          "name": "",
          "type": "uint256"
        }
      ],
      "stateMutability": "view",
      "type": "function"
    },
    {
      "inputs": [],
      "name": "owner",
      "outputs": [
        {
          "internalType": "address",
          "name": "",
          "type": "address"
        }
      ],
      "stateMutability": "view",
      "type": "function"
    },
    {
      "inputs": [],
      "name": "platformFee",
      "outputs": [
        {
          "internalType": "uint256",
          "name": "",
          "type": "uint256"
        }
      ],
      "stateMutability": "view",
      "type": "function"
    },
    {
      "inputs": [],
      "name": "usdcToken",
      "outputs": [
        {
          "internalType": "contract IERC20",
          "name": "",
          "type": "address"
        }
      ],
      "stateMutability": "view",
      "type": "function"
    },
    {
      "inputs": [
        {
          "internalType": "address",
          "name": "",
          "type": "address"
        },
        {
          "internalType": "uint256",
          "name": "",
          "type": "uint256"
        }
      ],
      "name": "userCampaignIds",
      "outputs": [
        {
          "internalType": "uint256",
          "name": "",
          "type": "uint256"
        }
      ],
      "stateMutability": "view",
      "type": "function"
    },
    {
      "inputs": [
        {
          "internalType": "address",
          "name": "",
          "type": "address"
        },
        {
          "internalType": "uint256",
          "name": "",
          "type": "uint256"
        }
      ],
      "name": "userDonationIds",
      "outputs": [
        {
          "internalType": "uint256",
          "name": "",
          "type": "uint256"
        }
      ],
      "stateMutability": "view",
      "type": "function"
    },
    {
      "inputs": [
        {
          "internalType": "address",
          "name": "",
          "type": "address"
        }
      ],
      "name": "verifiedCreators",
      "outputs": [
        {
          "internalType": "bool",
          "name": "",
          "type": "bool"
        }
      ],
      "stateMutability": "view",
      "type": "function"
    },
    {
      "inputs": [
        {
          "internalType": "address",
          "name": "_creator",
          "type": "address"
        },
        {
          "internalType": "bool",
          "name": "_status",
          "type": "bool"
        }
      ],
      "name": "verifyCreator",
      "outputs": [],
      "stateMutability": "nonpayable",
      "type": "function"
    },
    {
      "inputs": [
        {
          "internalType": "uint256",
          "name": "",
          "type": "uint256"
        }
      ],
      "name": "whitelistedAddresses",
      "outputs": [
        {
          "internalType": "address",
          "name": "",
          "type": "address"
        }
      ],
      "stateMutability": "view",
      "type": "function"
    },
    {
      "inputs": [
        {
          "internalType": "uint256",
          "name": "_campaignId",
          "type": "uint256"
        },
        {
          "internalType": "string",
          "name": "_withdrawalPurpose",
          "type": "string"
        }
      ],
      "name": "withdrawFunds",
      "outputs": [],
      "stateMutability": "nonpayable",
      "type": "function"
    },
    {
      "inputs": [
        {
          "internalType": "uint256",
          "name": "",
          "type": "uint256"
        }
      ],
      "name": "withdrawalIds",
      "outputs": [
        {
          "internalType": "uint256",
          "name": "",
          "type": "uint256"
        }
      ],
      "stateMutability": "view",
      "type": "function"
    },
    {
      "inputs": [
        {
          "internalType": "uint256",
          "name": "",
          "type": "uint256"
        }
      ],
      "name": "withdrawals",
      "outputs": [
        {
          "internalType": "uint256",
          "name": "id",
          "type": "uint256"
        },
        {
          "internalType": "uint256",
          "name": "campaignId",
          "type": "uint256"
        },
        {
          "internalType": "string",
          "name": "campaignTitle",
          "type": "string"
        },
        {
          "internalType": "address",
          "name": "recipient",
          "type": "address"
        },
        {
          "internalType": "uint256",
          "name": "amount",
          "type": "uint256"
        },
        {
          "internalType": "string",
          "name": "purpose",
          "type": "string"
        },
        {
          "internalType": "uint256",
          "name": "timestamp",
          "type": "uint256"
        },
        {
          "internalType": "bytes32",
          "name": "txHash",
          "type": "bytes32"
        }
      ],
      "stateMutability": "view",
      "type": "function"
    }
  ],
  "bytecode": "0x608060405260006002553480156200001657600080fd5b50604051620041d8380380620041d883398101604081905262000039916200006d565b60008054336001600160a01b031991821617909155600180549091166001600160a01b03929092169190911790556200009f565b6000602082840312156200008057600080fd5b81516001600160a01b03811681146200009857600080fd5b9392505050565b61412980620000af6000396000f3fe608060405234801561001057600080fd5b50600436106101f15760003560e01c8063732435b21161010e578063a8f649e1116100a7578063ba4e5c4911610079578063ba4e5c49146104ac578063d12e3b4c146104bf578063e55a62a8146104df578063f8626af8146104e7578063ffe4560d146104fa57005b8063a8f649e114610433578063add150bc14610446578063b369359d14610479578063b9ffdbbd1461048c57005b80638da5cb5b116100e05780638da5cb5b146103e7578063a1e5084c146103fa578063a26674471461040d578063a7c0302a1461042057005b8063732435b2146103a4578063781952a8146103b75780637eca30fe146103bf57806386cdf604146103d257005b80633bb7b2481161018b5780635cc070761161015d5780635cc070761461033e578063681a06d7146103655780636caa92181461036d5780636f9fb98a1461037557806370879ff71461037d57005b80633bb7b248146102e35780633f90dc98146102f65780635167642f1461030b5780635598f8cc1461031e57005b806326232a2e116101c457806326232a2e146102915780632fb011fa146102a857806338a59a07146102bb57806339924268146102d057005b806302cafe75146101f357806311eac85514610211578063136d88831461023c578063141961bc14610264575b005b6101fb61050d565b604051610208919061369a565b60405180910390f35b600154610224906001600160a01b031681565b6040516001600160a01b039091168152602001610208565b61024461074b565b604080519485526020850193909352918301526060820152608001610208565b6102776102723660046136fe565b6107e7565b6040516102089e9d9c9b9a99989796959493929190613717565b61029a60025481565b604051908152602001610208565b61029a6102b63660046136fe565b610a83565b6102c3610aa4565b60405161020891906137d7565b61029a6102de3660046138c8565b610cd0565b6101f16102f1366004613903565b610d01565b6102fe610fd4565b604051610208919061393a565b6102c36103193660046136fe565b611036565b61033161032c3660046136fe565b61123c565b6040516102089190613a91565b61035161034c3660046136fe565b611561565b604051610208989796959493929190613aab565b60075461029a565b60035461029a565b61029a6116c0565b61039061038b366004613b0d565b611732565b604051610208989796959493929190613b2f565b6102c36103b2366004613b7b565b61181e565b60055461029a565b6101f16103cd3660046136fe565b611ad2565b6103da611b84565b6040516102089190613b96565b600054610224906001600160a01b031681565b6103da610408366004613b7b565b611f1c565b61029a61041b3660046138c8565b612312565b6101f161042e366004613c90565b61232e565b61029a610441366004613d05565b612897565b610469610454366004613b7b565b60066020526000908152604090205460ff1681565b6040519015158152602001610208565b61029a6104873660046136fe565b612cfb565b61049f61049a3660046136fe565b612d0b565b6040516102089190613dd6565b6102246104ba3660046136fe565b612f42565b61029a6104cd3660046136fe565b600f6020526000908152604090205481565b60045461029a565b6103906104f53660046136fe565b612f6c565b6101f1610508366004613de9565b612fa6565b60115460609060009067ffffffffffffffff81111561052e5761052e613bed565b60405190808252806020026020018201604052801561056757816020015b6105546134ac565b81526020019060019003908161054c5790505b50905060005b60115481101561074557600e60006011838154811061058e5761058e613e30565b906000526020600020015481526020019081526020016000206040518061010001604052908160008201548152602001600182015481526020016002820180546105d790613e46565b80601f016020809104026020016040519081016040528092919081815260200182805461060390613e46565b80156106505780601f1061062557610100808354040283529160200191610650565b820191906000526020600020905b81548152906001019060200180831161063357829003601f168201915b505050918352505060038201546001600160a01b031660208201526004820154604082015260058201805460609092019161068a90613e46565b80601f01602080910402602001604051908101604052809291908181526020018280546106b690613e46565b80156107035780601f106106d857610100808354040283529160200191610703565b820191906000526020600020905b8154815290600101906020018083116106e657829003601f168201915b505050505081526020016006820154815260200160078201548152505082828151811061073257610732613e30565b602090810291909101015260010161056d565b50919050565b600354600454600080808060015b60035481116107d95760008181526009602052604090206008015461077e9084613e90565b6000828152600960205260409020600a015490935060ff1680156107b45750600081815260096020819052604090912001544211155b156107c757816107c381613ea9565b9250505b806107d181613ea9565b915050610759565b509495939490939092509050565b600960205260009081526040902080546001820154600283015460038401805493946001600160a01b0393841694939092169261082390613e46565b80601f016020809104026020016040519081016040528092919081815260200182805461084f90613e46565b801561089c5780601f106108715761010080835404028352916020019161089c565b820191906000526020600020905b81548152906001019060200180831161087f57829003601f168201915b5050505050908060040180546108b190613e46565b80601f01602080910402602001604051908101604052809291908181526020018280546108dd90613e46565b801561092a5780601f106108ff5761010080835404028352916020019161092a565b820191906000526020600020905b81548152906001019060200180831161090d57829003601f168201915b50505050509080600501805461093f90613e46565b80601f016020809104026020016040519081016040528092919081815260200182805461096b90613e46565b80156109b85780601f1061098d576101008083540402835291602001916109b8565b820191906000526020600020905b81548152906001019060200180831161099b57829003601f168201915b5050505050908060060180546109cd90613e46565b80601f01602080910402602001604051908101604052809291908181526020018280546109f990613e46565b8015610a465780601f10610a1b57610100808354040283529160200191610a46565b820191906000526020600020905b815481529060010190602001808311610a2957829003601f168201915b505050600784015460088501546009860154600a870154600b880154600c909801549697939692955090935060ff8082169361010090920416918e565b60118181548110610a9357600080fd5b600091825260209091200154905081565b6060600060045467ffffffffffffffff811115610ac357610ac3613bed565b604051908082528060200260200182016040528015610afc57816020015b610ae96134fd565b815260200190600190039081610ae15790505b50905060015b6004548111610745576000818152600b60209081526040918290208251610100810184528154815260018201549281019290925260028101546001600160a01b031692820192909252600382018054919291606084019190610b6390613e46565b80601f0160208091040260200160405190810160405280929190818152602001828054610b8f90613e46565b8015610bdc5780601f10610bb157610100808354040283529160200191610bdc565b820191906000526020600020905b815481529060010190602001808311610bbf57829003601f168201915b5050505050815260200160048201548152602001600582018054610bff90613e46565b80601f0160208091040260200160405190810160405280929190818152602001828054610c2b90613e46565b8015610c785780601f10610c4d57610100808354040283529160200191610c78565b820191906000526020600020905b815481529060010190602001808311610c5b57829003601f168201915b50505091835250506006820154602082015260079091015460409091015282610ca2600184613ec2565b81518110610cb257610cb2613e30565b60200260200101819052508080610cc890613ea9565b915050610b02565b600d6020528160005260406000208181548110610cec57600080fd5b90600052602060002001600091509150505481565b6000546001600160a01b03163314610d345760405162461bcd60e51b8152600401610d2b90613ed5565b60405180910390fd5b6001600160a01b038216610d805760405162461bcd60e51b81526020600482015260136024820152721059191c995cdcc81d1a59185ac81d985b1a59606a1b6044820152606401610d2b565b6001600160a01b03821660009081526006602052604090205481151560ff909116151503610de45760405162461bcd60e51b81526020600482015260116024820152705374617475732073756461682073616d6160781b6044820152606401610d2b565b6001600160a01b0382166000908152600660205260409020805460ff19168215801591909117909155610e8157600754610e1f906001613e90565b6001600160a01b0383166000818152600860205260408120929092556007805460018101825592527fa66cc928b5edb82af9bd49922954155ab7b0942694bea4ce44661d9a8736c68890910180546001600160a01b0319169091179055610f8a565b6001600160a01b0382166000908152600860205260409020548015610f885760075480821015610f3a5760006007610eba600184613ec2565b81548110610eca57610eca613e30565b6000918252602090912001546001600160a01b03169050806007610eef600186613ec2565b81548110610eff57610eff613e30565b600091825260208083209190910180546001600160a01b0319166001600160a01b039485161790559290911681526008909152604090208290555b6007805480610f4b57610f4b613f23565b60008281526020808220830160001990810180546001600160a01b03191690559092019092556001600160a01b0386168252600890526040812055505b505b801515826001600160a01b03167f7cf0d35506df43c16710ef9710517182dd2bcd72680fc4baa46bb556d33d854f42604051610fc891815260200190565b60405180910390a35050565b6060600780548060200260200160405190810160405280929190818152602001828054801561102c57602002820191906000526020600020905b81546001600160a01b0316815260019091019060200180831161100e575b5050505050905090565b60608160008111801561104b57506003548111155b6110675760405162461bcd60e51b8152600401610d2b90613f39565b6000838152600a6020908152604080832080548251818502810185019093528083529193909284015b828210156112305760008481526020908190206040805161010081018252600886029092018054835260018101549383019390935260028301546001600160a01b0316908201526003820180549192916060840191906110ef90613e46565b80601f016020809104026020016040519081016040528092919081815260200182805461111b90613e46565b80156111685780601f1061113d57610100808354040283529160200191611168565b820191906000526020600020905b81548152906001019060200180831161114b57829003601f168201915b505050505081526020016004820154815260200160058201805461118b90613e46565b80601f01602080910402602001604051908101604052809291908181526020018280546111b790613e46565b80156112045780601f106111d957610100808354040283529160200191611204565b820191906000526020600020905b8154815290600101906020018083116111e757829003601f168201915b505050505081526020016006820154815260200160078201548152505081526020019060010190611090565b50505050915050919050565b61124461354e565b8160008111801561125757506003548111155b6112735760405162461bcd60e51b8152600401610d2b90613f39565b60008381526009602090815260409182902082516101c0810184528154815260018201546001600160a01b03908116938201939093526002820154909216928201929092526003820180549192916060840191906112d090613e46565b80601f01602080910402602001604051908101604052809291908181526020018280546112fc90613e46565b80156113495780601f1061131e57610100808354040283529160200191611349565b820191906000526020600020905b81548152906001019060200180831161132c57829003601f168201915b5050505050815260200160048201805461136290613e46565b80601f016020809104026020016040519081016040528092919081815260200182805461138e90613e46565b80156113db5780601f106113b0576101008083540402835291602001916113db565b820191906000526020600020905b8154815290600101906020018083116113be57829003601f168201915b505050505081526020016005820180546113f490613e46565b80601f016020809104026020016040519081016040528092919081815260200182805461142090613e46565b801561146d5780601f106114425761010080835404028352916020019161146d565b820191906000526020600020905b81548152906001019060200180831161145057829003601f168201915b5050505050815260200160068201805461148690613e46565b80601f01602080910402602001604051908101604052809291908181526020018280546114b290613e46565b80156114ff5780601f106114d4576101008083540402835291602001916114ff565b820191906000526020600020905b8154815290600101906020018083116114e257829003601f168201915b5050509183525050600782015460208201526008820154604082015260098201546060820152600a82015460ff8082161515608084015261010090910416151560a0820152600b82015460c0820152600c9091015460e0909101529392505050565b600e602052600090815260409020805460018201546002830180549293919261158990613e46565b80601f01602080910402602001604051908101604052809291908181526020018280546115b590613e46565b80156116025780601f106115d757610100808354040283529160200191611602565b820191906000526020600020905b8154815290600101906020018083116115e557829003601f168201915b505050506003830154600484015460058501805494956001600160a01b03909316949193509061163190613e46565b80601f016020809104026020016040519081016040528092919081815260200182805461165d90613e46565b80156116aa5780601f1061167f576101008083540402835291602001916116aa565b820191906000526020600020905b81548152906001019060200180831161168d57829003601f168201915b5050505050908060060154908060070154905088565b6001546040516370a0823160e01b81523060048201526000916001600160a01b0316906370a0823190602401602060405180830381865afa158015611709573d6000803e3d6000fd5b505050506040513d601f19601f8201168201806040525081019061172d9190613f70565b905090565b600a602052816000526040600020818154811061174e57600080fd5b600091825260209091206008909102018054600182015460028301546003840180549396509194506001600160a01b0316929161178a90613e46565b80601f01602080910402602001604051908101604052809291908181526020018280546117b690613e46565b80156118035780601f106117d857610100808354040283529160200191611803565b820191906000526020600020905b8154815290600101906020018083116117e657829003601f168201915b50505050509080600401549080600501805461163190613e46565b6001600160a01b0381166000908152600c6020908152604080832080548251818502810185019093528083526060949383018282801561187d57602002820191906000526020600020905b815481526020019060010190808311611869575b505050505090506000815167ffffffffffffffff8111156118a0576118a0613bed565b6040519080825280602002602001820160405280156118d957816020015b6118c66134fd565b8152602001906001900390816118be5790505b50905060005b8251811015611aca57600b60008483815181106118fe576118fe613e30565b602002602001015181526020019081526020016000206040518061010001604052908160008201548152602001600182015481526020016002820160009054906101000a90046001600160a01b03166001600160a01b03166001600160a01b0316815260200160038201805461197390613e46565b80601f016020809104026020016040519081016040528092919081815260200182805461199f90613e46565b80156119ec5780601f106119c1576101008083540402835291602001916119ec565b820191906000526020600020905b8154815290600101906020018083116119cf57829003601f168201915b5050505050815260200160048201548152602001600582018054611a0f90613e46565b80601f0160208091040260200160405190810160405280929190818152602001828054611a3b90613e46565b8015611a885780601f10611a5d57610100808354040283529160200191611a88565b820191906000526020600020905b815481529060010190602001808311611a6b57829003601f168201915b5050505050815260200160068201548152602001600782015481525050828281518110611ab757611ab7613e30565b60209081029190910101526001016118df565b509392505050565b6000546001600160a01b03163314611afc5760405162461bcd60e51b8152600401610d2b90613ed5565b80600081118015611b0f57506003548111155b611b2b5760405162461bcd60e51b8152600401610d2b90613f39565b60008281526009602052604090819020600a01805460ff191690555182907f6ce91c3f916a17a6dac5912acc0d627f6cc59593f7047bc09a11d4a1fde292ad90611b789042815260200190565b60405180910390a25050565b60105460609060009067ffffffffffffffff811115611ba557611ba5613bed565b604051908082528060200260200182016040528015611bde57816020015b611bcb61354e565b815260200190600190039081611bc35790505b50905060005b601054811015610745576009600060108381548110611c0557611c05613e30565b60009182526020808320909101548352828101939093526040918201902081516101c0810183528154815260018201546001600160a01b0390811694820194909452600282015490931691830191909152600381018054606084019190611c6b90613e46565b80601f0160208091040260200160405190810160405280929190818152602001828054611c9790613e46565b8015611ce45780601f10611cb957610100808354040283529160200191611ce4565b820191906000526020600020905b815481529060010190602001808311611cc757829003601f168201915b50505050508152602001600482018054611cfd90613e46565b80601f0160208091040260200160405190810160405280929190818152602001828054611d2990613e46565b8015611d765780601f10611d4b57610100808354040283529160200191611d76565b820191906000526020600020905b815481529060010190602001808311611d5957829003601f168201915b50505050508152602001600582018054611d8f90613e46565b80601f0160208091040260200160405190810160405280929190818152602001828054611dbb90613e46565b8015611e085780601f10611ddd57610100808354040283529160200191611e08565b820191906000526020600020905b815481529060010190602001808311611deb57829003601f168201915b50505050508152602001600682018054611e2190613e46565b80601f0160208091040260200160405190810160405280929190818152602001828054611e4d90613e46565b8015611e9a5780601f10611e6f57610100808354040283529160200191611e9a565b820191906000526020600020905b815481529060010190602001808311611e7d57829003601f168201915b5050509183525050600782015460208201526008820154604082015260098201546060820152600a82015460ff8082161515608084015261010090910416151560a0820152600b82015460c0820152600c9091015460e0909101528251839083908110611f0957611f09613e30565b6020908102919091010152600101611be4565b6001600160a01b0381166000908152600d60209081526040808320805482518185028101850190935280835260609493830182828015611f7b57602002820191906000526020600020905b815481526020019060010190808311611f67575b505050505090506000815167ffffffffffffffff811115611f9e57611f9e613bed565b604051908082528060200260200182016040528015611fd757816020015b611fc461354e565b815260200190600190039081611fbc5790505b50905060005b8251811015611aca5760096000848381518110611ffc57611ffc613e30565b602090810291909101810151825281810192909252604090810160002081516101c0810183528154815260018201546001600160a01b039081169482019490945260028201549093169183019190915260038101805460608401919061206190613e46565b80601f016020809104026020016040519081016040528092919081815260200182805461208d90613e46565b80156120da5780601f106120af576101008083540402835291602001916120da565b820191906000526020600020905b8154815290600101906020018083116120bd57829003601f168201915b505050505081526020016004820180546120f390613e46565b80601f016020809104026020016040519081016040528092919081815260200182805461211f90613e46565b801561216c5780601f106121415761010080835404028352916020019161216c565b820191906000526020600020905b81548152906001019060200180831161214f57829003601f168201915b5050505050815260200160058201805461218590613e46565b80601f01602080910402602001604051908101604052809291908181526020018280546121b190613e46565b80156121fe5780601f106121d3576101008083540402835291602001916121fe565b820191906000526020600020905b8154815290600101906020018083116121e157829003601f168201915b5050505050815260200160068201805461221790613e46565b80601f016020809104026020016040519081016040528092919081815260200182805461224390613e46565b80156122905780601f1061226557610100808354040283529160200191612290565b820191906000526020600020905b81548152906001019060200180831161227357829003601f168201915b5050509183525050600782015460208201526008820154604082015260098201546060820152600a82015460ff8082161515608084015261010090910416151560a0820152600b82015460c0820152600c9091015460e09091015282518390839081106122ff576122ff613e30565b6020908102919091010152600101611fdd565b600c6020528160005260406000208181548110610cec57600080fd5b8360008111801561234157506003548111155b61235d5760405162461bcd60e51b8152600401610d2b90613f39565b6000858152600960205260409020600a0154859060ff166123b75760405162461bcd60e51b815260206004820152601460248201527325b0b6b830b73cb2903a34b230b59030b5ba34b360611b6044820152606401610d2b565b600081815260096020819052604090912001544211156124195760405162461bcd60e51b815260206004820152601760248201527f4b616d70616e79652074656c616820626572616b6869720000000000000000006044820152606401610d2b565b600083116124695760405162461bcd60e51b815260206004820181905260248201527f4a756d6c616820646f6e617369206861727573206c65626968206461726920306044820152606401610d2b565b600154604051636eb1769f60e11b815233600482015230602482015284916001600160a01b03169063dd62ed3e90604401602060405180830381865afa1580156124b7573d6000803e3d6000fd5b505050506040513d601f19601f820116820180604052508101906124db9190613f70565b101561254f5760405162461bcd60e51b815260206004820152603c60248201527f416c6c6f77616e6365205553444320746964616b2063756b75702e2053696c6160448201527f6b616e20617070726f7665207465726c6562696820646168756c752e000000006064820152608401610d2b565b6001546040516323b872dd60e01b8152336004820152306024820152604481018590526000916001600160a01b0316906323b872dd906064016020604051808303816000875af11580156125a7573d6000803e3d6000fd5b505050506040513d601f19601f820116820180604052508101906125cb9190613f89565b9050806126105760405162461bcd60e51b8152602060048201526013602482015272151c985b9cd9995c881554d110c819d859d85b606a1b6044820152606401610d2b565b6004805490600061262083613ea9565b909155505060045460008881526009602052604081206008810180549192889261264b908490613e90565b9091555050600b8101805490600061266283613ea9565b919050555060006040518061010001604052808481526020018b8152602001336001600160a01b0316815260200160008b51116126bd5760405180604001604052806006815260200165416e6f6e696d60d01b8152506126bf565b8a5b81526020018881526020018981526020014281526020016001436126e39190613ec2565b4090526000848152600b602090815260409182902083518155908301516001820155908201516002820180546001600160a01b0319166001600160a01b039092169190911790556060820151919250829160038201906127439082613ff7565b506080820151600482015560a082015160058201906127629082613ff7565b5060c0820151600682015560e09091015160079091015560008a8152600a6020908152604080832080546001808201835591855293839020855160089095020193845591840151918301919091558201516002820180546001600160a01b0319166001600160a01b03909216919091179055606082015182919060038201906127eb9082613ff7565b506080820151600482015560a0820151600582019061280a9082613ff7565b5060c0820151600682015560e090910151600790910155336000818152600c6020908152604080832080546001810182559084529190922001859055518b9085907ff72c0e09c7877ae5a9c8ba71338c1f55d09bac17f3630ec28802676b1566eb8b90612883908c904290918252602082015260400190565b60405180910390a450505050505050505050565b3360009081526006602052604081205460ff1661291e576040805162461bcd60e51b81526020600482015260248101919091527f48616e79612070656d62756174206b616d70616e79652074657276657269666960448201527f6b6173692079616e67206461706174206d656d62756174206b616d70616e79656064820152608401610d2b565b600088511161296f5760405162461bcd60e51b815260206004820152601860248201527f4a7564756c20746964616b20626f6c6568206b6f736f6e6700000000000000006044820152606401610d2b565b600084116129bf5760405162461bcd60e51b815260206004820181905260248201527f54617267657420646f6e617369206861727573206c65626968206461726920306044820152606401610d2b565b6000831180156129d1575061016d8311155b612a1d5760405162461bcd60e51b815260206004820152601e60248201527f44757261736920686172757320616e7461726120312d333635206861726900006044820152606401610d2b565b6001600160a01b038216612a7f5760405162461bcd60e51b815260206004820152602360248201527f416c616d61742070656e6572696d61206d616e6661617420746964616b2076616044820152621b1a5960ea1b6064820152608401610d2b565b60038054906000612a8f83613ea9565b90915550506003546000612aa685620151806140b7565b612ab09042613e90565b9050604051806101c00160405280838152602001336001600160a01b03168152602001856001600160a01b031681526020018b81526020018a8152602001898152602001888152602001878152602001600081526020018281526020016001151581526020016000151581526020016000815260200142815250600960008481526020019081526020016000206000820151816000015560208201518160010160006101000a8154816001600160a01b0302191690836001600160a01b0316021790555060408201518160020160006101000a8154816001600160a01b0302191690836001600160a01b031602179055506060820151816003019081612bb69190613ff7565b5060808201516004820190612bcb9082613ff7565b5060a08201516005820190612be09082613ff7565b5060c08201516006820190612bf59082613ff7565b5060e082015160078201556101008083015160088301556101208301516009830155610140830151600a8301805461016086015161ffff1990911692151561ff00191692909217911515909202179055610180820151600b8201556101a090910151600c909101556010805460018181019092557f1b6847dc741a1b0cd08d278845f9d819d87b734759afb55fe2de5cb82a9ae67201839055336000818152600d602090815260408083208054958601815583529120909201849055905183907fdc26653af5b99b2da33e2ad69ee6600d9aeccc82b034501db4338309615ca23890612ce6908e908b9087906140ce565b60405180910390a35098975050505050505050565b60108181548110610a9357600080fd5b612d136134ac565b81600081118015612d2657506003548111155b612d425760405162461bcd60e51b8152600401610d2b90613f39565b6000838152600f602052604090205480612dad5760405162461bcd60e51b815260206004820152602660248201527f42656c756d206164612070656e6172696b616e20756e74756b206b616d70616e604482015265796520696e6960d01b6064820152608401610d2b565b600e6000828152602001908152602001600020604051806101000160405290816000820154815260200160018201548152602001600282018054612df090613e46565b80601f0160208091040260200160405190810160405280929190818152602001828054612e1c90613e46565b8015612e695780601f10612e3e57610100808354040283529160200191612e69565b820191906000526020600020905b815481529060010190602001808311612e4c57829003601f168201915b505050918352505060038201546001600160a01b0316602082015260048201546040820152600582018054606090920191612ea390613e46565b80601f0160208091040260200160405190810160405280929190818152602001828054612ecf90613e46565b8015612f1c5780601f10612ef157610100808354040283529160200191612f1c565b820191906000526020600020905b815481529060010190602001808311612eff57829003601f168201915b505050505081526020016006820154815260200160078201548152505092505050919050565b60078181548110612f5257600080fd5b6000918252602090912001546001600160a01b0316905081565b600b602052600090815260409020805460018201546002830154600384018054939492936001600160a01b03909216929161178a90613e46565b81600081118015612fb957506003548111155b612fd55760405162461bcd60e51b8152600401610d2b90613f39565b600083815260096020526040902060018101546001600160a01b031633146130385760405162461bcd60e51b815260206004820152601660248201527548616e79612070656d696c696b206b616d70616e796560501b6044820152606401610d2b565b600a810154610100900460ff16156130875760405162461bcd60e51b815260206004820152601260248201527144616e61207375646168206469746172696b60701b6044820152606401610d2b565b60008160080154116130db5760405162461bcd60e51b815260206004820152601c60248201527f546964616b206164612064616e6120756e74756b206469746172696b000000006044820152606401610d2b565b80600901544211806130f557508060070154816008015410155b61315b5760405162461bcd60e51b815260206004820152603160248201527f4b616d70616e79652062656c756d2073656c657361692061746175207461726760448201527065742062656c756d20746572636170616960781b6064820152608401610d2b565b60008351116131ac5760405162461bcd60e51b815260206004820152601c60248201527f54756a75616e2070656e6172696b616e206861727573206469697369000000006044820152606401610d2b565b6008810154600a8201805461ffff1916610100179055600580549060006131d283613ea9565b91905055506000600554905060405180610100016040528082815260200187815260200184600301805461320590613e46565b80601f016020809104026020016040519081016040528092919081815260200182805461323190613e46565b801561327e5780601f106132535761010080835404028352916020019161327e565b820191906000526020600020905b81548152906001019060200180831161326157829003601f168201915b505050918352505060028501546001600160a01b03166020820152604081018490526060810187905242608082015260a0016132bb600143613ec2565b4090526000828152600e6020908152604091829020835181559083015160018201559082015160028201906132f09082613ff7565b5060608201516003820180546001600160a01b0319166001600160a01b039092169190911790556080820151600482015560a082015160058201906133359082613ff7565b5060c0820151600682015560e0909101516007909101556011805460018082019092557f31ecc21a745e3968a04e9570e4425bc18fa8019c68028196b546d1669c200c68018290556000878152600f602052604080822084905591546002860154925163a9059cbb60e01b81526001600160a01b039384166004820152602481018690529192169063a9059cbb906044016020604051808303816000875af11580156133e5573d6000803e3d6000fd5b505050506040513d601f19601f820116820180604052508101906134099190613f89565b9050806134585760405162461bcd60e51b815260206004820152601f60248201527f5472616e736665722055534443206b652070656e6572696d6120676167616c006044820152606401610d2b565b6002840154604080518581524260208201526001600160a01b039092169189917f3dbb1a26f29aef1264c12ca1285deb60cca5666d8b17100c7ea1602c0a4014f6910160405180910390a350505050505050565b60405180610100016040528060008152602001600081526020016060815260200160006001600160a01b03168152602001600081526020016060815260200160008152602001600080191681525090565b604051806101000160405280600081526020016000815260200160006001600160a01b0316815260200160608152602001600081526020016060815260200160008152602001600080191681525090565b604051806101c001604052806000815260200160006001600160a01b0316815260200160006001600160a01b031681526020016060815260200160608152602001606081526020016060815260200160008152602001600081526020016000815260200160001515815260200160001515815260200160008152602001600081525090565b6000815180845260005b818110156135f9576020818501810151868301820152016135dd565b506000602082860101526020601f19601f83011685010191505092915050565b600061010082518452602083015160208501526040830151816040860152613643828601826135d3565b91505060018060a01b0360608401511660608501526080830151608085015260a083015184820360a086015261367982826135d3565b91505060c083015160c085015260e083015160e08501528091505092915050565b600060208083016020845280855180835260408601915060408160051b87010192506020870160005b828110156136f157603f198886030184526136df858351613619565b945092850192908501906001016136c3565b5092979650505050505050565b60006020828403121561371057600080fd5b5035919050565b8e81526001600160a01b038e1660208201526001600160a01b038d1660408201526101c0606082015260006137506101c083018e6135d3565b8281036080840152613762818e6135d3565b905082810360a0840152613776818d6135d3565b905082810360c084015261378a818c6135d3565b9150508860e083015287610100830152866101208301526137b061014083018715159052565b8415156101608301526101808201939093526101a001529c9b505050505050505050505050565b600060208083018184528085518083526040925060408601915060408160051b87010184880160005b8381101561389e57888303603f190185528151805184528781015188850152868101516001600160a01b031687850152606080820151610100828701819052919061384d838801826135d3565b92505050608080830151818701525060a0808301518683038288015261387383826135d3565b60c0858101519089015260e09485015194909701939093525050509386019390860190600101613800565b509098975050505050505050565b80356001600160a01b03811681146138c357600080fd5b919050565b600080604083850312156138db57600080fd5b6138e4836138ac565b946020939093013593505050565b801515811461390057600080fd5b50565b6000806040838503121561391657600080fd5b61391f836138ac565b9150602083013561392f816138f2565b809150509250929050565b6020808252825182820181905260009190848201906040850190845b8181101561397b5783516001600160a01b031683529284019291840191600101613956565b50909695505050505050565b60006101c08251845260208301516139aa60208601826001600160a01b03169052565b5060408301516139c560408601826001600160a01b03169052565b5060608301518160608601526139dd828601826135d3565b915050608083015184820360808601526139f782826135d3565b91505060a083015184820360a0860152613a1182826135d3565b91505060c083015184820360c0860152613a2b82826135d3565b91505060e083015160e085015261010080840151818601525061012080840151818601525061014080840151613a648287018215159052565b50506101608381015115159085015261018080840151908501526101a09283015192909301919091525090565b602081526000613aa46020830184613987565b9392505050565b60006101008a8352896020840152806040840152613acb8184018a6135d3565b6001600160a01b03891660608501526080840188905283810360a08501529050613af581876135d3565b60c0840195909552505060e001529695505050505050565b60008060408385031215613b2057600080fd5b50508035926020909101359150565b888152602081018890526001600160a01b038716604082015261010060608201819052600090613b61838201896135d3565b905086608084015282810360a0840152613af581876135d3565b600060208284031215613b8d57600080fd5b613aa4826138ac565b600060208083016020845280855180835260408601915060408160051b87010192506020870160005b828110156136f157603f19888603018452613bdb858351613987565b94509285019290850190600101613bbf565b634e487b7160e01b600052604160045260246000fd5b600082601f830112613c1457600080fd5b813567ffffffffffffffff80821115613c2f57613c2f613bed565b604051601f8301601f19908116603f01168101908282118183101715613c5757613c57613bed565b81604052838152866020858801011115613c7057600080fd5b836020870160208301376000602085830101528094505050505092915050565b60008060008060808587031215613ca657600080fd5b84359350602085013567ffffffffffffffff80821115613cc557600080fd5b613cd188838901613c03565b94506040870135915080821115613ce757600080fd5b50613cf487828801613c03565b949793965093946060013593505050565b600080600080600080600060e0888a031215613d2057600080fd5b873567ffffffffffffffff80821115613d3857600080fd5b613d448b838c01613c03565b985060208a0135915080821115613d5a57600080fd5b613d668b838c01613c03565b975060408a0135915080821115613d7c57600080fd5b613d888b838c01613c03565b965060608a0135915080821115613d9e57600080fd5b50613dab8a828b01613c03565b9450506080880135925060a08801359150613dc860c089016138ac565b905092959891949750929550565b602081526000613aa46020830184613619565b60008060408385031215613dfc57600080fd5b82359150602083013567ffffffffffffffff811115613e1a57600080fd5b613e2685828601613c03565b9150509250929050565b634e487b7160e01b600052603260045260246000fd5b600181811c90821680613e5a57607f821691505b60208210810361074557634e487b7160e01b600052602260045260246000fd5b634e487b7160e01b600052601160045260246000fd5b80820180821115613ea357613ea3613e7a565b92915050565b600060018201613ebb57613ebb613e7a565b5060010190565b81810381811115613ea357613ea3613e7a565b6020808252602e908201527f48616e79612070656d696c696b206b6f6e7472616b2079616e6720646170617460408201526d206d656c616b756b616e20696e6960901b606082015260800190565b634e487b7160e01b600052603160045260246000fd5b60208082526018908201527f4b616d70616e796520746964616b20646974656d756b616e0000000000000000604082015260600190565b600060208284031215613f8257600080fd5b5051919050565b600060208284031215613f9b57600080fd5b8151613aa4816138f2565b601f821115613ff2576000816000526020600020601f850160051c81016020861015613fcf5750805b601f850160051c820191505b81811015613fee57828155600101613fdb565b5050505b505050565b815167ffffffffffffffff81111561401157614011613bed565b6140258161401f8454613e46565b84613fa6565b602080601f83116001811461405a57600084156140425750858301515b600019600386901b1c1916600185901b178555613fee565b600085815260208120601f198616915b828110156140895788860151825594840194600190910190840161406a565b50858210156140a75787850151600019600388901b60f8161c191681555b5050505050600190811b01905550565b8082028115828204841417613ea357613ea3613e7a565b6060815260006140e160608301866135d3565b6020830194909452506040015291905056fea26469706673582212201a99d05394c2305d9fb4a65aa3c305407bdf1388902f0857be9719ec4fcae01064736f6c63430008180033",
  "linkReferences": {},
  "deployedLinkReferences": {}
}