{
  "_format": "hh-sol-artifact-1",
  "contractName": "DonationSystem",
  "sourceName": "contracts/DonationSystem.sol",
  "abi": [
    {
      "inputs": [],
      "stateMutability": "nonpayable",
      "type": "constructor"
    },
    {
      "anonymous": false,
      "inputs": [
        {
          "indexed": true,
          "internalType": "uint256",
          "name": "campaignId",
          "type": "uint256"
        },
        {
          "indexed": true,
          "internalType": "address",
          "name": "owner",
          "type": "address"
        },
        {
          "indexed": false,
          "internalType": "string",
          "name": "title",
          "type": "string"
        },
        {
          "indexed": false,
          "internalType": "uint256",
          "name": "targetAmount",
          "type": "uint256"
        },
        {
          "indexed": false,
          "internalType": "uint256",
          "name": "deadline",
          "type": "uint256"
        }
      ],
      "name": "CampaignCreated",
      "type": "event"
    },
    {
      "anonymous": false,
      "inputs": [
        {
          "indexed": true,
          "internalType": "uint256",
          "name": "campaignId",
          "type": "uint256"
        },
        {
          "indexed": false,
          "internalType": "uint256",
          "name": "timestamp",
          "type": "uint256"
        }
      ],
      "name": "CampaignDeactivated",
      "type": "event"
    },
    {
      "anonymous": false,
      "inputs": [
        {
          "indexed": true,
          "internalType": "uint256",
          "name": "donationId",
          "type": "uint256"
        },
        {
          "indexed": true,
          "internalType": "uint256",
          "name": "campaignId",
          "type": "uint256"
        },
        {
          "indexed": true,
          "internalType": "address",
          "name": "donor",
          "type": "address"
        },
        {
          "indexed": false,
          "internalType": "uint256",
          "name": "amount",
          "type": "uint256"
        },
        {
          "indexed": false,
          "internalType": "uint256",
          "name": "timestamp",
          "type": "uint256"
        }
      ],
      "name": "DonationMade",
      "type": "event"
    },
    {
      "anonymous": false,
      "inputs": [
        {
          "indexed": true,
          "internalType": "uint256",
          "name": "campaignId",
          "type": "uint256"
        },
        {
          "indexed": true,
          "internalType": "address",
          "name": "recipient",
          "type": "address"
        },
        {
          "indexed": false,
          "internalType": "uint256",
          "name": "amount",
          "type": "uint256"
        },
        {
          "indexed": false,
          "internalType": "uint256",
          "name": "timestamp",
          "type": "uint256"
        }
      ],
      "name": "FundsWithdrawn",
      "type": "event"
    },
    {
      "inputs": [
        {
          "internalType": "uint256",
          "name": "",
          "type": "uint256"
        },
        {
          "internalType": "uint256",
          "name": "",
          "type": "uint256"
        }
      ],
      "name": "campaignDonations",
      "outputs": [
        {
          "internalType": "uint256",
          "name": "id",
          "type": "uint256"
        },
        {
          "internalType": "uint256",
          "name": "campaignId",
          "type": "uint256"
        },
        {
          "internalType": "address",
          "name": "donor",
          "type": "address"
        },
        {
          "internalType": "string",
          "name": "donorName",
          "type": "string"
        },
        {
          "internalType": "uint256",
          "name": "amount",
          "type": "uint256"
        },
        {
          "internalType": "string",
          "name": "message",
          "type": "string"
        },
        {
          "internalType": "uint256",
          "name": "timestamp",
          "type": "uint256"
        },
        {
          "internalType": "bytes32",
          "name": "txHash",
          "type": "bytes32"
        }
      ],
      "stateMutability": "view",
      "type": "function"
    },
    {
      "inputs": [
        {
          "internalType": "uint256",
          "name": "",
          "type": "uint256"
        }
      ],
      "name": "campaignIds",
      "outputs": [
        {
          "internalType": "uint256",
          "name": "",
          "type": "uint256"
        }
      ],
      "stateMutability": "view",
      "type": "function"
    },
    {
      "inputs": [
        {
          "internalType": "uint256",
          "name": "",
          "type": "uint256"
        }
      ],
      "name": "campaignWithdrawalId",
      "outputs": [
        {
          "internalType": "uint256",
          "name": "",
          "type": "uint256"
        }
      ],
      "stateMutability": "view",
      "type": "function"
    },
    {
      "inputs": [
        {
          "internalType": "uint256",
          "name": "",
          "type": "uint256"
        }
      ],
      "name": "campaigns",
      "outputs": [
        {
          "internalType": "uint256",
          "name": "id",
          "type": "uint256"
        },
        {
          "internalType": "address payable",
          "name": "owner",
          "type": "address"
        },
        {
          "internalType": "string",
          "name": "title",
          "type": "string"
        },
        {
          "internalType": "string",
          "name": "description",
          "type": "string"
        },
        {
          "internalType": "string",
          "name": "category",
          "type": "string"
        },
        {
          "internalType": "string",
          "name": "imageUrl",
          "type": "string"
        },
        {
          "internalType": "uint256",
          "name": "targetAmount",
          "type": "uint256"
        },
        {
          "internalType": "uint256",
          "name": "raisedAmount",
          "type": "uint256"
        },
        {
          "internalType": "uint256",
          "name": "deadline",
          "type": "uint256"
        },
        {
          "internalType": "bool",
          "name": "isActive",
          "type": "bool"
        },
        {
          "internalType": "bool",
          "name": "isWithdrawn",
          "type": "bool"
        },
        {
          "internalType": "uint256",
          "name": "donorCount",
          "type": "uint256"
        },
        {
          "internalType": "uint256",
          "name": "createdAt",
          "type": "uint256"
        }
      ],
      "stateMutability": "view",
      "type": "function"
    },
    {
      "inputs": [
        {
          "internalType": "string",
          "name": "_title",
          "type": "string"
        },
        {
          "internalType": "string",
          "name": "_description",
          "type": "string"
        },
        {
          "internalType": "string",
          "name": "_category",
          "type": "string"
        },
        {
          "internalType": "string",
          "name": "_imageUrl",
          "type": "string"
        },
        {
          "internalType": "uint256",
          "name": "_targetAmount",
          "type": "uint256"
        },
        {
          "internalType": "uint256",
          "name": "_durationDays",
          "type": "uint256"
        }
      ],
      "name": "createCampaign",
      "outputs": [
        {
          "internalType": "uint256",
          "name": "",
          "type": "uint256"
        }
      ],
      "stateMutability": "nonpayable",
      "type": "function"
    },
    {
      "inputs": [
        {
          "internalType": "uint256",
          "name": "_campaignId",
          "type": "uint256"
        }
      ],
      "name": "deactivateCampaign",
      "outputs": [],
      "stateMutability": "nonpayable",
      "type": "function"
    },
    {
      "inputs": [
        {
          "internalType": "uint256",
          "name": "_campaignId",
          "type": "uint256"
        },
        {
          "internalType": "string",
          "name": "_donorName",
          "type": "string"
        },
        {
          "internalType": "string",
          "name": "_message",
          "type": "string"
        }
      ],
      "name": "donate",
      "outputs": [],
      "stateMutability": "payable",
      "type": "function"
    },
    {
      "inputs": [
        {
          "internalType": "uint256",
          "name": "",
          "type": "uint256"
        }
      ],
      "name": "donations",
      "outputs": [
        {
          "internalType": "uint256",
          "name": "id",
          "type": "uint256"
        },
        {
          "internalType": "uint256",
          "name": "campaignId",
          "type": "uint256"
        },
        {
          "internalType": "address",
          "name": "donor",
          "type": "address"
        },
        {
          "internalType": "string",
          "name": "donorName",
          "type": "string"
        },
        {
          "internalType": "uint256",
          "name": "amount",
          "type": "uint256"
        },
        {
          "internalType": "string",
          "name": "message",
          "type": "string"
        },
        {
          "internalType": "uint256",
          "name": "timestamp",
          "type": "uint256"
        },
        {
          "internalType": "bytes32",
          "name": "txHash",
          "type": "bytes32"
        }
      ],
      "stateMutability": "view",
      "type": "function"
    },
    {
      "inputs": [],
      "name": "getAllCampaigns",
      "outputs": [
        {
          "components": [
            {
              "internalType": "uint256",
              "name": "id",
              "type": "uint256"
            },
            {
              "internalType": "address payable",
              "name": "owner",
              "type": "address"
            },
            {
              "internalType": "string",
              "name": "title",
              "type": "string"
            },
            {
              "internalType": "string",
              "name": "description",
              "type": "string"
            },
            {
              "internalType": "string",
              "name": "category",
              "type": "string"
            },
            {
              "internalType": "string",
              "name": "imageUrl",
              "type": "string"
            },
            {
              "internalType": "uint256",
              "name": "targetAmount",
              "type": "uint256"
            },
            {
              "internalType": "uint256",
              "name": "raisedAmount",
              "type": "uint256"
            },
            {
              "internalType": "uint256",
              "name": "deadline",
              "type": "uint256"
            },
            {
              "internalType": "bool",
              "name": "isActive",
              "type": "bool"
            },
            {
              "internalType": "bool",
              "name": "isWithdrawn",
              "type": "bool"
            },
            {
              "internalType": "uint256",
              "name": "donorCount",
              "type": "uint256"
            },
            {
              "internalType": "uint256",
              "name": "createdAt",
              "type": "uint256"
            }
          ],
          "internalType": "struct DonationSystem.Campaign[]",
          "name": "",
          "type": "tuple[]"
        }
      ],
      "stateMutability": "view",
      "type": "function"
    },
    {
      "inputs": [],
      "name": "getAllDonations",
      "outputs": [
        {
          "components": [
            {
              "internalType": "uint256",
              "name": "id",
              "type": "uint256"
            },
            {
              "internalType": "uint256",
              "name": "campaignId",
              "type": "uint256"
            },
            {
              "internalType": "address",
              "name": "donor",
              "type": "address"
            },
            {
              "internalType": "string",
              "name": "donorName",
              "type": "string"
            },
            {
              "internalType": "uint256",
              "name": "amount",
              "type": "uint256"
            },
            {
              "internalType": "string",
              "name": "message",
              "type": "string"
            },
            {
              "internalType": "uint256",
              "name": "timestamp",
              "type": "uint256"
            },
            {
              "internalType": "bytes32",
              "name": "txHash",
              "type": "bytes32"
            }
          ],
          "internalType": "struct DonationSystem.Donation[]",
          "name": "",
          "type": "tuple[]"
        }
      ],
      "stateMutability": "view",
      "type": "function"
    },
    {
      "inputs": [],
      "name": "getAllWithdrawals",
      "outputs": [
        {
          "components": [
            {
              "internalType": "uint256",
              "name": "id",
              "type": "uint256"
            },
            {
              "internalType": "uint256",
              "name": "campaignId",
              "type": "uint256"
            },
            {
              "internalType": "string",
              "name": "campaignTitle",
              "type": "string"
            },
            {
              "internalType": "address",
              "name": "recipient",
              "type": "address"
            },
            {
              "internalType": "uint256",
              "name": "amount",
              "type": "uint256"
            },
            {
              "internalType": "uint256",
              "name": "timestamp",
              "type": "uint256"
            },
            {
              "internalType": "bytes32",
              "name": "txHash",
              "type": "bytes32"
            }
          ],
          "internalType": "struct DonationSystem.Withdrawal[]",
          "name": "",
          "type": "tuple[]"
        }
      ],
      "stateMutability": "view",
      "type": "function"
    },
    {
      "inputs": [
        {
          "internalType": "uint256",
          "name": "_campaignId",
          "type": "uint256"
        }
      ],
      "name": "getCampaign",
      "outputs": [
        {
          "components": [
            {
              "internalType": "uint256",
              "name": "id",
              "type": "uint256"
            },
            {
              "internalType": "address payable",
              "name": "owner",
              "type": "address"
            },
            {
              "internalType": "string",
              "name": "title",
              "type": "string"
            },
            {
              "internalType": "string",
              "name": "description",
              "type": "string"
            },
            {
              "internalType": "string",
              "name": "category",
              "type": "string"
            },
            {
              "internalType": "string",
              "name": "imageUrl",
              "type": "string"
            },
            {
              "internalType": "uint256",
              "name": "targetAmount",
              "type": "uint256"
            },
            {
              "internalType": "uint256",
              "name": "raisedAmount",
              "type": "uint256"
            },
            {
              "internalType": "uint256",
              "name": "deadline",
              "type": "uint256"
            },
            {
              "internalType": "bool",
              "name": "isActive",
              "type": "bool"
            },
            {
              "internalType": "bool",
              "name": "isWithdrawn",
              "type": "bool"
            },
            {
              "internalType": "uint256",
              "name": "donorCount",
              "type": "uint256"
            },
            {
              "internalType": "uint256",
              "name": "createdAt",
              "type": "uint256"
            }
          ],
          "internalType": "struct DonationSystem.Campaign",
          "name": "",
          "type": "tuple"
        }
      ],
      "stateMutability": "view",
      "type": "function"
    },
    {
      "inputs": [],
      "name": "getCampaignCount",
      "outputs": [
        {
          "internalType": "uint256",
          "name": "",
          "type": "uint256"
        }
      ],
      "stateMutability": "view",
      "type": "function"
    },
    {
      "inputs": [
        {
          "internalType": "uint256",
          "name": "_campaignId",
          "type": "uint256"
        }
      ],
      "name": "getCampaignDonations",
      "outputs": [
        {
          "components": [
            {
              "internalType": "uint256",
              "name": "id",
              "type": "uint256"
            },
            {
              "internalType": "uint256",
              "name": "campaignId",
              "type": "uint256"
            },
            {
              "internalType": "address",
              "name": "donor",
              "type": "address"
            },
            {
              "internalType": "string",
              "name": "donorName",
              "type": "string"
            },
            {
              "internalType": "uint256",
              "name": "amount",
              "type": "uint256"
            },
            {
              "internalType": "string",
              "name": "message",
              "type": "string"
            },
            {
              "internalType": "uint256",
              "name": "timestamp",
              "type": "uint256"
            },
            {
              "internalType": "bytes32",
              "name": "txHash",
              "type": "bytes32"
            }
          ],
          "internalType": "struct DonationSystem.Donation[]",
          "name": "",
          "type": "tuple[]"
        }
      ],
      "stateMutability": "view",
      "type": "function"
    },
    {
      "inputs": [
        {
          "internalType": "uint256",
          "name": "_campaignId",
          "type": "uint256"
        }
      ],
      "name": "getCampaignWithdrawal",
      "outputs": [
        {
          "components": [
            {
              "internalType": "uint256",
              "name": "id",
              "type": "uint256"
            },
            {
              "internalType": "uint256",
              "name": "campaignId",
              "type": "uint256"
            },
            {
              "internalType": "string",
              "name": "campaignTitle",
              "type": "string"
            },
            {
              "internalType": "address",
              "name": "recipient",
              "type": "address"
            },
            {
              "internalType": "uint256",
              "name": "amount",
              "type": "uint256"
            },
            {
              "internalType": "uint256",
              "name": "timestamp",
              "type": "uint256"
            },
            {
              "internalType": "bytes32",
              "name": "txHash",
              "type": "bytes32"
            }
          ],
          "internalType": "struct DonationSystem.Withdrawal",
          "name": "",
          "type": "tuple"
        }
      ],
      "stateMutability": "view",
      "type": "function"
    },
    {
      "inputs": [],
      "name": "getContractBalance",
      "outputs": [
        {
          "internalType": "uint256",
          "name": "",
          "type": "uint256"
        }
      ],
      "stateMutability": "view",
      "type": "function"
    },
    {
      "inputs": [],
      "name": "getDonationCount",
      "outputs": [
        {
          "internalType": "uint256",
          "name": "",
          "type": "uint256"
        }
      ],
      "stateMutability": "view",
      "type": "function"
    },
    {
      "inputs": [],
      "name": "getPlatformStats",
      "outputs": [
        {
          "internalType": "uint256",
          "name": "totalCampaigns",
          "type": "uint256"
        },
        {
          "internalType": "uint256",
          "name": "totalDonations",
          "type": "uint256"
        },
        {
          "internalType": "uint256",
          "name": "totalFundsRaised",
          "type": "uint256"
        },
        {
          "internalType": "uint256",
          "name": "activeCampaigns",
          "type": "uint256"
        }
      ],
      "stateMutability": "view",
      "type": "function"
    },
    {
      "inputs": [
        {
          "internalType": "address",
          "name": "_user",
          "type": "address"
        }
      ],
      "name": "getUserCampaigns",
      "outputs": [
        {
          "components": [
            {
              "internalType": "uint256",
              "name": "id",
              "type": "uint256"
            },
            {
              "internalType": "address payable",
              "name": "owner",
              "type": "address"
            },
            {
              "internalType": "string",
              "name": "title",
              "type": "string"
            },
            {
              "internalType": "string",
              "name": "description",
              "type": "string"
            },
            {
              "internalType": "string",
              "name": "category",
              "type": "string"
            },
            {
              "internalType": "string",
              "name": "imageUrl",
              "type": "string"
            },
            {
              "internalType": "uint256",
              "name": "targetAmount",
              "type": "uint256"
            },
            {
              "internalType": "uint256",
              "name": "raisedAmount",
              "type": "uint256"
            },
            {
              "internalType": "uint256",
              "name": "deadline",
              "type": "uint256"
            },
            {
              "internalType": "bool",
              "name": "isActive",
              "type": "bool"
            },
            {
              "internalType": "bool",
              "name": "isWithdrawn",
              "type": "bool"
            },
            {
              "internalType": "uint256",
              "name": "donorCount",
              "type": "uint256"
            },
            {
              "internalType": "uint256",
              "name": "createdAt",
              "type": "uint256"
            }
          ],
          "internalType": "struct DonationSystem.Campaign[]",
          "name": "",
          "type": "tuple[]"
        }
      ],
      "stateMutability": "view",
      "type": "function"
    },
    {
      "inputs": [
        {
          "internalType": "address",
          "name": "_user",
          "type": "address"
        }
      ],
      "name": "getUserDonations",
      "outputs": [
        {
          "components": [
            {
              "internalType": "uint256",
              "name": "id",
              "type": "uint256"
            },
            {
              "internalType": "uint256",
              "name": "campaignId",
              "type": "uint256"
            },
            {
              "internalType": "address",
              "name": "donor",
              "type": "address"
            },
            {
              "internalType": "string",
              "name": "donorName",
              "type": "string"
            },
            {
              "internalType": "uint256",
              "name": "amount",
              "type": "uint256"
            },
            {
              "internalType": "string",
              "name": "message",
              "type": "string"
            },
            {
              "internalType": "uint256",
              "name": "timestamp",
              "type": "uint256"
            },
            {
              "internalType": "bytes32",
              "name": "txHash",
              "type": "bytes32"
            }
          ],
          "internalType": "struct DonationSystem.Donation[]",
          "name": "",
          "type": "tuple[]"
        }
      ],
      "stateMutability": "view",
      "type": "function"
    },
    {
      "inputs": [],
      "name": "getWithdrawalCount",
      "outputs": [
        {
          "internalType": "uint256",
          "name": "",
          "type": "uint256"
        }
      ],
      "stateMutability": "view",
      "type": "function"
    },
    {
      "inputs": [],
      "name": "owner",
      "outputs": [
        {
          "internalType": "address",
          "name": "",
          "type": "address"
        }
      ],
      "stateMutability": "view",
      "type": "function"
    },
    {
      "inputs": [],
      "name": "platformFee",
      "outputs": [
        {
          "internalType": "uint256",
          "name": "",
          "type": "uint256"
        }
      ],
      "stateMutability": "view",
      "type": "function"
    },
    {
      "inputs": [
        {
          "internalType": "address",
          "name": "",
          "type": "address"
        },
        {
          "internalType": "uint256",
          "name": "",
          "type": "uint256"
        }
      ],
      "name": "userCampaignIds",
      "outputs": [
        {
          "internalType": "uint256",
          "name": "",
          "type": "uint256"
        }
      ],
      "stateMutability": "view",
      "type": "function"
    },
    {
      "inputs": [
        {
          "internalType": "address",
          "name": "",
          "type": "address"
        },
        {
          "internalType": "uint256",
          "name": "",
          "type": "uint256"
        }
      ],
      "name": "userDonationIds",
      "outputs": [
        {
          "internalType": "uint256",
          "name": "",
          "type": "uint256"
        }
      ],
      "stateMutability": "view",
      "type": "function"
    },
    {
      "inputs": [
        {
          "internalType": "uint256",
          "name": "_campaignId",
          "type": "uint256"
        }
      ],
      "name": "withdrawFunds",
      "outputs": [],
      "stateMutability": "nonpayable",
      "type": "function"
    },
    {
      "inputs": [
        {
          "internalType": "uint256",
          "name": "",
          "type": "uint256"
        }
      ],
      "name": "withdrawalIds",
      "outputs": [
        {
          "internalType": "uint256",
          "name": "",
          "type": "uint256"
        }
      ],
      "stateMutability": "view",
      "type": "function"
    },
    {
      "inputs": [
        {
          "internalType": "uint256",
          "name": "",
          "type": "uint256"
        }
      ],
      "name": "withdrawals",
      "outputs": [
        {
          "internalType": "uint256",
          "name": "id",
          "type": "uint256"
        },
        {
          "internalType": "uint256",
          "name": "campaignId",
          "type": "uint256"
        },
        {
          "internalType": "string",
          "name": "campaignTitle",
          "type": "string"
        },
        {
          "internalType": "address",
          "name": "recipient",
          "type": "address"
        },
        {
          "internalType": "uint256",
          "name": "amount",
          "type": "uint256"
        },
        {
          "internalType": "uint256",
          "name": "timestamp",
          "type": "uint256"
        },
        {
          "internalType": "bytes32",
          "name": "txHash",
          "type": "bytes32"
        }
      ],
      "stateMutability": "view",
      "type": "function"
    },
    {
      "stateMutability": "payable",
      "type": "receive"
    }
  ],
  "bytecode": "0x6080604052600060015534801561001557600080fd5b50600080546001600160a01b03191633179055613704806100376000396000f3fe6080604052600436106101bb5760003560e01c8063732435b2116100ec578063a8aee9401161008a578063d12e3b4c11610064578063d12e3b4c14610540578063e55a62a81461056d578063f2ccf83914610582578063f8626af81461059557600080fd5b8063a8aee940146104d3578063b369359d146104f3578063b9ffdbbd1461051357600080fd5b806386cdf604116100c657806386cdf604146104395780638da5cb5b1461045b578063a1e5084c14610493578063a2667447146104b357600080fd5b8063732435b2146103e4578063781952a8146104045780637eca30fe1461041957600080fd5b806339924268116101595780635cc07076116101335780635cc07076146103555780636caa9218146103885780636f9fb98a1461039d57806370879ff7146103b057600080fd5b806339924268146102e85780635167642f146103085780635598f8cc1461032857600080fd5b8063155dd5ee11610195578063155dd5ee1461026057806326232a2e146102825780632fb011fa146102a657806338a59a07146102c657600080fd5b806302cafe75146101c7578063136d8883146101f2578063141961bc1461022757600080fd5b366101c257005b600080fd5b3480156101d357600080fd5b506101dc6105b5565b6040516101e99190612e2f565b60405180910390f35b3480156101fe57600080fd5b5061020761075f565b6040805194855260208501939093529183015260608201526080016101e9565b34801561023357600080fd5b50610247610242366004612e93565b6107fa565b6040516101e99d9c9b9a99989796959493929190612eac565b34801561026c57600080fd5b5061028061027b366004612e93565b610a8c565b005b34801561028e57600080fd5b5061029860015481565b6040519081526020016101e9565b3480156102b257600080fd5b506102986102c1366004612e93565b610e75565b3480156102d257600080fd5b506102db610e96565b6040516101e99190612f5b565b3480156102f457600080fd5b5061029861030336600461304c565b6110c2565b34801561031457600080fd5b506102db610323366004612e93565b6110f3565b34801561033457600080fd5b50610348610343366004612e93565b6112f9565b6040516101e99190613163565b34801561036157600080fd5b50610375610370366004612e93565b61160c565b6040516101e9979695949392919061317d565b34801561039457600080fd5b50600254610298565b3480156103a957600080fd5b5047610298565b3480156103bc57600080fd5b506103d06103cb3660046131cb565b6116da565b6040516101e99897969594939291906131ed565b3480156103f057600080fd5b506102db6103ff366004613251565b611855565b34801561041057600080fd5b50600454610298565b34801561042557600080fd5b50610280610434366004612e93565b611b09565b34801561044557600080fd5b5061044e611c02565b6040516101e9919061326c565b34801561046757600080fd5b5060005461047b906001600160a01b031681565b6040516001600160a01b0390911681526020016101e9565b34801561049f57600080fd5b5061044e6104ae366004613251565b611f88565b3480156104bf57600080fd5b506102986104ce36600461304c565b612384565b3480156104df57600080fd5b506102986104ee366004613366565b6123a0565b3480156104ff57600080fd5b5061029861050e366004612e93565b6126ca565b34801561051f57600080fd5b5061053361052e366004612e93565b6126da565b6040516101e99190613425565b34801561054c57600080fd5b5061029861055b366004612e93565b600b6020526000908152604090205481565b34801561057957600080fd5b50600354610298565b610280610590366004613438565b61287a565b3480156105a157600080fd5b506103d06105b0366004612e93565b612c3b565b600d5460609060009067ffffffffffffffff8111156105d6576105d66132c3565b60405190808252806020026020018201604052801561060f57816020015b6105fc612c75565b8152602001906001900390816105f45790505b50905060005b600d5481101561075957600a6000600d8381548110610636576106366134a5565b906000526020600020015481526020019081526020016000206040518060e0016040529081600082015481526020016001820154815260200160028201805461067e906134bb565b80601f01602080910402602001604051908101604052809291908181526020018280546106aa906134bb565b80156106f75780601f106106cc576101008083540402835291602001916106f7565b820191906000526020600020905b8154815290600101906020018083116106da57829003601f168201915b505050918352505060038201546001600160a01b0316602082015260048201546040820152600582015460608201526006909101546080909101528251839083908110610746576107466134a5565b6020908102919091010152600101610615565b50919050565b600254600354600080808060015b60025481116107ec576000818152600560205260409020600701546107929084613505565b60008281526005602052604090206009015490935060ff1680156107c757506000818152600560205260409020600801544211155b156107da57816107d68161351e565b9250505b806107e48161351e565b91505061076d565b509495939490939092509050565b60056020526000908152604090208054600182015460028301805492936001600160a01b039092169261082c906134bb565b80601f0160208091040260200160405190810160405280929190818152602001828054610858906134bb565b80156108a55780601f1061087a576101008083540402835291602001916108a5565b820191906000526020600020905b81548152906001019060200180831161088857829003601f168201915b5050505050908060030180546108ba906134bb565b80601f01602080910402602001604051908101604052809291908181526020018280546108e6906134bb565b80156109335780601f1061090857610100808354040283529160200191610933565b820191906000526020600020905b81548152906001019060200180831161091657829003601f168201915b505050505090806004018054610948906134bb565b80601f0160208091040260200160405190810160405280929190818152602001828054610974906134bb565b80156109c15780601f10610996576101008083540402835291602001916109c1565b820191906000526020600020905b8154815290600101906020018083116109a457829003601f168201915b5050505050908060050180546109d6906134bb565b80601f0160208091040260200160405190810160405280929190818152602001828054610a02906134bb565b8015610a4f5780601f10610a2457610100808354040283529160200191610a4f565b820191906000526020600020905b815481529060010190602001808311610a3257829003601f168201915b5050506006840154600785015460088601546009870154600a880154600b909801549697939692955090935060ff8082169361010090920416918d565b80600081118015610a9f57506002548111155b610ac45760405162461bcd60e51b8152600401610abb90613537565b60405180910390fd5b600082815260056020526040902060018101546001600160a01b03163314610b275760405162461bcd60e51b815260206004820152601660248201527548616e79612070656d696c696b206b616d70616e796560501b6044820152606401610abb565b6009810154610100900460ff1615610b765760405162461bcd60e51b815260206004820152601260248201527144616e61207375646168206469746172696b60701b6044820152606401610abb565b6000816007015411610bca5760405162461bcd60e51b815260206004820152601c60248201527f546964616b206164612064616e6120756e74756b206469746172696b000000006044820152606401610abb565b8060080154421180610be457508060060154816007015410155b610c4a5760405162461bcd60e51b815260206004820152603160248201527f4b616d70616e79652062656c756d2073656c657361692061746175207461726760448201527065742062656c756d20746572636170616960781b6064820152608401610abb565b600781015460098201805461ffff191661010017905560048054906000610c708361351e565b9190505550600060045490506040518060e00160405280828152602001868152602001846002018054610ca2906134bb565b80601f0160208091040260200160405190810160405280929190818152602001828054610cce906134bb565b8015610d1b5780601f10610cf057610100808354040283529160200191610d1b565b820191906000526020600020905b815481529060010190602001808311610cfe57829003601f168201915b505050918352505033602082015260408101849052426060820152608001610d4460014361356e565b4090526000828152600a602090815260409182902083518155908301516001820155908201516002820190610d7990826135d2565b5060608201516003820180546001600160a01b0319166001600160a01b039283161790556080830151600483015560a0830151600583015560c090920151600690910155600d805460018181019092557fd7b6990105719101dabeb77144f2a3385c8033acd3af97e9423a695e81ad1eb5018390556000878152600b602052604080822085905591860154915191909216916108fc851502918591818181858888f19350505050158015610e31573d6000803e3d6000fd5b5060408051838152426020820152339187917f3dbb1a26f29aef1264c12ca1285deb60cca5666d8b17100c7ea1602c0a4014f6910160405180910390a35050505050565b600d8181548110610e8557600080fd5b600091825260209091200154905081565b6060600060035467ffffffffffffffff811115610eb557610eb56132c3565b604051908082528060200260200182016040528015610eee57816020015b610edb612cbe565b815260200190600190039081610ed35790505b50905060015b6003548111610759576000818152600760209081526040918290208251610100810184528154815260018201549281019290925260028101546001600160a01b031692820192909252600382018054919291606084019190610f55906134bb565b80601f0160208091040260200160405190810160405280929190818152602001828054610f81906134bb565b8015610fce5780601f10610fa357610100808354040283529160200191610fce565b820191906000526020600020905b815481529060010190602001808311610fb157829003601f168201915b5050505050815260200160048201548152602001600582018054610ff1906134bb565b80601f016020809104026020016040519081016040528092919081815260200182805461101d906134bb565b801561106a5780601f1061103f5761010080835404028352916020019161106a565b820191906000526020600020905b81548152906001019060200180831161104d57829003601f168201915b5050509183525050600682015460208201526007909101546040909101528261109460018461356e565b815181106110a4576110a46134a5565b602002602001018190525080806110ba9061351e565b915050610ef4565b600960205281600052604060002081815481106110de57600080fd5b90600052602060002001600091509150505481565b60608160008111801561110857506002548111155b6111245760405162461bcd60e51b8152600401610abb90613537565b600083815260066020908152604080832080548251818502810185019093528083529193909284015b828210156112ed5760008481526020908190206040805161010081018252600886029092018054835260018101549383019390935260028301546001600160a01b0316908201526003820180549192916060840191906111ac906134bb565b80601f01602080910402602001604051908101604052809291908181526020018280546111d8906134bb565b80156112255780601f106111fa57610100808354040283529160200191611225565b820191906000526020600020905b81548152906001019060200180831161120857829003601f168201915b5050505050815260200160048201548152602001600582018054611248906134bb565b80601f0160208091040260200160405190810160405280929190818152602001828054611274906134bb565b80156112c15780601f10611296576101008083540402835291602001916112c1565b820191906000526020600020905b8154815290600101906020018083116112a457829003601f168201915b50505050508152602001600682015481526020016007820154815250508152602001906001019061114d565b50505050915050919050565b611301612d0f565b8160008111801561131457506002548111155b6113305760405162461bcd60e51b8152600401610abb90613537565b60008381526005602090815260409182902082516101a0810184528154815260018201546001600160a01b031692810192909252600281018054929391929184019161137b906134bb565b80601f01602080910402602001604051908101604052809291908181526020018280546113a7906134bb565b80156113f45780601f106113c9576101008083540402835291602001916113f4565b820191906000526020600020905b8154815290600101906020018083116113d757829003601f168201915b5050505050815260200160038201805461140d906134bb565b80601f0160208091040260200160405190810160405280929190818152602001828054611439906134bb565b80156114865780601f1061145b57610100808354040283529160200191611486565b820191906000526020600020905b81548152906001019060200180831161146957829003601f168201915b5050505050815260200160048201805461149f906134bb565b80601f01602080910402602001604051908101604052809291908181526020018280546114cb906134bb565b80156115185780601f106114ed57610100808354040283529160200191611518565b820191906000526020600020905b8154815290600101906020018083116114fb57829003601f168201915b50505050508152602001600582018054611531906134bb565b80601f016020809104026020016040519081016040528092919081815260200182805461155d906134bb565b80156115aa5780601f1061157f576101008083540402835291602001916115aa565b820191906000526020600020905b81548152906001019060200180831161158d57829003601f168201915b5050509183525050600682015460208201526007820154604082015260088201546060820152600982015460ff8082161515608084015261010090910416151560a0820152600a82015460c0820152600b9091015460e0909101529392505050565b600a6020526000908152604090208054600182015460028301805492939192611634906134bb565b80601f0160208091040260200160405190810160405280929190818152602001828054611660906134bb565b80156116ad5780601f10611682576101008083540402835291602001916116ad565b820191906000526020600020905b81548152906001019060200180831161169057829003601f168201915b5050505060038301546004840154600585015460069095015493946001600160a01b039092169390925087565b600660205281600052604060002081815481106116f657600080fd5b600091825260209091206008909102018054600182015460028301546003840180549396509194506001600160a01b03169291611732906134bb565b80601f016020809104026020016040519081016040528092919081815260200182805461175e906134bb565b80156117ab5780601f10611780576101008083540402835291602001916117ab565b820191906000526020600020905b81548152906001019060200180831161178e57829003601f168201915b5050505050908060040154908060050180546117c6906134bb565b80601f01602080910402602001604051908101604052809291908181526020018280546117f2906134bb565b801561183f5780601f106118145761010080835404028352916020019161183f565b820191906000526020600020905b81548152906001019060200180831161182257829003601f168201915b5050505050908060060154908060070154905088565b6001600160a01b03811660009081526008602090815260408083208054825181850281018501909352808352606094938301828280156118b457602002820191906000526020600020905b8154815260200190600101908083116118a0575b505050505090506000815167ffffffffffffffff8111156118d7576118d76132c3565b60405190808252806020026020018201604052801561191057816020015b6118fd612cbe565b8152602001906001900390816118f55790505b50905060005b8251811015611b015760076000848381518110611935576119356134a5565b602002602001015181526020019081526020016000206040518061010001604052908160008201548152602001600182015481526020016002820160009054906101000a90046001600160a01b03166001600160a01b03166001600160a01b031681526020016003820180546119aa906134bb565b80601f01602080910402602001604051908101604052809291908181526020018280546119d6906134bb565b8015611a235780601f106119f857610100808354040283529160200191611a23565b820191906000526020600020905b815481529060010190602001808311611a0657829003601f168201915b5050505050815260200160048201548152602001600582018054611a46906134bb565b80601f0160208091040260200160405190810160405280929190818152602001828054611a72906134bb565b8015611abf5780601f10611a9457610100808354040283529160200191611abf565b820191906000526020600020905b815481529060010190602001808311611aa257829003601f168201915b5050505050815260200160068201548152602001600782015481525050828281518110611aee57611aee6134a5565b6020908102919091010152600101611916565b509392505050565b6000546001600160a01b03163314611b7a5760405162461bcd60e51b815260206004820152602e60248201527f48616e79612070656d696c696b206b6f6e7472616b2079616e6720646170617460448201526d206d656c616b756b616e20696e6960901b6064820152608401610abb565b80600081118015611b8d57506002548111155b611ba95760405162461bcd60e51b8152600401610abb90613537565b60008281526005602052604090819020600901805460ff191690555182907f6ce91c3f916a17a6dac5912acc0d627f6cc59593f7047bc09a11d4a1fde292ad90611bf69042815260200190565b60405180910390a25050565b600c5460609060009067ffffffffffffffff811115611c2357611c236132c3565b604051908082528060200260200182016040528015611c5c57816020015b611c49612d0f565b815260200190600190039081611c415790505b50905060005b600c548110156107595760056000600c8381548110611c8357611c836134a5565b60009182526020808320909101548352828101939093526040918201902081516101a0810183528154815260018201546001600160a01b0316938101939093526002810180549192840191611cd7906134bb565b80601f0160208091040260200160405190810160405280929190818152602001828054611d03906134bb565b8015611d505780601f10611d2557610100808354040283529160200191611d50565b820191906000526020600020905b815481529060010190602001808311611d3357829003601f168201915b50505050508152602001600382018054611d69906134bb565b80601f0160208091040260200160405190810160405280929190818152602001828054611d95906134bb565b8015611de25780601f10611db757610100808354040283529160200191611de2565b820191906000526020600020905b815481529060010190602001808311611dc557829003601f168201915b50505050508152602001600482018054611dfb906134bb565b80601f0160208091040260200160405190810160405280929190818152602001828054611e27906134bb565b8015611e745780601f10611e4957610100808354040283529160200191611e74565b820191906000526020600020905b815481529060010190602001808311611e5757829003601f168201915b50505050508152602001600582018054611e8d906134bb565b80601f0160208091040260200160405190810160405280929190818152602001828054611eb9906134bb565b8015611f065780601f10611edb57610100808354040283529160200191611f06565b820191906000526020600020905b815481529060010190602001808311611ee957829003601f168201915b5050509183525050600682015460208201526007820154604082015260088201546060820152600982015460ff8082161515608084015261010090910416151560a0820152600a82015460c0820152600b9091015460e0909101528251839083908110611f7557611f756134a5565b6020908102919091010152600101611c62565b6001600160a01b0381166000908152600960209081526040808320805482518185028101850190935280835260609493830182828015611fe757602002820191906000526020600020905b815481526020019060010190808311611fd3575b505050505090506000815167ffffffffffffffff81111561200a5761200a6132c3565b60405190808252806020026020018201604052801561204357816020015b612030612d0f565b8152602001906001900390816120285790505b50905060005b8251811015611b015760056000848381518110612068576120686134a5565b60200260200101518152602001908152602001600020604051806101a0016040529081600082015481526020016001820160009054906101000a90046001600160a01b03166001600160a01b03166001600160a01b031681526020016002820180546120d3906134bb565b80601f01602080910402602001604051908101604052809291908181526020018280546120ff906134bb565b801561214c5780601f106121215761010080835404028352916020019161214c565b820191906000526020600020905b81548152906001019060200180831161212f57829003601f168201915b50505050508152602001600382018054612165906134bb565b80601f0160208091040260200160405190810160405280929190818152602001828054612191906134bb565b80156121de5780601f106121b3576101008083540402835291602001916121de565b820191906000526020600020905b8154815290600101906020018083116121c157829003601f168201915b505050505081526020016004820180546121f7906134bb565b80601f0160208091040260200160405190810160405280929190818152602001828054612223906134bb565b80156122705780601f1061224557610100808354040283529160200191612270565b820191906000526020600020905b81548152906001019060200180831161225357829003601f168201915b50505050508152602001600582018054612289906134bb565b80601f01602080910402602001604051908101604052809291908181526020018280546122b5906134bb565b80156123025780601f106122d757610100808354040283529160200191612302565b820191906000526020600020905b8154815290600101906020018083116122e557829003601f168201915b5050509183525050600682015460208201526007820154604082015260088201546060820152600982015460ff8082161515608084015261010090910416151560a0820152600a82015460c0820152600b9091015460e0909101528251839083908110612371576123716134a5565b6020908102919091010152600101612049565b600860205281600052604060002081815481106110de57600080fd5b6000808751116123f25760405162461bcd60e51b815260206004820152601860248201527f4a7564756c20746964616b20626f6c6568206b6f736f6e6700000000000000006044820152606401610abb565b600083116124425760405162461bcd60e51b815260206004820181905260248201527f54617267657420646f6e617369206861727573206c65626968206461726920306044820152606401610abb565b600082118015612454575061016d8211155b6124a05760405162461bcd60e51b815260206004820152601e60248201527f44757261736920686172757320616e7461726120312d333635206861726900006044820152606401610abb565b600280549060006124b08361351e565b909155505060025460006124c78462015180613692565b6124d19042613505565b604080516101a0810182528481523360208083019182528284018e8152606084018e9052608084018d905260a084018c905260c084018b9052600060e08501819052610100850187905260016101208601819052610140860182905261016086018290524261018087015289825260059093529490942083518155915190820180546001600160a01b0319166001600160a01b03909216919091179055915192935091600282019061258390826135d2565b506060820151600382019061259890826135d2565b50608082015160048201906125ad90826135d2565b5060a082015160058201906125c290826135d2565b5060c0820151600682015560e082015160078201556101008083015160088301556101208301516009808401805461014087015161ffff1990911693151561ff0019169390931792151590930291909117909155610160830151600a83015561018090920151600b90910155600c805460018181019092557fdf6966c971051c3d54ec59162606531493a51404a002842f56009d7e5cf4a8c70184905533600081815260209384526040808220805494850181558252939020909101849055905183907fdc26653af5b99b2da33e2ad69ee6600d9aeccc82b034501db4338309615ca238906126b6908d908a9087906136a9565b60405180910390a350979650505050505050565b600c8181548110610e8557600080fd5b6126e2612c75565b816000811180156126f557506002548111155b6127115760405162461bcd60e51b8152600401610abb90613537565b6000838152600b60205260409020548061277c5760405162461bcd60e51b815260206004820152602660248201527f42656c756d206164612070656e6172696b616e20756e74756b206b616d70616e604482015265796520696e6960d01b6064820152608401610abb565b600a60008281526020019081526020016000206040518060e001604052908160008201548152602001600182015481526020016002820180546127be906134bb565b80601f01602080910402602001604051908101604052809291908181526020018280546127ea906134bb565b80156128375780601f1061280c57610100808354040283529160200191612837565b820191906000526020600020905b81548152906001019060200180831161281a57829003601f168201915b505050918352505060038201546001600160a01b031660208201526004820154604082015260058201546060820152600690910154608090910152949350505050565b8260008111801561288d57506002548111155b6128a95760405162461bcd60e51b8152600401610abb90613537565b600084815260056020526040902060090154849060ff166129035760405162461bcd60e51b815260206004820152601460248201527325b0b6b830b73cb2903a34b230b59030b5ba34b360611b6044820152606401610abb565b6000818152600560205260409020600801544211156129645760405162461bcd60e51b815260206004820152601760248201527f4b616d70616e79652074656c616820626572616b6869720000000000000000006044820152606401610abb565b600034116129b45760405162461bcd60e51b815260206004820181905260248201527f4a756d6c616820646f6e617369206861727573206c65626968206461726920306044820152606401610abb565b600380549060006129c48361351e565b90915550506003546000868152600560205260408120600781018054919234926129ef908490613505565b9091555050600a81018054906000612a068361351e565b91905055506000604051806101000160405280848152602001898152602001336001600160a01b031681526020016000895111612a615760405180604001604052806006815260200165416e6f6e696d60d01b815250612a63565b885b815234602082015260408101889052426060820152608001612a8660014361356e565b40905260008481526007602090815260409182902083518155908301516001820155908201516002820180546001600160a01b0319166001600160a01b03909216919091179055606082015191925082916003820190612ae690826135d2565b506080820151600482015560a08201516005820190612b0590826135d2565b5060c082015160068281019190915560e0909201516007909101556000898152602091825260408082208054600180820183559184529284902085516008909402019283559284015192820192909255908201516002820180546001600160a01b0319166001600160a01b0390921691909117905560608201518291906003820190612b9190826135d2565b506080820151600482015560a08201516005820190612bb090826135d2565b5060c0820151600682015560e0909101516007909101553360008181526008602090815260408083208054600181018255908452919092200185905551899085907ff72c0e09c7877ae5a9c8ba71338c1f55d09bac17f3630ec28802676b1566eb8b90612c299034904290918252602082015260400190565b60405180910390a45050505050505050565b6007602052600090815260409020805460018201546002830154600384018054939492936001600160a01b039092169291611732906134bb565b6040518060e0016040528060008152602001600081526020016060815260200160006001600160a01b031681526020016000815260200160008152602001600080191681525090565b604051806101000160405280600081526020016000815260200160006001600160a01b0316815260200160608152602001600081526020016060815260200160008152602001600080191681525090565b604051806101a001604052806000815260200160006001600160a01b031681526020016060815260200160608152602001606081526020016060815260200160008152602001600081526020016000815260200160001515815260200160001515815260200160008152602001600081525090565b6000815180845260005b81811015612daa57602081850181015186830182015201612d8e565b506000602082860101526020601f19601f83011685010191505092915050565b80518252602081015160208301526000604082015160e06040850152612df360e0850182612d84565b6060848101516001600160a01b0316908601526080808501519086015260a0848101519086015260c09384015193909401929092525090919050565b600060208083016020845280855180835260408601915060408160051b87010192506020870160005b82811015612e8657603f19888603018452612e74858351612dca565b94509285019290850190600101612e58565b5092979650505050505050565b600060208284031215612ea557600080fd5b5035919050565b8d81526001600160a01b038d1660208201526101a060408201526000612ed66101a083018e612d84565b8281036060840152612ee8818e612d84565b90508281036080840152612efc818d612d84565b905082810360a0840152612f10818c612d84565b9150508860c08301528760e083015286610100830152612f3561012083018715159052565b84151561014083015261016082019390935261018001529b9a5050505050505050505050565b600060208083018184528085518083526040925060408601915060408160051b87010184880160005b8381101561302257888303603f190185528151805184528781015188850152868101516001600160a01b0316878501526060808201516101008287018190529190612fd183880182612d84565b92505050608080830151818701525060a08083015186830382880152612ff78382612d84565b60c0858101519089015260e09485015194909701939093525050509386019390860190600101612f84565b509098975050505050505050565b80356001600160a01b038116811461304757600080fd5b919050565b6000806040838503121561305f57600080fd5b61306883613030565b946020939093013593505050565b60006101a082518452602083015161309960208601826001600160a01b03169052565b5060408301518160408601526130b182860182612d84565b915050606083015184820360608601526130cb8282612d84565b915050608083015184820360808601526130e58282612d84565b91505060a083015184820360a08601526130ff8282612d84565b91505060c083015160c085015260e083015160e0850152610100808401518186015250610120808401516131368287018215159052565b50506101408381015115159085015261016080840151908501526101809283015192909301919091525090565b6020815260006131766020830184613076565b9392505050565b87815286602082015260e06040820152600061319c60e0830188612d84565b6001600160a01b0396909616606083015250608081019390935260a083019190915260c0909101529392505050565b600080604083850312156131de57600080fd5b50508035926020909101359150565b888152602081018890526001600160a01b03871660408201526101006060820181905260009061321f83820189612d84565b905086608084015282810360a08401526132398187612d84565b60c0840195909552505060e001529695505050505050565b60006020828403121561326357600080fd5b61317682613030565b600060208083016020845280855180835260408601915060408160051b87010192506020870160005b82811015612e8657603f198886030184526132b1858351613076565b94509285019290850190600101613295565b634e487b7160e01b600052604160045260246000fd5b600082601f8301126132ea57600080fd5b813567ffffffffffffffff80821115613305576133056132c3565b604051601f8301601f19908116603f0116810190828211818310171561332d5761332d6132c3565b8160405283815286602085880101111561334657600080fd5b836020870160208301376000602085830101528094505050505092915050565b60008060008060008060c0878903121561337f57600080fd5b863567ffffffffffffffff8082111561339757600080fd5b6133a38a838b016132d9565b975060208901359150808211156133b957600080fd5b6133c58a838b016132d9565b965060408901359150808211156133db57600080fd5b6133e78a838b016132d9565b955060608901359150808211156133fd57600080fd5b5061340a89828a016132d9565b9350506080870135915060a087013590509295509295509295565b6020815260006131766020830184612dca565b60008060006060848603121561344d57600080fd5b83359250602084013567ffffffffffffffff8082111561346c57600080fd5b613478878388016132d9565b9350604086013591508082111561348e57600080fd5b5061349b868287016132d9565b9150509250925092565b634e487b7160e01b600052603260045260246000fd5b600181811c908216806134cf57607f821691505b60208210810361075957634e487b7160e01b600052602260045260246000fd5b634e487b7160e01b600052601160045260246000fd5b80820180821115613518576135186134ef565b92915050565b600060018201613530576135306134ef565b5060010190565b60208082526018908201527f4b616d70616e796520746964616b20646974656d756b616e0000000000000000604082015260600190565b81810381811115613518576135186134ef565b601f8211156135cd576000816000526020600020601f850160051c810160208610156135aa5750805b601f850160051c820191505b818110156135c9578281556001016135b6565b5050505b505050565b815167ffffffffffffffff8111156135ec576135ec6132c3565b613600816135fa84546134bb565b84613581565b602080601f831160018114613635576000841561361d5750858301515b600019600386901b1c1916600185901b1785556135c9565b600085815260208120601f198616915b8281101561366457888601518255948401946001909101908401613645565b50858210156136825787850151600019600388901b60f8161c191681555b5050505050600190811b01905550565b8082028115828204841417613518576135186134ef565b6060815260006136bc6060830186612d84565b6020830194909452506040015291905056fea2646970667358221220a67cf175e2d39cc3251fc5622f1f43ec2731ad942b6b38847c9cce33d04cbc2b64736f6c63430008180033",
  "linkReferences": {},
  "deployedLinkReferences": {}
}