{
  "_format": "hh-sol-artifact-1",
  "contractName": "DonationSystem",
  "sourceName": "contracts/DonationSystem.sol",
  "abi": [
    {
      "inputs": [
        {
          "internalType": "address",
          "name": "_usdcToken",
          "type": "address"
        }
      ],
      "stateMutability": "nonpayable",
      "type": "constructor"
    },
    {
      "anonymous": false,
      "inputs": [
        {
          "indexed": true,
          "internalType": "uint256",
          "name": "campaignId",
          "type": "uint256"
        },
        {
          "indexed": true,
          "internalType": "address",
          "name": "owner",
          "type": "address"
        },
        {
          "indexed": false,
          "internalType": "string",
          "name": "title",
          "type": "string"
        },
        {
          "indexed": false,
          "internalType": "uint256",
          "name": "targetAmount",
          "type": "uint256"
        },
        {
          "indexed": false,
          "internalType": "uint256",
          "name": "deadline",
          "type": "uint256"
        }
      ],
      "name": "CampaignCreated",
      "type": "event"
    },
    {
      "anonymous": false,
      "inputs": [
        {
          "indexed": true,
          "internalType": "uint256",
          "name": "campaignId",
          "type": "uint256"
        },
        {
          "indexed": false,
          "internalType": "uint256",
          "name": "timestamp",
          "type": "uint256"
        }
      ],
      "name": "CampaignDeactivated",
      "type": "event"
    },
    {
      "anonymous": false,
      "inputs": [
        {
          "indexed": true,
          "internalType": "uint256",
          "name": "donationId",
          "type": "uint256"
        },
        {
          "indexed": true,
          "internalType": "uint256",
          "name": "campaignId",
          "type": "uint256"
        },
        {
          "indexed": true,
          "internalType": "address",
          "name": "donor",
          "type": "address"
        },
        {
          "indexed": false,
          "internalType": "uint256",
          "name": "amount",
          "type": "uint256"
        },
        {
          "indexed": false,
          "internalType": "uint256",
          "name": "timestamp",
          "type": "uint256"
        }
      ],
      "name": "DonationMade",
      "type": "event"
    },
    {
      "anonymous": false,
      "inputs": [
        {
          "indexed": true,
          "internalType": "uint256",
          "name": "campaignId",
          "type": "uint256"
        },
        {
          "indexed": true,
          "internalType": "address",
          "name": "recipient",
          "type": "address"
        },
        {
          "indexed": false,
          "internalType": "uint256",
          "name": "amount",
          "type": "uint256"
        },
        {
          "indexed": false,
          "internalType": "uint256",
          "name": "timestamp",
          "type": "uint256"
        }
      ],
      "name": "FundsWithdrawn",
      "type": "event"
    },
    {
      "stateMutability": "nonpayable",
      "type": "fallback"
    },
    {
      "inputs": [
        {
          "internalType": "uint256",
          "name": "",
          "type": "uint256"
        },
        {
          "internalType": "uint256",
          "name": "",
          "type": "uint256"
        }
      ],
      "name": "campaignDonations",
      "outputs": [
        {
          "internalType": "uint256",
          "name": "id",
          "type": "uint256"
        },
        {
          "internalType": "uint256",
          "name": "campaignId",
          "type": "uint256"
        },
        {
          "internalType": "address",
          "name": "donor",
          "type": "address"
        },
        {
          "internalType": "string",
          "name": "donorName",
          "type": "string"
        },
        {
          "internalType": "uint256",
          "name": "amount",
          "type": "uint256"
        },
        {
          "internalType": "string",
          "name": "message",
          "type": "string"
        },
        {
          "internalType": "uint256",
          "name": "timestamp",
          "type": "uint256"
        },
        {
          "internalType": "bytes32",
          "name": "txHash",
          "type": "bytes32"
        }
      ],
      "stateMutability": "view",
      "type": "function"
    },
    {
      "inputs": [
        {
          "internalType": "uint256",
          "name": "",
          "type": "uint256"
        }
      ],
      "name": "campaignIds",
      "outputs": [
        {
          "internalType": "uint256",
          "name": "",
          "type": "uint256"
        }
      ],
      "stateMutability": "view",
      "type": "function"
    },
    {
      "inputs": [
        {
          "internalType": "uint256",
          "name": "",
          "type": "uint256"
        }
      ],
      "name": "campaignWithdrawalId",
      "outputs": [
        {
          "internalType": "uint256",
          "name": "",
          "type": "uint256"
        }
      ],
      "stateMutability": "view",
      "type": "function"
    },
    {
      "inputs": [
        {
          "internalType": "uint256",
          "name": "",
          "type": "uint256"
        }
      ],
      "name": "campaigns",
      "outputs": [
        {
          "internalType": "uint256",
          "name": "id",
          "type": "uint256"
        },
        {
          "internalType": "address",
          "name": "owner",
          "type": "address"
        },
        {
          "internalType": "address",
          "name": "beneficiary",
          "type": "address"
        },
        {
          "internalType": "string",
          "name": "title",
          "type": "string"
        },
        {
          "internalType": "string",
          "name": "description",
          "type": "string"
        },
        {
          "internalType": "string",
          "name": "category",
          "type": "string"
        },
        {
          "internalType": "string",
          "name": "imageUrl",
          "type": "string"
        },
        {
          "internalType": "uint256",
          "name": "targetAmount",
          "type": "uint256"
        },
        {
          "internalType": "uint256",
          "name": "raisedAmount",
          "type": "uint256"
        },
        {
          "internalType": "uint256",
          "name": "deadline",
          "type": "uint256"
        },
        {
          "internalType": "bool",
          "name": "isActive",
          "type": "bool"
        },
        {
          "internalType": "bool",
          "name": "isWithdrawn",
          "type": "bool"
        },
        {
          "internalType": "uint256",
          "name": "donorCount",
          "type": "uint256"
        },
        {
          "internalType": "uint256",
          "name": "createdAt",
          "type": "uint256"
        }
      ],
      "stateMutability": "view",
      "type": "function"
    },
    {
      "inputs": [
        {
          "internalType": "string",
          "name": "_title",
          "type": "string"
        },
        {
          "internalType": "string",
          "name": "_description",
          "type": "string"
        },
        {
          "internalType": "string",
          "name": "_category",
          "type": "string"
        },
        {
          "internalType": "string",
          "name": "_imageUrl",
          "type": "string"
        },
        {
          "internalType": "uint256",
          "name": "_targetAmount",
          "type": "uint256"
        },
        {
          "internalType": "uint256",
          "name": "_durationDays",
          "type": "uint256"
        },
        {
          "internalType": "address",
          "name": "_beneficiary",
          "type": "address"
        }
      ],
      "name": "createCampaign",
      "outputs": [
        {
          "internalType": "uint256",
          "name": "",
          "type": "uint256"
        }
      ],
      "stateMutability": "nonpayable",
      "type": "function"
    },
    {
      "inputs": [
        {
          "internalType": "uint256",
          "name": "_campaignId",
          "type": "uint256"
        }
      ],
      "name": "deactivateCampaign",
      "outputs": [],
      "stateMutability": "nonpayable",
      "type": "function"
    },
    {
      "inputs": [
        {
          "internalType": "uint256",
          "name": "_campaignId",
          "type": "uint256"
        },
        {
          "internalType": "string",
          "name": "_donorName",
          "type": "string"
        },
        {
          "internalType": "string",
          "name": "_message",
          "type": "string"
        },
        {
          "internalType": "uint256",
          "name": "_amount",
          "type": "uint256"
        }
      ],
      "name": "donate",
      "outputs": [],
      "stateMutability": "nonpayable",
      "type": "function"
    },
    {
      "inputs": [
        {
          "internalType": "uint256",
          "name": "",
          "type": "uint256"
        }
      ],
      "name": "donations",
      "outputs": [
        {
          "internalType": "uint256",
          "name": "id",
          "type": "uint256"
        },
        {
          "internalType": "uint256",
          "name": "campaignId",
          "type": "uint256"
        },
        {
          "internalType": "address",
          "name": "donor",
          "type": "address"
        },
        {
          "internalType": "string",
          "name": "donorName",
          "type": "string"
        },
        {
          "internalType": "uint256",
          "name": "amount",
          "type": "uint256"
        },
        {
          "internalType": "string",
          "name": "message",
          "type": "string"
        },
        {
          "internalType": "uint256",
          "name": "timestamp",
          "type": "uint256"
        },
        {
          "internalType": "bytes32",
          "name": "txHash",
          "type": "bytes32"
        }
      ],
      "stateMutability": "view",
      "type": "function"
    },
    {
      "inputs": [],
      "name": "getAllCampaigns",
      "outputs": [
        {
          "components": [
            {
              "internalType": "uint256",
              "name": "id",
              "type": "uint256"
            },
            {
              "internalType": "address",
              "name": "owner",
              "type": "address"
            },
            {
              "internalType": "address",
              "name": "beneficiary",
              "type": "address"
            },
            {
              "internalType": "string",
              "name": "title",
              "type": "string"
            },
            {
              "internalType": "string",
              "name": "description",
              "type": "string"
            },
            {
              "internalType": "string",
              "name": "category",
              "type": "string"
            },
            {
              "internalType": "string",
              "name": "imageUrl",
              "type": "string"
            },
            {
              "internalType": "uint256",
              "name": "targetAmount",
              "type": "uint256"
            },
            {
              "internalType": "uint256",
              "name": "raisedAmount",
              "type": "uint256"
            },
            {
              "internalType": "uint256",
              "name": "deadline",
              "type": "uint256"
            },
            {
              "internalType": "bool",
              "name": "isActive",
              "type": "bool"
            },
            {
              "internalType": "bool",
              "name": "isWithdrawn",
              "type": "bool"
            },
            {
              "internalType": "uint256",
              "name": "donorCount",
              "type": "uint256"
            },
            {
              "internalType": "uint256",
              "name": "createdAt",
              "type": "uint256"
            }
          ],
          "internalType": "struct DonationSystem.Campaign[]",
          "name": "",
          "type": "tuple[]"
        }
      ],
      "stateMutability": "view",
      "type": "function"
    },
    {
      "inputs": [],
      "name": "getAllDonations",
      "outputs": [
        {
          "components": [
            {
              "internalType": "uint256",
              "name": "id",
              "type": "uint256"
            },
            {
              "internalType": "uint256",
              "name": "campaignId",
              "type": "uint256"
            },
            {
              "internalType": "address",
              "name": "donor",
              "type": "address"
            },
            {
              "internalType": "string",
              "name": "donorName",
              "type": "string"
            },
            {
              "internalType": "uint256",
              "name": "amount",
              "type": "uint256"
            },
            {
              "internalType": "string",
              "name": "message",
              "type": "string"
            },
            {
              "internalType": "uint256",
              "name": "timestamp",
              "type": "uint256"
            },
            {
              "internalType": "bytes32",
              "name": "txHash",
              "type": "bytes32"
            }
          ],
          "internalType": "struct DonationSystem.Donation[]",
          "name": "",
          "type": "tuple[]"
        }
      ],
      "stateMutability": "view",
      "type": "function"
    },
    {
      "inputs": [],
      "name": "getAllWithdrawals",
      "outputs": [
        {
          "components": [
            {
              "internalType": "uint256",
              "name": "id",
              "type": "uint256"
            },
            {
              "internalType": "uint256",
              "name": "campaignId",
              "type": "uint256"
            },
            {
              "internalType": "string",
              "name": "campaignTitle",
              "type": "string"
            },
            {
              "internalType": "address",
              "name": "recipient",
              "type": "address"
            },
            {
              "internalType": "uint256",
              "name": "amount",
              "type": "uint256"
            },
            {
              "internalType": "string",
              "name": "purpose",
              "type": "string"
            },
            {
              "internalType": "uint256",
              "name": "timestamp",
              "type": "uint256"
            },
            {
              "internalType": "bytes32",
              "name": "txHash",
              "type": "bytes32"
            }
          ],
          "internalType": "struct DonationSystem.Withdrawal[]",
          "name": "",
          "type": "tuple[]"
        }
      ],
      "stateMutability": "view",
      "type": "function"
    },
    {
      "inputs": [
        {
          "internalType": "uint256",
          "name": "_campaignId",
          "type": "uint256"
        }
      ],
      "name": "getCampaign",
      "outputs": [
        {
          "components": [
            {
              "internalType": "uint256",
              "name": "id",
              "type": "uint256"
            },
            {
              "internalType": "address",
              "name": "owner",
              "type": "address"
            },
            {
              "internalType": "address",
              "name": "beneficiary",
              "type": "address"
            },
            {
              "internalType": "string",
              "name": "title",
              "type": "string"
            },
            {
              "internalType": "string",
              "name": "description",
              "type": "string"
            },
            {
              "internalType": "string",
              "name": "category",
              "type": "string"
            },
            {
              "internalType": "string",
              "name": "imageUrl",
              "type": "string"
            },
            {
              "internalType": "uint256",
              "name": "targetAmount",
              "type": "uint256"
            },
            {
              "internalType": "uint256",
              "name": "raisedAmount",
              "type": "uint256"
            },
            {
              "internalType": "uint256",
              "name": "deadline",
              "type": "uint256"
            },
            {
              "internalType": "bool",
              "name": "isActive",
              "type": "bool"
            },
            {
              "internalType": "bool",
              "name": "isWithdrawn",
              "type": "bool"
            },
            {
              "internalType": "uint256",
              "name": "donorCount",
              "type": "uint256"
            },
            {
              "internalType": "uint256",
              "name": "createdAt",
              "type": "uint256"
            }
          ],
          "internalType": "struct DonationSystem.Campaign",
          "name": "",
          "type": "tuple"
        }
      ],
      "stateMutability": "view",
      "type": "function"
    },
    {
      "inputs": [],
      "name": "getCampaignCount",
      "outputs": [
        {
          "internalType": "uint256",
          "name": "",
          "type": "uint256"
        }
      ],
      "stateMutability": "view",
      "type": "function"
    },
    {
      "inputs": [
        {
          "internalType": "uint256",
          "name": "_campaignId",
          "type": "uint256"
        }
      ],
      "name": "getCampaignDonations",
      "outputs": [
        {
          "components": [
            {
              "internalType": "uint256",
              "name": "id",
              "type": "uint256"
            },
            {
              "internalType": "uint256",
              "name": "campaignId",
              "type": "uint256"
            },
            {
              "internalType": "address",
              "name": "donor",
              "type": "address"
            },
            {
              "internalType": "string",
              "name": "donorName",
              "type": "string"
            },
            {
              "internalType": "uint256",
              "name": "amount",
              "type": "uint256"
            },
            {
              "internalType": "string",
              "name": "message",
              "type": "string"
            },
            {
              "internalType": "uint256",
              "name": "timestamp",
              "type": "uint256"
            },
            {
              "internalType": "bytes32",
              "name": "txHash",
              "type": "bytes32"
            }
          ],
          "internalType": "struct DonationSystem.Donation[]",
          "name": "",
          "type": "tuple[]"
        }
      ],
      "stateMutability": "view",
      "type": "function"
    },
    {
      "inputs": [
        {
          "internalType": "uint256",
          "name": "_campaignId",
          "type": "uint256"
        }
      ],
      "name": "getCampaignWithdrawal",
      "outputs": [
        {
          "components": [
            {
              "internalType": "uint256",
              "name": "id",
              "type": "uint256"
            },
            {
              "internalType": "uint256",
              "name": "campaignId",
              "type": "uint256"
            },
            {
              "internalType": "string",
              "name": "campaignTitle",
              "type": "string"
            },
            {
              "internalType": "address",
              "name": "recipient",
              "type": "address"
            },
            {
              "internalType": "uint256",
              "name": "amount",
              "type": "uint256"
            },
            {
              "internalType": "string",
              "name": "purpose",
              "type": "string"
            },
            {
              "internalType": "uint256",
              "name": "timestamp",
              "type": "uint256"
            },
            {
              "internalType": "bytes32",
              "name": "txHash",
              "type": "bytes32"
            }
          ],
          "internalType": "struct DonationSystem.Withdrawal",
          "name": "",
          "type": "tuple"
        }
      ],
      "stateMutability": "view",
      "type": "function"
    },
    {
      "inputs": [],
      "name": "getContractBalance",
      "outputs": [
        {
          "internalType": "uint256",
          "name": "",
          "type": "uint256"
        }
      ],
      "stateMutability": "view",
      "type": "function"
    },
    {
      "inputs": [],
      "name": "getDonationCount",
      "outputs": [
        {
          "internalType": "uint256",
          "name": "",
          "type": "uint256"
        }
      ],
      "stateMutability": "view",
      "type": "function"
    },
    {
      "inputs": [],
      "name": "getPlatformStats",
      "outputs": [
        {
          "internalType": "uint256",
          "name": "totalCampaigns",
          "type": "uint256"
        },
        {
          "internalType": "uint256",
          "name": "totalDonations",
          "type": "uint256"
        },
        {
          "internalType": "uint256",
          "name": "totalFundsRaised",
          "type": "uint256"
        },
        {
          "internalType": "uint256",
          "name": "activeCampaigns",
          "type": "uint256"
        }
      ],
      "stateMutability": "view",
      "type": "function"
    },
    {
      "inputs": [
        {
          "internalType": "address",
          "name": "_user",
          "type": "address"
        }
      ],
      "name": "getUserCampaigns",
      "outputs": [
        {
          "components": [
            {
              "internalType": "uint256",
              "name": "id",
              "type": "uint256"
            },
            {
              "internalType": "address",
              "name": "owner",
              "type": "address"
            },
            {
              "internalType": "address",
              "name": "beneficiary",
              "type": "address"
            },
            {
              "internalType": "string",
              "name": "title",
              "type": "string"
            },
            {
              "internalType": "string",
              "name": "description",
              "type": "string"
            },
            {
              "internalType": "string",
              "name": "category",
              "type": "string"
            },
            {
              "internalType": "string",
              "name": "imageUrl",
              "type": "string"
            },
            {
              "internalType": "uint256",
              "name": "targetAmount",
              "type": "uint256"
            },
            {
              "internalType": "uint256",
              "name": "raisedAmount",
              "type": "uint256"
            },
            {
              "internalType": "uint256",
              "name": "deadline",
              "type": "uint256"
            },
            {
              "internalType": "bool",
              "name": "isActive",
              "type": "bool"
            },
            {
              "internalType": "bool",
              "name": "isWithdrawn",
              "type": "bool"
            },
            {
              "internalType": "uint256",
              "name": "donorCount",
              "type": "uint256"
            },
            {
              "internalType": "uint256",
              "name": "createdAt",
              "type": "uint256"
            }
          ],
          "internalType": "struct DonationSystem.Campaign[]",
          "name": "",
          "type": "tuple[]"
        }
      ],
      "stateMutability": "view",
      "type": "function"
    },
    {
      "inputs": [
        {
          "internalType": "address",
          "name": "_user",
          "type": "address"
        }
      ],
      "name": "getUserDonations",
      "outputs": [
        {
          "components": [
            {
              "internalType": "uint256",
              "name": "id",
              "type": "uint256"
            },
            {
              "internalType": "uint256",
              "name": "campaignId",
              "type": "uint256"
            },
            {
              "internalType": "address",
              "name": "donor",
              "type": "address"
            },
            {
              "internalType": "string",
              "name": "donorName",
              "type": "string"
            },
            {
              "internalType": "uint256",
              "name": "amount",
              "type": "uint256"
            },
            {
              "internalType": "string",
              "name": "message",
              "type": "string"
            },
            {
              "internalType": "uint256",
              "name": "timestamp",
              "type": "uint256"
            },
            {
              "internalType": "bytes32",
              "name": "txHash",
              "type": "bytes32"
            }
          ],
          "internalType": "struct DonationSystem.Donation[]",
          "name": "",
          "type": "tuple[]"
        }
      ],
      "stateMutability": "view",
      "type": "function"
    },
    {
      "inputs": [],
      "name": "getWithdrawalCount",
      "outputs": [
        {
          "internalType": "uint256",
          "name": "",
          "type": "uint256"
        }
      ],
      "stateMutability": "view",
      "type": "function"
    },
    {
      "inputs": [],
      "name": "owner",
      "outputs": [
        {
          "internalType": "address",
          "name": "",
          "type": "address"
        }
      ],
      "stateMutability": "view",
      "type": "function"
    },
    {
      "inputs": [],
      "name": "platformFee",
      "outputs": [
        {
          "internalType": "uint256",
          "name": "",
          "type": "uint256"
        }
      ],
      "stateMutability": "view",
      "type": "function"
    },
    {
      "inputs": [],
      "name": "usdcToken",
      "outputs": [
        {
          "internalType": "contract IERC20",
          "name": "",
          "type": "address"
        }
      ],
      "stateMutability": "view",
      "type": "function"
    },
    {
      "inputs": [
        {
          "internalType": "address",
          "name": "",
          "type": "address"
        },
        {
          "internalType": "uint256",
          "name": "",
          "type": "uint256"
        }
      ],
      "name": "userCampaignIds",
      "outputs": [
        {
          "internalType": "uint256",
          "name": "",
          "type": "uint256"
        }
      ],
      "stateMutability": "view",
      "type": "function"
    },
    {
      "inputs": [
        {
          "internalType": "address",
          "name": "",
          "type": "address"
        },
        {
          "internalType": "uint256",
          "name": "",
          "type": "uint256"
        }
      ],
      "name": "userDonationIds",
      "outputs": [
        {
          "internalType": "uint256",
          "name": "",
          "type": "uint256"
        }
      ],
      "stateMutability": "view",
      "type": "function"
    },
    {
      "inputs": [
        {
          "internalType": "address",
          "name": "",
          "type": "address"
        }
      ],
      "name": "verifiedCreators",
      "outputs": [
        {
          "internalType": "bool",
          "name": "",
          "type": "bool"
        }
      ],
      "stateMutability": "view",
      "type": "function"
    },
    {
      "inputs": [
        {
          "internalType": "address",
          "name": "_creator",
          "type": "address"
        },
        {
          "internalType": "bool",
          "name": "_status",
          "type": "bool"
        }
      ],
      "name": "verifyCreator",
      "outputs": [],
      "stateMutability": "nonpayable",
      "type": "function"
    },
    {
      "inputs": [
        {
          "internalType": "uint256",
          "name": "_campaignId",
          "type": "uint256"
        },
        {
          "internalType": "string",
          "name": "_withdrawalPurpose",
          "type": "string"
        }
      ],
      "name": "withdrawFunds",
      "outputs": [],
      "stateMutability": "nonpayable",
      "type": "function"
    },
    {
      "inputs": [
        {
          "internalType": "uint256",
          "name": "",
          "type": "uint256"
        }
      ],
      "name": "withdrawalIds",
      "outputs": [
        {
          "internalType": "uint256",
          "name": "",
          "type": "uint256"
        }
      ],
      "stateMutability": "view",
      "type": "function"
    },
    {
      "inputs": [
        {
          "internalType": "uint256",
          "name": "",
          "type": "uint256"
        }
      ],
      "name": "withdrawals",
      "outputs": [
        {
          "internalType": "uint256",
          "name": "id",
          "type": "uint256"
        },
        {
          "internalType": "uint256",
          "name": "campaignId",
          "type": "uint256"
        },
        {
          "internalType": "string",
          "name": "campaignTitle",
          "type": "string"
        },
        {
          "internalType": "address",
          "name": "recipient",
          "type": "address"
        },
        {
          "internalType": "uint256",
          "name": "amount",
          "type": "uint256"
        },
        {
          "internalType": "string",
          "name": "purpose",
          "type": "string"
        },
        {
          "internalType": "uint256",
          "name": "timestamp",
          "type": "uint256"
        },
        {
          "internalType": "bytes32",
          "name": "txHash",
          "type": "bytes32"
        }
      ],
      "stateMutability": "view",
      "type": "function"
    }
  ],
  "bytecode": "0x608060405260006002553480156200001657600080fd5b5060405162003e2538038062003e2583398101604081905262000039916200006d565b60008054336001600160a01b031991821617909155600180549091166001600160a01b03929092169190911790556200009f565b6000602082840312156200008057600080fd5b81516001600160a01b03811681146200009857600080fd5b9392505050565b613d7680620000af6000396000f3fe608060405234801561001057600080fd5b50600436106101d05760003560e01c8063732435b211610103578063a8f649e11161009c578063d12e3b4c1161006e578063d12e3b4c1461046e578063e55a62a81461048e578063f8626af814610496578063ffe4560d146104a957005b8063a8f649e1146103f5578063add150bc14610408578063b369359d1461043b578063b9ffdbbd1461044e57005b80638da5cb5b116100d55780638da5cb5b146103a9578063a1e5084c146103bc578063a2667447146103cf578063a7c0302a146103e257005b8063732435b214610366578063781952a8146103795780637eca30fe1461038157806386cdf6041461039457005b806339924268116101755780635cc07076116101475780635cc07076146103085780636caa92181461032f5780636f9fb98a1461033757806370879ff71461033f57005b806339924268146102af5780633bb7b248146102c25780635167642f146102d55780635598f8cc146102e857005b8063141961bc116101ae578063141961bc1461024357806326232a2e146102705780632fb011fa1461028757806338a59a071461029a57005b806302cafe75146101d257806311eac855146101f0578063136d88831461021b575b005b6101da6104bc565b6040516101e7919061334a565b60405180910390f35b600154610203906001600160a01b031681565b6040516001600160a01b0390911681526020016101e7565b6102236106fa565b6040805194855260208501939093529183015260608201526080016101e7565b6102566102513660046133ae565b610795565b6040516101e79e9d9c9b9a999897969594939291906133c7565b61027960025481565b6040519081526020016101e7565b6102796102953660046133ae565b610a31565b6102a2610a52565b6040516101e79190613487565b6102796102bd366004613578565b610c7e565b6101d06102d03660046135b3565b610caf565b6102a26102e33660046133ae565b610d0d565b6102fb6102f63660046133ae565b610f13565b6040516101e791906136f4565b61031b6103163660046133ae565b611238565b6040516101e798979695949392919061370e565b600354610279565b610279611397565b61035261034d366004613770565b611409565b6040516101e7989796959493929190613792565b6102a26103743660046137de565b6114f5565b600554610279565b6101d061038f3660046133ae565b6117a9565b61039c61185b565b6040516101e791906137f9565b600054610203906001600160a01b031681565b61039c6103ca3660046137de565b611bf3565b6102796103dd366004613578565b611fe9565b6101d06103f03660046138f3565b612005565b610279610403366004613968565b61256e565b61042b6104163660046137de565b60066020526000908152604090205460ff1681565b60405190151581526020016101e7565b6102796104493660046133ae565b6129d5565b61046161045c3660046133ae565b6129e5565b6040516101e79190613a39565b61027961047c3660046133ae565b600d6020526000908152604090205481565b600454610279565b6103526104a43660046133ae565b612c1c565b6101d06104b7366004613a4c565b612c56565b600f5460609060009067ffffffffffffffff8111156104dd576104dd613850565b60405190808252806020026020018201604052801561051657816020015b61050361315c565b8152602001906001900390816104fb5790505b50905060005b600f548110156106f457600c6000600f838154811061053d5761053d613a93565b9060005260206000200154815260200190815260200160002060405180610100016040529081600082015481526020016001820154815260200160028201805461058690613aa9565b80601f01602080910402602001604051908101604052809291908181526020018280546105b290613aa9565b80156105ff5780601f106105d4576101008083540402835291602001916105ff565b820191906000526020600020905b8154815290600101906020018083116105e257829003601f168201915b505050918352505060038201546001600160a01b031660208201526004820154604082015260058201805460609092019161063990613aa9565b80601f016020809104026020016040519081016040528092919081815260200182805461066590613aa9565b80156106b25780601f10610687576101008083540402835291602001916106b2565b820191906000526020600020905b81548152906001019060200180831161069557829003601f168201915b50505050508152602001600682015481526020016007820154815250508282815181106106e1576106e1613a93565b602090810291909101015260010161051c565b50919050565b600354600454600080808060015b60035481116107875760008181526007602052604090206008015461072d9084613af3565b6000828152600760205260409020600a015490935060ff16801561076257506000818152600760205260409020600901544211155b15610775578161077181613b0c565b9250505b8061077f81613b0c565b915050610708565b509495939490939092509050565b600760205260009081526040902080546001820154600283015460038401805493946001600160a01b039384169493909216926107d190613aa9565b80601f01602080910402602001604051908101604052809291908181526020018280546107fd90613aa9565b801561084a5780601f1061081f5761010080835404028352916020019161084a565b820191906000526020600020905b81548152906001019060200180831161082d57829003601f168201915b50505050509080600401805461085f90613aa9565b80601f016020809104026020016040519081016040528092919081815260200182805461088b90613aa9565b80156108d85780601f106108ad576101008083540402835291602001916108d8565b820191906000526020600020905b8154815290600101906020018083116108bb57829003601f168201915b5050505050908060050180546108ed90613aa9565b80601f016020809104026020016040519081016040528092919081815260200182805461091990613aa9565b80156109665780601f1061093b57610100808354040283529160200191610966565b820191906000526020600020905b81548152906001019060200180831161094957829003601f168201915b50505050509080600601805461097b90613aa9565b80601f01602080910402602001604051908101604052809291908181526020018280546109a790613aa9565b80156109f45780601f106109c9576101008083540402835291602001916109f4565b820191906000526020600020905b8154815290600101906020018083116109d757829003601f168201915b505050600784015460088501546009860154600a870154600b880154600c909801549697939692955090935060ff8082169361010090920416918e565b600f8181548110610a4157600080fd5b600091825260209091200154905081565b6060600060045467ffffffffffffffff811115610a7157610a71613850565b604051908082528060200260200182016040528015610aaa57816020015b610a976131ad565b815260200190600190039081610a8f5790505b50905060015b60045481116106f4576000818152600960209081526040918290208251610100810184528154815260018201549281019290925260028101546001600160a01b031692820192909252600382018054919291606084019190610b1190613aa9565b80601f0160208091040260200160405190810160405280929190818152602001828054610b3d90613aa9565b8015610b8a5780601f10610b5f57610100808354040283529160200191610b8a565b820191906000526020600020905b815481529060010190602001808311610b6d57829003601f168201915b5050505050815260200160048201548152602001600582018054610bad90613aa9565b80601f0160208091040260200160405190810160405280929190818152602001828054610bd990613aa9565b8015610c265780601f10610bfb57610100808354040283529160200191610c26565b820191906000526020600020905b815481529060010190602001808311610c0957829003601f168201915b50505091835250506006820154602082015260079091015460409091015282610c50600184613b25565b81518110610c6057610c60613a93565b60200260200101819052508080610c7690613b0c565b915050610ab0565b600b6020528160005260406000208181548110610c9a57600080fd5b90600052602060002001600091509150505481565b6000546001600160a01b03163314610ce25760405162461bcd60e51b8152600401610cd990613b38565b60405180910390fd5b6001600160a01b03919091166000908152600660205260409020805460ff1916911515919091179055565b606081600081118015610d2257506003548111155b610d3e5760405162461bcd60e51b8152600401610cd990613b86565b600083815260086020908152604080832080548251818502810185019093528083529193909284015b82821015610f075760008481526020908190206040805161010081018252600886029092018054835260018101549383019390935260028301546001600160a01b031690820152600382018054919291606084019190610dc690613aa9565b80601f0160208091040260200160405190810160405280929190818152602001828054610df290613aa9565b8015610e3f5780601f10610e1457610100808354040283529160200191610e3f565b820191906000526020600020905b815481529060010190602001808311610e2257829003601f168201915b5050505050815260200160048201548152602001600582018054610e6290613aa9565b80601f0160208091040260200160405190810160405280929190818152602001828054610e8e90613aa9565b8015610edb5780601f10610eb057610100808354040283529160200191610edb565b820191906000526020600020905b815481529060010190602001808311610ebe57829003601f168201915b505050505081526020016006820154815260200160078201548152505081526020019060010190610d67565b50505050915050919050565b610f1b6131fe565b81600081118015610f2e57506003548111155b610f4a5760405162461bcd60e51b8152600401610cd990613b86565b60008381526007602090815260409182902082516101c0810184528154815260018201546001600160a01b0390811693820193909352600282015490921692820192909252600382018054919291606084019190610fa790613aa9565b80601f0160208091040260200160405190810160405280929190818152602001828054610fd390613aa9565b80156110205780601f10610ff557610100808354040283529160200191611020565b820191906000526020600020905b81548152906001019060200180831161100357829003601f168201915b5050505050815260200160048201805461103990613aa9565b80601f016020809104026020016040519081016040528092919081815260200182805461106590613aa9565b80156110b25780601f10611087576101008083540402835291602001916110b2565b820191906000526020600020905b81548152906001019060200180831161109557829003601f168201915b505050505081526020016005820180546110cb90613aa9565b80601f01602080910402602001604051908101604052809291908181526020018280546110f790613aa9565b80156111445780601f1061111957610100808354040283529160200191611144565b820191906000526020600020905b81548152906001019060200180831161112757829003601f168201915b5050505050815260200160068201805461115d90613aa9565b80601f016020809104026020016040519081016040528092919081815260200182805461118990613aa9565b80156111d65780601f106111ab576101008083540402835291602001916111d6565b820191906000526020600020905b8154815290600101906020018083116111b957829003601f168201915b5050509183525050600782015460208201526008820154604082015260098201546060820152600a82015460ff8082161515608084015261010090910416151560a0820152600b82015460c0820152600c9091015460e0909101529392505050565b600c602052600090815260409020805460018201546002830180549293919261126090613aa9565b80601f016020809104026020016040519081016040528092919081815260200182805461128c90613aa9565b80156112d95780601f106112ae576101008083540402835291602001916112d9565b820191906000526020600020905b8154815290600101906020018083116112bc57829003601f168201915b505050506003830154600484015460058501805494956001600160a01b03909316949193509061130890613aa9565b80601f016020809104026020016040519081016040528092919081815260200182805461133490613aa9565b80156113815780601f1061135657610100808354040283529160200191611381565b820191906000526020600020905b81548152906001019060200180831161136457829003601f168201915b5050505050908060060154908060070154905088565b6001546040516370a0823160e01b81523060048201526000916001600160a01b0316906370a0823190602401602060405180830381865afa1580156113e0573d6000803e3d6000fd5b505050506040513d601f19601f820116820180604052508101906114049190613bbd565b905090565b6008602052816000526040600020818154811061142557600080fd5b600091825260209091206008909102018054600182015460028301546003840180549396509194506001600160a01b0316929161146190613aa9565b80601f016020809104026020016040519081016040528092919081815260200182805461148d90613aa9565b80156114da5780601f106114af576101008083540402835291602001916114da565b820191906000526020600020905b8154815290600101906020018083116114bd57829003601f168201915b50505050509080600401549080600501805461130890613aa9565b6001600160a01b0381166000908152600a6020908152604080832080548251818502810185019093528083526060949383018282801561155457602002820191906000526020600020905b815481526020019060010190808311611540575b505050505090506000815167ffffffffffffffff81111561157757611577613850565b6040519080825280602002602001820160405280156115b057816020015b61159d6131ad565b8152602001906001900390816115955790505b50905060005b82518110156117a157600960008483815181106115d5576115d5613a93565b602002602001015181526020019081526020016000206040518061010001604052908160008201548152602001600182015481526020016002820160009054906101000a90046001600160a01b03166001600160a01b03166001600160a01b0316815260200160038201805461164a90613aa9565b80601f016020809104026020016040519081016040528092919081815260200182805461167690613aa9565b80156116c35780601f10611698576101008083540402835291602001916116c3565b820191906000526020600020905b8154815290600101906020018083116116a657829003601f168201915b50505050508152602001600482015481526020016005820180546116e690613aa9565b80601f016020809104026020016040519081016040528092919081815260200182805461171290613aa9565b801561175f5780601f106117345761010080835404028352916020019161175f565b820191906000526020600020905b81548152906001019060200180831161174257829003601f168201915b505050505081526020016006820154815260200160078201548152505082828151811061178e5761178e613a93565b60209081029190910101526001016115b6565b509392505050565b6000546001600160a01b031633146117d35760405162461bcd60e51b8152600401610cd990613b38565b806000811180156117e657506003548111155b6118025760405162461bcd60e51b8152600401610cd990613b86565b60008281526007602052604090819020600a01805460ff191690555182907f6ce91c3f916a17a6dac5912acc0d627f6cc59593f7047bc09a11d4a1fde292ad9061184f9042815260200190565b60405180910390a25050565b600e5460609060009067ffffffffffffffff81111561187c5761187c613850565b6040519080825280602002602001820160405280156118b557816020015b6118a26131fe565b81526020019060019003908161189a5790505b50905060005b600e548110156106f45760076000600e83815481106118dc576118dc613a93565b60009182526020808320909101548352828101939093526040918201902081516101c0810183528154815260018201546001600160a01b039081169482019490945260028201549093169183019190915260038101805460608401919061194290613aa9565b80601f016020809104026020016040519081016040528092919081815260200182805461196e90613aa9565b80156119bb5780601f10611990576101008083540402835291602001916119bb565b820191906000526020600020905b81548152906001019060200180831161199e57829003601f168201915b505050505081526020016004820180546119d490613aa9565b80601f0160208091040260200160405190810160405280929190818152602001828054611a0090613aa9565b8015611a4d5780601f10611a2257610100808354040283529160200191611a4d565b820191906000526020600020905b815481529060010190602001808311611a3057829003601f168201915b50505050508152602001600582018054611a6690613aa9565b80601f0160208091040260200160405190810160405280929190818152602001828054611a9290613aa9565b8015611adf5780601f10611ab457610100808354040283529160200191611adf565b820191906000526020600020905b815481529060010190602001808311611ac257829003601f168201915b50505050508152602001600682018054611af890613aa9565b80601f0160208091040260200160405190810160405280929190818152602001828054611b2490613aa9565b8015611b715780601f10611b4657610100808354040283529160200191611b71565b820191906000526020600020905b815481529060010190602001808311611b5457829003601f168201915b5050509183525050600782015460208201526008820154604082015260098201546060820152600a82015460ff8082161515608084015261010090910416151560a0820152600b82015460c0820152600c9091015460e0909101528251839083908110611be057611be0613a93565b60209081029190910101526001016118bb565b6001600160a01b0381166000908152600b60209081526040808320805482518185028101850190935280835260609493830182828015611c5257602002820191906000526020600020905b815481526020019060010190808311611c3e575b505050505090506000815167ffffffffffffffff811115611c7557611c75613850565b604051908082528060200260200182016040528015611cae57816020015b611c9b6131fe565b815260200190600190039081611c935790505b50905060005b82518110156117a15760076000848381518110611cd357611cd3613a93565b602090810291909101810151825281810192909252604090810160002081516101c0810183528154815260018201546001600160a01b0390811694820194909452600282015490931691830191909152600381018054606084019190611d3890613aa9565b80601f0160208091040260200160405190810160405280929190818152602001828054611d6490613aa9565b8015611db15780601f10611d8657610100808354040283529160200191611db1565b820191906000526020600020905b815481529060010190602001808311611d9457829003601f168201915b50505050508152602001600482018054611dca90613aa9565b80601f0160208091040260200160405190810160405280929190818152602001828054611df690613aa9565b8015611e435780601f10611e1857610100808354040283529160200191611e43565b820191906000526020600020905b815481529060010190602001808311611e2657829003601f168201915b50505050508152602001600582018054611e5c90613aa9565b80601f0160208091040260200160405190810160405280929190818152602001828054611e8890613aa9565b8015611ed55780601f10611eaa57610100808354040283529160200191611ed5565b820191906000526020600020905b815481529060010190602001808311611eb857829003601f168201915b50505050508152602001600682018054611eee90613aa9565b80601f0160208091040260200160405190810160405280929190818152602001828054611f1a90613aa9565b8015611f675780601f10611f3c57610100808354040283529160200191611f67565b820191906000526020600020905b815481529060010190602001808311611f4a57829003601f168201915b5050509183525050600782015460208201526008820154604082015260098201546060820152600a82015460ff8082161515608084015261010090910416151560a0820152600b82015460c0820152600c9091015460e0909101528251839083908110611fd657611fd6613a93565b6020908102919091010152600101611cb4565b600a6020528160005260406000208181548110610c9a57600080fd5b8360008111801561201857506003548111155b6120345760405162461bcd60e51b8152600401610cd990613b86565b6000858152600760205260409020600a0154859060ff1661208e5760405162461bcd60e51b815260206004820152601460248201527325b0b6b830b73cb2903a34b230b59030b5ba34b360611b6044820152606401610cd9565b6000818152600760205260409020600901544211156120ef5760405162461bcd60e51b815260206004820152601760248201527f4b616d70616e79652074656c616820626572616b6869720000000000000000006044820152606401610cd9565b6000831161213f5760405162461bcd60e51b815260206004820181905260248201527f4a756d6c616820646f6e617369206861727573206c65626968206461726920306044820152606401610cd9565b600154604051636eb1769f60e11b815233600482015230602482015284916001600160a01b03169063dd62ed3e90604401602060405180830381865afa15801561218d573d6000803e3d6000fd5b505050506040513d601f19601f820116820180604052508101906121b19190613bbd565b10156122255760405162461bcd60e51b815260206004820152603c60248201527f416c6c6f77616e6365205553444320746964616b2063756b75702e2053696c6160448201527f6b616e20617070726f7665207465726c6562696820646168756c752e000000006064820152608401610cd9565b6001546040516323b872dd60e01b8152336004820152306024820152604481018590526000916001600160a01b0316906323b872dd906064016020604051808303816000875af115801561227d573d6000803e3d6000fd5b505050506040513d601f19601f820116820180604052508101906122a19190613bd6565b9050806122e65760405162461bcd60e51b8152602060048201526013602482015272151c985b9cd9995c881554d110c819d859d85b606a1b6044820152606401610cd9565b600480549060006122f683613b0c565b9091555050600454600088815260076020526040812060088101805491928892612321908490613af3565b9091555050600b8101805490600061233883613b0c565b919050555060006040518061010001604052808481526020018b8152602001336001600160a01b0316815260200160008b51116123935760405180604001604052806006815260200165416e6f6e696d60d01b815250612395565b8a5b81526020018881526020018981526020014281526020016001436123b99190613b25565b40905260008481526009602090815260409182902083518155908301516001820155908201516002820180546001600160a01b0319166001600160a01b039092169190911790556060820151919250829160038201906124199082613c44565b506080820151600482015560a082015160058201906124389082613c44565b5060c0820151600682015560e09091015160079091015560008a81526008602081815260408084208054600180820183559186529483902086519590940290930193845590840151918301919091558201516002820180546001600160a01b0319166001600160a01b03909216919091179055606082015182919060038201906124c29082613c44565b506080820151600482015560a082015160058201906124e19082613c44565b5060c0820151600682015560e090910151600790910155336000818152600a6020908152604080832080546001810182559084529190922001859055518b9085907ff72c0e09c7877ae5a9c8ba71338c1f55d09bac17f3630ec28802676b1566eb8b9061255a908c904290918252602082015260400190565b60405180910390a450505050505050505050565b3360009081526006602052604081205460ff166125f5576040805162461bcd60e51b81526020600482015260248101919091527f48616e79612070656d62756174206b616d70616e79652074657276657269666960448201527f6b6173692079616e67206461706174206d656d62756174206b616d70616e79656064820152608401610cd9565b60008851116126465760405162461bcd60e51b815260206004820152601860248201527f4a7564756c20746964616b20626f6c6568206b6f736f6e6700000000000000006044820152606401610cd9565b600084116126965760405162461bcd60e51b815260206004820181905260248201527f54617267657420646f6e617369206861727573206c65626968206461726920306044820152606401610cd9565b6000831180156126a8575061016d8311155b6126f45760405162461bcd60e51b815260206004820152601e60248201527f44757261736920686172757320616e7461726120312d333635206861726900006044820152606401610cd9565b6001600160a01b0382166127565760405162461bcd60e51b815260206004820152602360248201527f416c616d61742070656e6572696d61206d616e6661617420746964616b2076616044820152621b1a5960ea1b6064820152608401610cd9565b6003805490600061276683613b0c565b9091555050600354600061277d8562015180613d04565b6127879042613af3565b9050604051806101c00160405280838152602001336001600160a01b03168152602001856001600160a01b031681526020018b81526020018a8152602001898152602001888152602001878152602001600081526020018281526020016001151581526020016000151581526020016000815260200142815250600760008481526020019081526020016000206000820151816000015560208201518160010160006101000a8154816001600160a01b0302191690836001600160a01b0316021790555060408201518160020160006101000a8154816001600160a01b0302191690836001600160a01b03160217905550606082015181600301908161288d9190613c44565b50608082015160048201906128a29082613c44565b5060a082015160058201906128b79082613c44565b5060c082015160068201906128cc9082613c44565b5060e082015160078201556101008083015160088301556101208301516009830155610140830151600a8301805461016086015161ffff1990911692151561ff00191692909217911515909202179055610180820151600b808301919091556101a090920151600c90910155600e805460018181019092557fbb7b4a454dc3493923482f07822329ed19e8244eff582cc204f8554c3620c3fd0184905533600081815260209384526040808220805494850181558252939020909101849055905183907fdc26653af5b99b2da33e2ad69ee6600d9aeccc82b034501db4338309615ca238906129c0908e908b908790613d1b565b60405180910390a35098975050505050505050565b600e8181548110610a4157600080fd5b6129ed61315c565b81600081118015612a0057506003548111155b612a1c5760405162461bcd60e51b8152600401610cd990613b86565b6000838152600d602052604090205480612a875760405162461bcd60e51b815260206004820152602660248201527f42656c756d206164612070656e6172696b616e20756e74756b206b616d70616e604482015265796520696e6960d01b6064820152608401610cd9565b600c6000828152602001908152602001600020604051806101000160405290816000820154815260200160018201548152602001600282018054612aca90613aa9565b80601f0160208091040260200160405190810160405280929190818152602001828054612af690613aa9565b8015612b435780601f10612b1857610100808354040283529160200191612b43565b820191906000526020600020905b815481529060010190602001808311612b2657829003601f168201915b505050918352505060038201546001600160a01b0316602082015260048201546040820152600582018054606090920191612b7d90613aa9565b80601f0160208091040260200160405190810160405280929190818152602001828054612ba990613aa9565b8015612bf65780601f10612bcb57610100808354040283529160200191612bf6565b820191906000526020600020905b815481529060010190602001808311612bd957829003601f168201915b505050505081526020016006820154815260200160078201548152505092505050919050565b6009602052600090815260409020805460018201546002830154600384018054939492936001600160a01b03909216929161146190613aa9565b81600081118015612c6957506003548111155b612c855760405162461bcd60e51b8152600401610cd990613b86565b600083815260076020526040902060018101546001600160a01b03163314612ce85760405162461bcd60e51b815260206004820152601660248201527548616e79612070656d696c696b206b616d70616e796560501b6044820152606401610cd9565b600a810154610100900460ff1615612d375760405162461bcd60e51b815260206004820152601260248201527144616e61207375646168206469746172696b60701b6044820152606401610cd9565b6000816008015411612d8b5760405162461bcd60e51b815260206004820152601c60248201527f546964616b206164612064616e6120756e74756b206469746172696b000000006044820152606401610cd9565b8060090154421180612da557508060070154816008015410155b612e0b5760405162461bcd60e51b815260206004820152603160248201527f4b616d70616e79652062656c756d2073656c657361692061746175207461726760448201527065742062656c756d20746572636170616960781b6064820152608401610cd9565b6000835111612e5c5760405162461bcd60e51b815260206004820152601c60248201527f54756a75616e2070656e6172696b616e206861727573206469697369000000006044820152606401610cd9565b6008810154600a8201805461ffff191661010017905560058054906000612e8283613b0c565b919050555060006005549050604051806101000160405280828152602001878152602001846003018054612eb590613aa9565b80601f0160208091040260200160405190810160405280929190818152602001828054612ee190613aa9565b8015612f2e5780601f10612f0357610100808354040283529160200191612f2e565b820191906000526020600020905b815481529060010190602001808311612f1157829003601f168201915b505050918352505060028501546001600160a01b03166020820152604081018490526060810187905242608082015260a001612f6b600143613b25565b4090526000828152600c602090815260409182902083518155908301516001820155908201516002820190612fa09082613c44565b5060608201516003820180546001600160a01b0319166001600160a01b039092169190911790556080820151600482015560a08201516005820190612fe59082613c44565b5060c0820151600682015560e090910151600790910155600f805460018082019092557f8d1108e10bcb7c27dddfc02ed9d693a074039d026cf4ea4240b40f7d581ac802018290556000878152600d602052604080822084905591546002860154925163a9059cbb60e01b81526001600160a01b039384166004820152602481018690529192169063a9059cbb906044016020604051808303816000875af1158015613095573d6000803e3d6000fd5b505050506040513d601f19601f820116820180604052508101906130b99190613bd6565b9050806131085760405162461bcd60e51b815260206004820152601f60248201527f5472616e736665722055534443206b652070656e6572696d6120676167616c006044820152606401610cd9565b6002840154604080518581524260208201526001600160a01b039092169189917f3dbb1a26f29aef1264c12ca1285deb60cca5666d8b17100c7ea1602c0a4014f6910160405180910390a350505050505050565b60405180610100016040528060008152602001600081526020016060815260200160006001600160a01b03168152602001600081526020016060815260200160008152602001600080191681525090565b604051806101000160405280600081526020016000815260200160006001600160a01b0316815260200160608152602001600081526020016060815260200160008152602001600080191681525090565b604051806101c001604052806000815260200160006001600160a01b0316815260200160006001600160a01b031681526020016060815260200160608152602001606081526020016060815260200160008152602001600081526020016000815260200160001515815260200160001515815260200160008152602001600081525090565b6000815180845260005b818110156132a95760208185018101518683018201520161328d565b506000602082860101526020601f19601f83011685010191505092915050565b6000610100825184526020830151602085015260408301518160408601526132f382860182613283565b91505060018060a01b0360608401511660608501526080830151608085015260a083015184820360a08601526133298282613283565b91505060c083015160c085015260e083015160e08501528091505092915050565b600060208083016020845280855180835260408601915060408160051b87010192506020870160005b828110156133a157603f1988860301845261338f8583516132c9565b94509285019290850190600101613373565b5092979650505050505050565b6000602082840312156133c057600080fd5b5035919050565b8e81526001600160a01b038e1660208201526001600160a01b038d1660408201526101c0606082015260006134006101c083018e613283565b8281036080840152613412818e613283565b905082810360a0840152613426818d613283565b905082810360c084015261343a818c613283565b9150508860e0830152876101008301528661012083015261346061014083018715159052565b8415156101608301526101808201939093526101a001529c9b505050505050505050505050565b600060208083018184528085518083526040925060408601915060408160051b87010184880160005b8381101561354e57888303603f190185528151805184528781015188850152868101516001600160a01b03168785015260608082015161010082870181905291906134fd83880182613283565b92505050608080830151818701525060a080830151868303828801526135238382613283565b60c0858101519089015260e094850151949097019390935250505093860193908601906001016134b0565b509098975050505050505050565b80356001600160a01b038116811461357357600080fd5b919050565b6000806040838503121561358b57600080fd5b6135948361355c565b946020939093013593505050565b80151581146135b057600080fd5b50565b600080604083850312156135c657600080fd5b6135cf8361355c565b915060208301356135df816135a2565b809150509250929050565b60006101c082518452602083015161360d60208601826001600160a01b03169052565b50604083015161362860408601826001600160a01b03169052565b50606083015181606086015261364082860182613283565b9150506080830151848203608086015261365a8282613283565b91505060a083015184820360a08601526136748282613283565b91505060c083015184820360c086015261368e8282613283565b91505060e083015160e0850152610100808401518186015250610120808401518186015250610140808401516136c78287018215159052565b50506101608381015115159085015261018080840151908501526101a09283015192909301919091525090565b60208152600061370760208301846135ea565b9392505050565b60006101008a835289602084015280604084015261372e8184018a613283565b6001600160a01b03891660608501526080840188905283810360a085015290506137588187613283565b60c0840195909552505060e001529695505050505050565b6000806040838503121561378357600080fd5b50508035926020909101359150565b888152602081018890526001600160a01b0387166040820152610100606082018190526000906137c483820189613283565b905086608084015282810360a08401526137588187613283565b6000602082840312156137f057600080fd5b6137078261355c565b600060208083016020845280855180835260408601915060408160051b87010192506020870160005b828110156133a157603f1988860301845261383e8583516135ea565b94509285019290850190600101613822565b634e487b7160e01b600052604160045260246000fd5b600082601f83011261387757600080fd5b813567ffffffffffffffff8082111561389257613892613850565b604051601f8301601f19908116603f011681019082821181831017156138ba576138ba613850565b816040528381528660208588010111156138d357600080fd5b836020870160208301376000602085830101528094505050505092915050565b6000806000806080858703121561390957600080fd5b84359350602085013567ffffffffffffffff8082111561392857600080fd5b61393488838901613866565b9450604087013591508082111561394a57600080fd5b5061395787828801613866565b949793965093946060013593505050565b600080600080600080600060e0888a03121561398357600080fd5b873567ffffffffffffffff8082111561399b57600080fd5b6139a78b838c01613866565b985060208a01359150808211156139bd57600080fd5b6139c98b838c01613866565b975060408a01359150808211156139df57600080fd5b6139eb8b838c01613866565b965060608a0135915080821115613a0157600080fd5b50613a0e8a828b01613866565b9450506080880135925060a08801359150613a2b60c0890161355c565b905092959891949750929550565b60208152600061370760208301846132c9565b60008060408385031215613a5f57600080fd5b82359150602083013567ffffffffffffffff811115613a7d57600080fd5b613a8985828601613866565b9150509250929050565b634e487b7160e01b600052603260045260246000fd5b600181811c90821680613abd57607f821691505b6020821081036106f457634e487b7160e01b600052602260045260246000fd5b634e487b7160e01b600052601160045260246000fd5b80820180821115613b0657613b06613add565b92915050565b600060018201613b1e57613b1e613add565b5060010190565b81810381811115613b0657613b06613add565b6020808252602e908201527f48616e79612070656d696c696b206b6f6e7472616b2079616e6720646170617460408201526d206d656c616b756b616e20696e6960901b606082015260800190565b60208082526018908201527f4b616d70616e796520746964616b20646974656d756b616e0000000000000000604082015260600190565b600060208284031215613bcf57600080fd5b5051919050565b600060208284031215613be857600080fd5b8151613707816135a2565b601f821115613c3f576000816000526020600020601f850160051c81016020861015613c1c5750805b601f850160051c820191505b81811015613c3b57828155600101613c28565b5050505b505050565b815167ffffffffffffffff811115613c5e57613c5e613850565b613c7281613c6c8454613aa9565b84613bf3565b602080601f831160018114613ca75760008415613c8f5750858301515b600019600386901b1c1916600185901b178555613c3b565b600085815260208120601f198616915b82811015613cd657888601518255948401946001909101908401613cb7565b5085821015613cf45787850151600019600388901b60f8161c191681555b5050505050600190811b01905550565b8082028115828204841417613b0657613b06613add565b606081526000613d2e6060830186613283565b6020830194909452506040015291905056fea2646970667358221220071edf318be13cc36bfab9e2f22403b45989184f532ec1c608c5e3ffb74dc8e164736f6c63430008180033",
  "linkReferences": {},
  "deployedLinkReferences": {}
}