{
  "_format": "hh-sol-artifact-1",
  "contractName": "DonationSystem",
  "sourceName": "contracts/DonationSystem.sol",
  "abi": [
    {
      "inputs": [],
      "stateMutability": "nonpayable",
      "type": "constructor"
    },
    {
      "anonymous": false,
      "inputs": [
        {
          "indexed": true,
          "internalType": "uint256",
          "name": "campaignId",
          "type": "uint256"
        },
        {
          "indexed": true,
          "internalType": "address",
          "name": "owner",
          "type": "address"
        },
        {
          "indexed": false,
          "internalType": "string",
          "name": "title",
          "type": "string"
        },
        {
          "indexed": false,
          "internalType": "uint256",
          "name": "targetAmount",
          "type": "uint256"
        },
        {
          "indexed": false,
          "internalType": "uint256",
          "name": "deadline",
          "type": "uint256"
        }
      ],
      "name": "CampaignCreated",
      "type": "event"
    },
    {
      "anonymous": false,
      "inputs": [
        {
          "indexed": true,
          "internalType": "uint256",
          "name": "campaignId",
          "type": "uint256"
        },
        {
          "indexed": false,
          "internalType": "uint256",
          "name": "timestamp",
          "type": "uint256"
        }
      ],
      "name": "CampaignDeactivated",
      "type": "event"
    },
    {
      "anonymous": false,
      "inputs": [
        {
          "indexed": true,
          "internalType": "uint256",
          "name": "donationId",
          "type": "uint256"
        },
        {
          "indexed": true,
          "internalType": "uint256",
          "name": "campaignId",
          "type": "uint256"
        },
        {
          "indexed": true,
          "internalType": "address",
          "name": "donor",
          "type": "address"
        },
        {
          "indexed": false,
          "internalType": "uint256",
          "name": "amount",
          "type": "uint256"
        },
        {
          "indexed": false,
          "internalType": "uint256",
          "name": "timestamp",
          "type": "uint256"
        }
      ],
      "name": "DonationMade",
      "type": "event"
    },
    {
      "anonymous": false,
      "inputs": [
        {
          "indexed": true,
          "internalType": "uint256",
          "name": "campaignId",
          "type": "uint256"
        },
        {
          "indexed": true,
          "internalType": "address",
          "name": "recipient",
          "type": "address"
        },
        {
          "indexed": false,
          "internalType": "uint256",
          "name": "amount",
          "type": "uint256"
        },
        {
          "indexed": false,
          "internalType": "uint256",
          "name": "timestamp",
          "type": "uint256"
        }
      ],
      "name": "FundsWithdrawn",
      "type": "event"
    },
    {
      "inputs": [
        {
          "internalType": "uint256",
          "name": "",
          "type": "uint256"
        },
        {
          "internalType": "uint256",
          "name": "",
          "type": "uint256"
        }
      ],
      "name": "campaignDonations",
      "outputs": [
        {
          "internalType": "uint256",
          "name": "id",
          "type": "uint256"
        },
        {
          "internalType": "uint256",
          "name": "campaignId",
          "type": "uint256"
        },
        {
          "internalType": "address",
          "name": "donor",
          "type": "address"
        },
        {
          "internalType": "string",
          "name": "donorName",
          "type": "string"
        },
        {
          "internalType": "uint256",
          "name": "amount",
          "type": "uint256"
        },
        {
          "internalType": "string",
          "name": "message",
          "type": "string"
        },
        {
          "internalType": "uint256",
          "name": "timestamp",
          "type": "uint256"
        },
        {
          "internalType": "bytes32",
          "name": "txHash",
          "type": "bytes32"
        }
      ],
      "stateMutability": "view",
      "type": "function"
    },
    {
      "inputs": [
        {
          "internalType": "uint256",
          "name": "",
          "type": "uint256"
        }
      ],
      "name": "campaignIds",
      "outputs": [
        {
          "internalType": "uint256",
          "name": "",
          "type": "uint256"
        }
      ],
      "stateMutability": "view",
      "type": "function"
    },
    {
      "inputs": [
        {
          "internalType": "uint256",
          "name": "",
          "type": "uint256"
        }
      ],
      "name": "campaignWithdrawalId",
      "outputs": [
        {
          "internalType": "uint256",
          "name": "",
          "type": "uint256"
        }
      ],
      "stateMutability": "view",
      "type": "function"
    },
    {
      "inputs": [
        {
          "internalType": "uint256",
          "name": "",
          "type": "uint256"
        }
      ],
      "name": "campaigns",
      "outputs": [
        {
          "internalType": "uint256",
          "name": "id",
          "type": "uint256"
        },
        {
          "internalType": "address payable",
          "name": "owner",
          "type": "address"
        },
        {
          "internalType": "address payable",
          "name": "beneficiary",
          "type": "address"
        },
        {
          "internalType": "string",
          "name": "title",
          "type": "string"
        },
        {
          "internalType": "string",
          "name": "description",
          "type": "string"
        },
        {
          "internalType": "string",
          "name": "category",
          "type": "string"
        },
        {
          "internalType": "string",
          "name": "imageUrl",
          "type": "string"
        },
        {
          "internalType": "uint256",
          "name": "targetAmount",
          "type": "uint256"
        },
        {
          "internalType": "uint256",
          "name": "raisedAmount",
          "type": "uint256"
        },
        {
          "internalType": "uint256",
          "name": "deadline",
          "type": "uint256"
        },
        {
          "internalType": "bool",
          "name": "isActive",
          "type": "bool"
        },
        {
          "internalType": "bool",
          "name": "isWithdrawn",
          "type": "bool"
        },
        {
          "internalType": "uint256",
          "name": "donorCount",
          "type": "uint256"
        },
        {
          "internalType": "uint256",
          "name": "createdAt",
          "type": "uint256"
        }
      ],
      "stateMutability": "view",
      "type": "function"
    },
    {
      "inputs": [
        {
          "internalType": "string",
          "name": "_title",
          "type": "string"
        },
        {
          "internalType": "string",
          "name": "_description",
          "type": "string"
        },
        {
          "internalType": "string",
          "name": "_category",
          "type": "string"
        },
        {
          "internalType": "string",
          "name": "_imageUrl",
          "type": "string"
        },
        {
          "internalType": "uint256",
          "name": "_targetAmount",
          "type": "uint256"
        },
        {
          "internalType": "uint256",
          "name": "_durationDays",
          "type": "uint256"
        },
        {
          "internalType": "address payable",
          "name": "_beneficiary",
          "type": "address"
        }
      ],
      "name": "createCampaign",
      "outputs": [
        {
          "internalType": "uint256",
          "name": "",
          "type": "uint256"
        }
      ],
      "stateMutability": "nonpayable",
      "type": "function"
    },
    {
      "inputs": [
        {
          "internalType": "uint256",
          "name": "_campaignId",
          "type": "uint256"
        }
      ],
      "name": "deactivateCampaign",
      "outputs": [],
      "stateMutability": "nonpayable",
      "type": "function"
    },
    {
      "inputs": [
        {
          "internalType": "uint256",
          "name": "_campaignId",
          "type": "uint256"
        },
        {
          "internalType": "string",
          "name": "_donorName",
          "type": "string"
        },
        {
          "internalType": "string",
          "name": "_message",
          "type": "string"
        }
      ],
      "name": "donate",
      "outputs": [],
      "stateMutability": "payable",
      "type": "function"
    },
    {
      "inputs": [
        {
          "internalType": "uint256",
          "name": "",
          "type": "uint256"
        }
      ],
      "name": "donations",
      "outputs": [
        {
          "internalType": "uint256",
          "name": "id",
          "type": "uint256"
        },
        {
          "internalType": "uint256",
          "name": "campaignId",
          "type": "uint256"
        },
        {
          "internalType": "address",
          "name": "donor",
          "type": "address"
        },
        {
          "internalType": "string",
          "name": "donorName",
          "type": "string"
        },
        {
          "internalType": "uint256",
          "name": "amount",
          "type": "uint256"
        },
        {
          "internalType": "string",
          "name": "message",
          "type": "string"
        },
        {
          "internalType": "uint256",
          "name": "timestamp",
          "type": "uint256"
        },
        {
          "internalType": "bytes32",
          "name": "txHash",
          "type": "bytes32"
        }
      ],
      "stateMutability": "view",
      "type": "function"
    },
    {
      "inputs": [],
      "name": "getAllCampaigns",
      "outputs": [
        {
          "components": [
            {
              "internalType": "uint256",
              "name": "id",
              "type": "uint256"
            },
            {
              "internalType": "address payable",
              "name": "owner",
              "type": "address"
            },
            {
              "internalType": "address payable",
              "name": "beneficiary",
              "type": "address"
            },
            {
              "internalType": "string",
              "name": "title",
              "type": "string"
            },
            {
              "internalType": "string",
              "name": "description",
              "type": "string"
            },
            {
              "internalType": "string",
              "name": "category",
              "type": "string"
            },
            {
              "internalType": "string",
              "name": "imageUrl",
              "type": "string"
            },
            {
              "internalType": "uint256",
              "name": "targetAmount",
              "type": "uint256"
            },
            {
              "internalType": "uint256",
              "name": "raisedAmount",
              "type": "uint256"
            },
            {
              "internalType": "uint256",
              "name": "deadline",
              "type": "uint256"
            },
            {
              "internalType": "bool",
              "name": "isActive",
              "type": "bool"
            },
            {
              "internalType": "bool",
              "name": "isWithdrawn",
              "type": "bool"
            },
            {
              "internalType": "uint256",
              "name": "donorCount",
              "type": "uint256"
            },
            {
              "internalType": "uint256",
              "name": "createdAt",
              "type": "uint256"
            }
          ],
          "internalType": "struct DonationSystem.Campaign[]",
          "name": "",
          "type": "tuple[]"
        }
      ],
      "stateMutability": "view",
      "type": "function"
    },
    {
      "inputs": [],
      "name": "getAllDonations",
      "outputs": [
        {
          "components": [
            {
              "internalType": "uint256",
              "name": "id",
              "type": "uint256"
            },
            {
              "internalType": "uint256",
              "name": "campaignId",
              "type": "uint256"
            },
            {
              "internalType": "address",
              "name": "donor",
              "type": "address"
            },
            {
              "internalType": "string",
              "name": "donorName",
              "type": "string"
            },
            {
              "internalType": "uint256",
              "name": "amount",
              "type": "uint256"
            },
            {
              "internalType": "string",
              "name": "message",
              "type": "string"
            },
            {
              "internalType": "uint256",
              "name": "timestamp",
              "type": "uint256"
            },
            {
              "internalType": "bytes32",
              "name": "txHash",
              "type": "bytes32"
            }
          ],
          "internalType": "struct DonationSystem.Donation[]",
          "name": "",
          "type": "tuple[]"
        }
      ],
      "stateMutability": "view",
      "type": "function"
    },
    {
      "inputs": [],
      "name": "getAllWithdrawals",
      "outputs": [
        {
          "components": [
            {
              "internalType": "uint256",
              "name": "id",
              "type": "uint256"
            },
            {
              "internalType": "uint256",
              "name": "campaignId",
              "type": "uint256"
            },
            {
              "internalType": "string",
              "name": "campaignTitle",
              "type": "string"
            },
            {
              "internalType": "address",
              "name": "recipient",
              "type": "address"
            },
            {
              "internalType": "uint256",
              "name": "amount",
              "type": "uint256"
            },
            {
              "internalType": "string",
              "name": "purpose",
              "type": "string"
            },
            {
              "internalType": "uint256",
              "name": "timestamp",
              "type": "uint256"
            },
            {
              "internalType": "bytes32",
              "name": "txHash",
              "type": "bytes32"
            }
          ],
          "internalType": "struct DonationSystem.Withdrawal[]",
          "name": "",
          "type": "tuple[]"
        }
      ],
      "stateMutability": "view",
      "type": "function"
    },
    {
      "inputs": [
        {
          "internalType": "uint256",
          "name": "_campaignId",
          "type": "uint256"
        }
      ],
      "name": "getCampaign",
      "outputs": [
        {
          "components": [
            {
              "internalType": "uint256",
              "name": "id",
              "type": "uint256"
            },
            {
              "internalType": "address payable",
              "name": "owner",
              "type": "address"
            },
            {
              "internalType": "address payable",
              "name": "beneficiary",
              "type": "address"
            },
            {
              "internalType": "string",
              "name": "title",
              "type": "string"
            },
            {
              "internalType": "string",
              "name": "description",
              "type": "string"
            },
            {
              "internalType": "string",
              "name": "category",
              "type": "string"
            },
            {
              "internalType": "string",
              "name": "imageUrl",
              "type": "string"
            },
            {
              "internalType": "uint256",
              "name": "targetAmount",
              "type": "uint256"
            },
            {
              "internalType": "uint256",
              "name": "raisedAmount",
              "type": "uint256"
            },
            {
              "internalType": "uint256",
              "name": "deadline",
              "type": "uint256"
            },
            {
              "internalType": "bool",
              "name": "isActive",
              "type": "bool"
            },
            {
              "internalType": "bool",
              "name": "isWithdrawn",
              "type": "bool"
            },
            {
              "internalType": "uint256",
              "name": "donorCount",
              "type": "uint256"
            },
            {
              "internalType": "uint256",
              "name": "createdAt",
              "type": "uint256"
            }
          ],
          "internalType": "struct DonationSystem.Campaign",
          "name": "",
          "type": "tuple"
        }
      ],
      "stateMutability": "view",
      "type": "function"
    },
    {
      "inputs": [],
      "name": "getCampaignCount",
      "outputs": [
        {
          "internalType": "uint256",
          "name": "",
          "type": "uint256"
        }
      ],
      "stateMutability": "view",
      "type": "function"
    },
    {
      "inputs": [
        {
          "internalType": "uint256",
          "name": "_campaignId",
          "type": "uint256"
        }
      ],
      "name": "getCampaignDonations",
      "outputs": [
        {
          "components": [
            {
              "internalType": "uint256",
              "name": "id",
              "type": "uint256"
            },
            {
              "internalType": "uint256",
              "name": "campaignId",
              "type": "uint256"
            },
            {
              "internalType": "address",
              "name": "donor",
              "type": "address"
            },
            {
              "internalType": "string",
              "name": "donorName",
              "type": "string"
            },
            {
              "internalType": "uint256",
              "name": "amount",
              "type": "uint256"
            },
            {
              "internalType": "string",
              "name": "message",
              "type": "string"
            },
            {
              "internalType": "uint256",
              "name": "timestamp",
              "type": "uint256"
            },
            {
              "internalType": "bytes32",
              "name": "txHash",
              "type": "bytes32"
            }
          ],
          "internalType": "struct DonationSystem.Donation[]",
          "name": "",
          "type": "tuple[]"
        }
      ],
      "stateMutability": "view",
      "type": "function"
    },
    {
      "inputs": [
        {
          "internalType": "uint256",
          "name": "_campaignId",
          "type": "uint256"
        }
      ],
      "name": "getCampaignWithdrawal",
      "outputs": [
        {
          "components": [
            {
              "internalType": "uint256",
              "name": "id",
              "type": "uint256"
            },
            {
              "internalType": "uint256",
              "name": "campaignId",
              "type": "uint256"
            },
            {
              "internalType": "string",
              "name": "campaignTitle",
              "type": "string"
            },
            {
              "internalType": "address",
              "name": "recipient",
              "type": "address"
            },
            {
              "internalType": "uint256",
              "name": "amount",
              "type": "uint256"
            },
            {
              "internalType": "string",
              "name": "purpose",
              "type": "string"
            },
            {
              "internalType": "uint256",
              "name": "timestamp",
              "type": "uint256"
            },
            {
              "internalType": "bytes32",
              "name": "txHash",
              "type": "bytes32"
            }
          ],
          "internalType": "struct DonationSystem.Withdrawal",
          "name": "",
          "type": "tuple"
        }
      ],
      "stateMutability": "view",
      "type": "function"
    },
    {
      "inputs": [],
      "name": "getContractBalance",
      "outputs": [
        {
          "internalType": "uint256",
          "name": "",
          "type": "uint256"
        }
      ],
      "stateMutability": "view",
      "type": "function"
    },
    {
      "inputs": [],
      "name": "getDonationCount",
      "outputs": [
        {
          "internalType": "uint256",
          "name": "",
          "type": "uint256"
        }
      ],
      "stateMutability": "view",
      "type": "function"
    },
    {
      "inputs": [],
      "name": "getPlatformStats",
      "outputs": [
        {
          "internalType": "uint256",
          "name": "totalCampaigns",
          "type": "uint256"
        },
        {
          "internalType": "uint256",
          "name": "totalDonations",
          "type": "uint256"
        },
        {
          "internalType": "uint256",
          "name": "totalFundsRaised",
          "type": "uint256"
        },
        {
          "internalType": "uint256",
          "name": "activeCampaigns",
          "type": "uint256"
        }
      ],
      "stateMutability": "view",
      "type": "function"
    },
    {
      "inputs": [
        {
          "internalType": "address",
          "name": "_user",
          "type": "address"
        }
      ],
      "name": "getUserCampaigns",
      "outputs": [
        {
          "components": [
            {
              "internalType": "uint256",
              "name": "id",
              "type": "uint256"
            },
            {
              "internalType": "address payable",
              "name": "owner",
              "type": "address"
            },
            {
              "internalType": "address payable",
              "name": "beneficiary",
              "type": "address"
            },
            {
              "internalType": "string",
              "name": "title",
              "type": "string"
            },
            {
              "internalType": "string",
              "name": "description",
              "type": "string"
            },
            {
              "internalType": "string",
              "name": "category",
              "type": "string"
            },
            {
              "internalType": "string",
              "name": "imageUrl",
              "type": "string"
            },
            {
              "internalType": "uint256",
              "name": "targetAmount",
              "type": "uint256"
            },
            {
              "internalType": "uint256",
              "name": "raisedAmount",
              "type": "uint256"
            },
            {
              "internalType": "uint256",
              "name": "deadline",
              "type": "uint256"
            },
            {
              "internalType": "bool",
              "name": "isActive",
              "type": "bool"
            },
            {
              "internalType": "bool",
              "name": "isWithdrawn",
              "type": "bool"
            },
            {
              "internalType": "uint256",
              "name": "donorCount",
              "type": "uint256"
            },
            {
              "internalType": "uint256",
              "name": "createdAt",
              "type": "uint256"
            }
          ],
          "internalType": "struct DonationSystem.Campaign[]",
          "name": "",
          "type": "tuple[]"
        }
      ],
      "stateMutability": "view",
      "type": "function"
    },
    {
      "inputs": [
        {
          "internalType": "address",
          "name": "_user",
          "type": "address"
        }
      ],
      "name": "getUserDonations",
      "outputs": [
        {
          "components": [
            {
              "internalType": "uint256",
              "name": "id",
              "type": "uint256"
            },
            {
              "internalType": "uint256",
              "name": "campaignId",
              "type": "uint256"
            },
            {
              "internalType": "address",
              "name": "donor",
              "type": "address"
            },
            {
              "internalType": "string",
              "name": "donorName",
              "type": "string"
            },
            {
              "internalType": "uint256",
              "name": "amount",
              "type": "uint256"
            },
            {
              "internalType": "string",
              "name": "message",
              "type": "string"
            },
            {
              "internalType": "uint256",
              "name": "timestamp",
              "type": "uint256"
            },
            {
              "internalType": "bytes32",
              "name": "txHash",
              "type": "bytes32"
            }
          ],
          "internalType": "struct DonationSystem.Donation[]",
          "name": "",
          "type": "tuple[]"
        }
      ],
      "stateMutability": "view",
      "type": "function"
    },
    {
      "inputs": [],
      "name": "getWithdrawalCount",
      "outputs": [
        {
          "internalType": "uint256",
          "name": "",
          "type": "uint256"
        }
      ],
      "stateMutability": "view",
      "type": "function"
    },
    {
      "inputs": [],
      "name": "owner",
      "outputs": [
        {
          "internalType": "address",
          "name": "",
          "type": "address"
        }
      ],
      "stateMutability": "view",
      "type": "function"
    },
    {
      "inputs": [],
      "name": "platformFee",
      "outputs": [
        {
          "internalType": "uint256",
          "name": "",
          "type": "uint256"
        }
      ],
      "stateMutability": "view",
      "type": "function"
    },
    {
      "inputs": [
        {
          "internalType": "address",
          "name": "",
          "type": "address"
        },
        {
          "internalType": "uint256",
          "name": "",
          "type": "uint256"
        }
      ],
      "name": "userCampaignIds",
      "outputs": [
        {
          "internalType": "uint256",
          "name": "",
          "type": "uint256"
        }
      ],
      "stateMutability": "view",
      "type": "function"
    },
    {
      "inputs": [
        {
          "internalType": "address",
          "name": "",
          "type": "address"
        },
        {
          "internalType": "uint256",
          "name": "",
          "type": "uint256"
        }
      ],
      "name": "userDonationIds",
      "outputs": [
        {
          "internalType": "uint256",
          "name": "",
          "type": "uint256"
        }
      ],
      "stateMutability": "view",
      "type": "function"
    },
    {
      "inputs": [
        {
          "internalType": "address",
          "name": "",
          "type": "address"
        }
      ],
      "name": "verifiedCreators",
      "outputs": [
        {
          "internalType": "bool",
          "name": "",
          "type": "bool"
        }
      ],
      "stateMutability": "view",
      "type": "function"
    },
    {
      "inputs": [
        {
          "internalType": "address",
          "name": "_creator",
          "type": "address"
        },
        {
          "internalType": "bool",
          "name": "_status",
          "type": "bool"
        }
      ],
      "name": "verifyCreator",
      "outputs": [],
      "stateMutability": "nonpayable",
      "type": "function"
    },
    {
      "inputs": [
        {
          "internalType": "uint256",
          "name": "_campaignId",
          "type": "uint256"
        },
        {
          "internalType": "string",
          "name": "_withdrawalPurpose",
          "type": "string"
        }
      ],
      "name": "withdrawFunds",
      "outputs": [],
      "stateMutability": "nonpayable",
      "type": "function"
    },
    {
      "inputs": [
        {
          "internalType": "uint256",
          "name": "",
          "type": "uint256"
        }
      ],
      "name": "withdrawalIds",
      "outputs": [
        {
          "internalType": "uint256",
          "name": "",
          "type": "uint256"
        }
      ],
      "stateMutability": "view",
      "type": "function"
    },
    {
      "inputs": [
        {
          "internalType": "uint256",
          "name": "",
          "type": "uint256"
        }
      ],
      "name": "withdrawals",
      "outputs": [
        {
          "internalType": "uint256",
          "name": "id",
          "type": "uint256"
        },
        {
          "internalType": "uint256",
          "name": "campaignId",
          "type": "uint256"
        },
        {
          "internalType": "string",
          "name": "campaignTitle",
          "type": "string"
        },
        {
          "internalType": "address",
          "name": "recipient",
          "type": "address"
        },
        {
          "internalType": "uint256",
          "name": "amount",
          "type": "uint256"
        },
        {
          "internalType": "string",
          "name": "purpose",
          "type": "string"
        },
        {
          "internalType": "uint256",
          "name": "timestamp",
          "type": "uint256"
        },
        {
          "internalType": "bytes32",
          "name": "txHash",
          "type": "bytes32"
        }
      ],
      "stateMutability": "view",
      "type": "function"
    },
    {
      "stateMutability": "payable",
      "type": "receive"
    }
  ],
  "bytecode": "0x6080604052600060015534801561001557600080fd5b50600080546001600160a01b03191633179055613c01806100376000396000f3fe6080604052600436106101d15760003560e01c8063781952a8116100f7578063add150bc11610095578063e55a62a811610064578063e55a62a8146105c5578063f2ccf839146105da578063f8626af8146105ed578063ffe4560d1461060d57600080fd5b8063add150bc1461050b578063b369359d1461054b578063b9ffdbbd1461056b578063d12e3b4c1461059857600080fd5b80638da5cb5b116100d15780638da5cb5b14610473578063a1e5084c146104ab578063a2667447146104cb578063a8f649e1146104eb57600080fd5b8063781952a81461041c5780637eca30fe1461043157806386cdf6041461045157600080fd5b80633bb7b2481161016f5780636caa92181161013e5780636caa9218146103a05780636f9fb98a146103b557806370879ff7146103c8578063732435b2146103fc57600080fd5b80633bb7b248146102fd5780635167642f1461031f5780635598f8cc1461033f5780635cc070761461036c57600080fd5b806326232a2e116101ab57806326232a2e146102775780632fb011fa1461029b57806338a59a07146102bb57806339924268146102dd57600080fd5b806302cafe75146101dd578063136d888314610208578063141961bc1461023d57600080fd5b366101d857005b600080fd5b3480156101e957600080fd5b506101f261062d565b6040516101ff919061320d565b60405180910390f35b34801561021457600080fd5b5061021d61086b565b6040805194855260208501939093529183015260608201526080016101ff565b34801561024957600080fd5b5061025d610258366004613271565b610906565b6040516101ff9e9d9c9b9a9998979695949392919061328a565b34801561028357600080fd5b5061028d60015481565b6040519081526020016101ff565b3480156102a757600080fd5b5061028d6102b6366004613271565b610ba2565b3480156102c757600080fd5b506102d0610bc3565b6040516101ff919061334a565b3480156102e957600080fd5b5061028d6102f8366004613437565b610def565b34801561030957600080fd5b5061031d610318366004613463565b610e20565b005b34801561032b57600080fd5b506102d061033a366004613271565b610e7e565b34801561034b57600080fd5b5061035f61035a366004613271565b611084565b6040516101ff91906135ab565b34801561037857600080fd5b5061038c610387366004613271565b6113a9565b6040516101ff9897969594939291906135c5565b3480156103ac57600080fd5b5060025461028d565b3480156103c157600080fd5b504761028d565b3480156103d457600080fd5b506103e86103e3366004613627565b611508565b6040516101ff989796959493929190613649565b34801561040857600080fd5b506102d0610417366004613695565b6115f4565b34801561042857600080fd5b5060045461028d565b34801561043d57600080fd5b5061031d61044c366004613271565b6118a8565b34801561045d57600080fd5b5061046661195a565b6040516101ff91906136b2565b34801561047f57600080fd5b50600054610493906001600160a01b031681565b6040516001600160a01b0390911681526020016101ff565b3480156104b757600080fd5b506104666104c6366004613695565b611cf2565b3480156104d757600080fd5b5061028d6104e6366004613437565b6120e8565b3480156104f757600080fd5b5061028d6105063660046137bc565b612104565b34801561051757600080fd5b5061053b610526366004613695565b60056020526000908152604090205460ff1681565b60405190151581526020016101ff565b34801561055757600080fd5b5061028d610566366004613271565b61256c565b34801561057757600080fd5b5061058b610586366004613271565b61257c565b6040516101ff919061388d565b3480156105a457600080fd5b5061028d6105b3366004613271565b600c6020526000908152604090205481565b3480156105d157600080fd5b5060035461028d565b61031d6105e83660046138a0565b6127b3565b3480156105f957600080fd5b506103e8610608366004613271565b612b70565b34801561061957600080fd5b5061031d61062836600461390d565b612baa565b600e5460609060009067ffffffffffffffff81111561064e5761064e613709565b60405190808252806020026020018201604052801561068757816020015b61067461301f565b81526020019060019003908161066c5790505b50905060005b600e5481101561086557600b6000600e83815481106106ae576106ae613954565b906000526020600020015481526020019081526020016000206040518061010001604052908160008201548152602001600182015481526020016002820180546106f79061396a565b80601f01602080910402602001604051908101604052809291908181526020018280546107239061396a565b80156107705780601f1061074557610100808354040283529160200191610770565b820191906000526020600020905b81548152906001019060200180831161075357829003601f168201915b505050918352505060038201546001600160a01b03166020820152600482015460408201526005820180546060909201916107aa9061396a565b80601f01602080910402602001604051908101604052809291908181526020018280546107d69061396a565b80156108235780601f106107f857610100808354040283529160200191610823565b820191906000526020600020905b81548152906001019060200180831161080657829003601f168201915b505050505081526020016006820154815260200160078201548152505082828151811061085257610852613954565b602090810291909101015260010161068d565b50919050565b600254600354600080808060015b60025481116108f85760008181526006602052604090206008015461089e90846139b4565b6000828152600660205260409020600a015490935060ff1680156108d357506000818152600660205260409020600901544211155b156108e657816108e2816139cd565b9250505b806108f0816139cd565b915050610879565b509495939490939092509050565b600660205260009081526040902080546001820154600283015460038401805493946001600160a01b039384169493909216926109429061396a565b80601f016020809104026020016040519081016040528092919081815260200182805461096e9061396a565b80156109bb5780601f10610990576101008083540402835291602001916109bb565b820191906000526020600020905b81548152906001019060200180831161099e57829003601f168201915b5050505050908060040180546109d09061396a565b80601f01602080910402602001604051908101604052809291908181526020018280546109fc9061396a565b8015610a495780601f10610a1e57610100808354040283529160200191610a49565b820191906000526020600020905b815481529060010190602001808311610a2c57829003601f168201915b505050505090806005018054610a5e9061396a565b80601f0160208091040260200160405190810160405280929190818152602001828054610a8a9061396a565b8015610ad75780601f10610aac57610100808354040283529160200191610ad7565b820191906000526020600020905b815481529060010190602001808311610aba57829003601f168201915b505050505090806006018054610aec9061396a565b80601f0160208091040260200160405190810160405280929190818152602001828054610b189061396a565b8015610b655780601f10610b3a57610100808354040283529160200191610b65565b820191906000526020600020905b815481529060010190602001808311610b4857829003601f168201915b505050600784015460088501546009860154600a870154600b880154600c909801549697939692955090935060ff8082169361010090920416918e565b600e8181548110610bb257600080fd5b600091825260209091200154905081565b6060600060035467ffffffffffffffff811115610be257610be2613709565b604051908082528060200260200182016040528015610c1b57816020015b610c08613070565b815260200190600190039081610c005790505b50905060015b6003548111610865576000818152600860209081526040918290208251610100810184528154815260018201549281019290925260028101546001600160a01b031692820192909252600382018054919291606084019190610c829061396a565b80601f0160208091040260200160405190810160405280929190818152602001828054610cae9061396a565b8015610cfb5780601f10610cd057610100808354040283529160200191610cfb565b820191906000526020600020905b815481529060010190602001808311610cde57829003601f168201915b5050505050815260200160048201548152602001600582018054610d1e9061396a565b80601f0160208091040260200160405190810160405280929190818152602001828054610d4a9061396a565b8015610d975780601f10610d6c57610100808354040283529160200191610d97565b820191906000526020600020905b815481529060010190602001808311610d7a57829003601f168201915b50505091835250506006820154602082015260079091015460409091015282610dc16001846139e6565b81518110610dd157610dd1613954565b60200260200101819052508080610de7906139cd565b915050610c21565b600a6020528160005260406000208181548110610e0b57600080fd5b90600052602060002001600091509150505481565b6000546001600160a01b03163314610e535760405162461bcd60e51b8152600401610e4a906139f9565b60405180910390fd5b6001600160a01b03919091166000908152600560205260409020805460ff1916911515919091179055565b606081600081118015610e9357506002548111155b610eaf5760405162461bcd60e51b8152600401610e4a90613a47565b600083815260076020908152604080832080548251818502810185019093528083529193909284015b828210156110785760008481526020908190206040805161010081018252600886029092018054835260018101549383019390935260028301546001600160a01b031690820152600382018054919291606084019190610f379061396a565b80601f0160208091040260200160405190810160405280929190818152602001828054610f639061396a565b8015610fb05780601f10610f8557610100808354040283529160200191610fb0565b820191906000526020600020905b815481529060010190602001808311610f9357829003601f168201915b5050505050815260200160048201548152602001600582018054610fd39061396a565b80601f0160208091040260200160405190810160405280929190818152602001828054610fff9061396a565b801561104c5780601f106110215761010080835404028352916020019161104c565b820191906000526020600020905b81548152906001019060200180831161102f57829003601f168201915b505050505081526020016006820154815260200160078201548152505081526020019060010190610ed8565b50505050915050919050565b61108c6130c1565b8160008111801561109f57506002548111155b6110bb5760405162461bcd60e51b8152600401610e4a90613a47565b60008381526006602090815260409182902082516101c0810184528154815260018201546001600160a01b03908116938201939093526002820154909216928201929092526003820180549192916060840191906111189061396a565b80601f01602080910402602001604051908101604052809291908181526020018280546111449061396a565b80156111915780601f1061116657610100808354040283529160200191611191565b820191906000526020600020905b81548152906001019060200180831161117457829003601f168201915b505050505081526020016004820180546111aa9061396a565b80601f01602080910402602001604051908101604052809291908181526020018280546111d69061396a565b80156112235780601f106111f857610100808354040283529160200191611223565b820191906000526020600020905b81548152906001019060200180831161120657829003601f168201915b5050505050815260200160058201805461123c9061396a565b80601f01602080910402602001604051908101604052809291908181526020018280546112689061396a565b80156112b55780601f1061128a576101008083540402835291602001916112b5565b820191906000526020600020905b81548152906001019060200180831161129857829003601f168201915b505050505081526020016006820180546112ce9061396a565b80601f01602080910402602001604051908101604052809291908181526020018280546112fa9061396a565b80156113475780601f1061131c57610100808354040283529160200191611347565b820191906000526020600020905b81548152906001019060200180831161132a57829003601f168201915b5050509183525050600782015460208201526008820154604082015260098201546060820152600a82015460ff8082161515608084015261010090910416151560a0820152600b82015460c0820152600c9091015460e0909101529392505050565b600b60205260009081526040902080546001820154600283018054929391926113d19061396a565b80601f01602080910402602001604051908101604052809291908181526020018280546113fd9061396a565b801561144a5780601f1061141f5761010080835404028352916020019161144a565b820191906000526020600020905b81548152906001019060200180831161142d57829003601f168201915b505050506003830154600484015460058501805494956001600160a01b0390931694919350906114799061396a565b80601f01602080910402602001604051908101604052809291908181526020018280546114a59061396a565b80156114f25780601f106114c7576101008083540402835291602001916114f2565b820191906000526020600020905b8154815290600101906020018083116114d557829003601f168201915b5050505050908060060154908060070154905088565b6007602052816000526040600020818154811061152457600080fd5b600091825260209091206008909102018054600182015460028301546003840180549396509194506001600160a01b031692916115609061396a565b80601f016020809104026020016040519081016040528092919081815260200182805461158c9061396a565b80156115d95780601f106115ae576101008083540402835291602001916115d9565b820191906000526020600020905b8154815290600101906020018083116115bc57829003601f168201915b5050505050908060040154908060050180546114799061396a565b6001600160a01b038116600090815260096020908152604080832080548251818502810185019093528083526060949383018282801561165357602002820191906000526020600020905b81548152602001906001019080831161163f575b505050505090506000815167ffffffffffffffff81111561167657611676613709565b6040519080825280602002602001820160405280156116af57816020015b61169c613070565b8152602001906001900390816116945790505b50905060005b82518110156118a057600860008483815181106116d4576116d4613954565b602002602001015181526020019081526020016000206040518061010001604052908160008201548152602001600182015481526020016002820160009054906101000a90046001600160a01b03166001600160a01b03166001600160a01b031681526020016003820180546117499061396a565b80601f01602080910402602001604051908101604052809291908181526020018280546117759061396a565b80156117c25780601f10611797576101008083540402835291602001916117c2565b820191906000526020600020905b8154815290600101906020018083116117a557829003601f168201915b50505050508152602001600482015481526020016005820180546117e59061396a565b80601f01602080910402602001604051908101604052809291908181526020018280546118119061396a565b801561185e5780601f106118335761010080835404028352916020019161185e565b820191906000526020600020905b81548152906001019060200180831161184157829003601f168201915b505050505081526020016006820154815260200160078201548152505082828151811061188d5761188d613954565b60209081029190910101526001016116b5565b509392505050565b6000546001600160a01b031633146118d25760405162461bcd60e51b8152600401610e4a906139f9565b806000811180156118e557506002548111155b6119015760405162461bcd60e51b8152600401610e4a90613a47565b60008281526006602052604090819020600a01805460ff191690555182907f6ce91c3f916a17a6dac5912acc0d627f6cc59593f7047bc09a11d4a1fde292ad9061194e9042815260200190565b60405180910390a25050565b600d5460609060009067ffffffffffffffff81111561197b5761197b613709565b6040519080825280602002602001820160405280156119b457816020015b6119a16130c1565b8152602001906001900390816119995790505b50905060005b600d548110156108655760066000600d83815481106119db576119db613954565b60009182526020808320909101548352828101939093526040918201902081516101c0810183528154815260018201546001600160a01b0390811694820194909452600282015490931691830191909152600381018054606084019190611a419061396a565b80601f0160208091040260200160405190810160405280929190818152602001828054611a6d9061396a565b8015611aba5780601f10611a8f57610100808354040283529160200191611aba565b820191906000526020600020905b815481529060010190602001808311611a9d57829003601f168201915b50505050508152602001600482018054611ad39061396a565b80601f0160208091040260200160405190810160405280929190818152602001828054611aff9061396a565b8015611b4c5780601f10611b2157610100808354040283529160200191611b4c565b820191906000526020600020905b815481529060010190602001808311611b2f57829003601f168201915b50505050508152602001600582018054611b659061396a565b80601f0160208091040260200160405190810160405280929190818152602001828054611b919061396a565b8015611bde5780601f10611bb357610100808354040283529160200191611bde565b820191906000526020600020905b815481529060010190602001808311611bc157829003601f168201915b50505050508152602001600682018054611bf79061396a565b80601f0160208091040260200160405190810160405280929190818152602001828054611c239061396a565b8015611c705780601f10611c4557610100808354040283529160200191611c70565b820191906000526020600020905b815481529060010190602001808311611c5357829003601f168201915b5050509183525050600782015460208201526008820154604082015260098201546060820152600a82015460ff8082161515608084015261010090910416151560a0820152600b82015460c0820152600c9091015460e0909101528251839083908110611cdf57611cdf613954565b60209081029190910101526001016119ba565b6001600160a01b0381166000908152600a60209081526040808320805482518185028101850190935280835260609493830182828015611d5157602002820191906000526020600020905b815481526020019060010190808311611d3d575b505050505090506000815167ffffffffffffffff811115611d7457611d74613709565b604051908082528060200260200182016040528015611dad57816020015b611d9a6130c1565b815260200190600190039081611d925790505b50905060005b82518110156118a05760066000848381518110611dd257611dd2613954565b602090810291909101810151825281810192909252604090810160002081516101c0810183528154815260018201546001600160a01b0390811694820194909452600282015490931691830191909152600381018054606084019190611e379061396a565b80601f0160208091040260200160405190810160405280929190818152602001828054611e639061396a565b8015611eb05780601f10611e8557610100808354040283529160200191611eb0565b820191906000526020600020905b815481529060010190602001808311611e9357829003601f168201915b50505050508152602001600482018054611ec99061396a565b80601f0160208091040260200160405190810160405280929190818152602001828054611ef59061396a565b8015611f425780601f10611f1757610100808354040283529160200191611f42565b820191906000526020600020905b815481529060010190602001808311611f2557829003601f168201915b50505050508152602001600582018054611f5b9061396a565b80601f0160208091040260200160405190810160405280929190818152602001828054611f879061396a565b8015611fd45780601f10611fa957610100808354040283529160200191611fd4565b820191906000526020600020905b815481529060010190602001808311611fb757829003601f168201915b50505050508152602001600682018054611fed9061396a565b80601f01602080910402602001604051908101604052809291908181526020018280546120199061396a565b80156120665780601f1061203b57610100808354040283529160200191612066565b820191906000526020600020905b81548152906001019060200180831161204957829003601f168201915b5050509183525050600782015460208201526008820154604082015260098201546060820152600a82015460ff8082161515608084015261010090910416151560a0820152600b82015460c0820152600c9091015460e09091015282518390839081106120d5576120d5613954565b6020908102919091010152600101611db3565b60096020528160005260406000208181548110610e0b57600080fd5b3360009081526005602052604081205460ff1661218b576040805162461bcd60e51b81526020600482015260248101919091527f48616e79612070656d62756174206b616d70616e79652074657276657269666960448201527f6b6173692079616e67206461706174206d656d62756174206b616d70616e79656064820152608401610e4a565b60008851116121dc5760405162461bcd60e51b815260206004820152601860248201527f4a7564756c20746964616b20626f6c6568206b6f736f6e6700000000000000006044820152606401610e4a565b6000841161222c5760405162461bcd60e51b815260206004820181905260248201527f54617267657420646f6e617369206861727573206c65626968206461726920306044820152606401610e4a565b60008311801561223e575061016d8311155b61228a5760405162461bcd60e51b815260206004820152601e60248201527f44757261736920686172757320616e7461726120312d333635206861726900006044820152606401610e4a565b6001600160a01b0382166122ec5760405162461bcd60e51b815260206004820152602360248201527f416c616d61742070656e6572696d61206d616e6661617420746964616b2076616044820152621b1a5960ea1b6064820152608401610e4a565b600280549060006122fc836139cd565b909155505060025460006123138562015180613a7e565b61231d90426139b4565b9050604051806101c00160405280838152602001336001600160a01b03168152602001856001600160a01b031681526020018b81526020018a8152602001898152602001888152602001878152602001600081526020018281526020016001151581526020016000151581526020016000815260200142815250600660008481526020019081526020016000206000820151816000015560208201518160010160006101000a8154816001600160a01b0302191690836001600160a01b0316021790555060408201518160020160006101000a8154816001600160a01b0302191690836001600160a01b0316021790555060608201518160030190816124239190613ae6565b50608082015160048201906124389082613ae6565b5060a0820151600582019061244d9082613ae6565b5060c082015160068201906124629082613ae6565b5060e082015160078201556101008083015160088301556101208301516009830155610140830151600a808401805461016087015161ffff1990911693151561ff0019169390931792151590930291909117909155610180830151600b8301556101a090920151600c90910155600d805460018181019092557fd7b6990105719101dabeb77144f2a3385c8033acd3af97e9423a695e81ad1eb50184905533600081815260209384526040808220805494850181558252939020909101849055905183907fdc26653af5b99b2da33e2ad69ee6600d9aeccc82b034501db4338309615ca23890612557908e908b908790613ba6565b60405180910390a35098975050505050505050565b600d8181548110610bb257600080fd5b61258461301f565b8160008111801561259757506002548111155b6125b35760405162461bcd60e51b8152600401610e4a90613a47565b6000838152600c60205260409020548061261e5760405162461bcd60e51b815260206004820152602660248201527f42656c756d206164612070656e6172696b616e20756e74756b206b616d70616e604482015265796520696e6960d01b6064820152608401610e4a565b600b60008281526020019081526020016000206040518061010001604052908160008201548152602001600182015481526020016002820180546126619061396a565b80601f016020809104026020016040519081016040528092919081815260200182805461268d9061396a565b80156126da5780601f106126af576101008083540402835291602001916126da565b820191906000526020600020905b8154815290600101906020018083116126bd57829003601f168201915b505050918352505060038201546001600160a01b03166020820152600482015460408201526005820180546060909201916127149061396a565b80601f01602080910402602001604051908101604052809291908181526020018280546127409061396a565b801561278d5780601f106127625761010080835404028352916020019161278d565b820191906000526020600020905b81548152906001019060200180831161277057829003601f168201915b505050505081526020016006820154815260200160078201548152505092505050919050565b826000811180156127c657506002548111155b6127e25760405162461bcd60e51b8152600401610e4a90613a47565b6000848152600660205260409020600a0154849060ff1661283c5760405162461bcd60e51b815260206004820152601460248201527325b0b6b830b73cb2903a34b230b59030b5ba34b360611b6044820152606401610e4a565b60008181526006602052604090206009015442111561289d5760405162461bcd60e51b815260206004820152601760248201527f4b616d70616e79652074656c616820626572616b6869720000000000000000006044820152606401610e4a565b600034116128ed5760405162461bcd60e51b815260206004820181905260248201527f4a756d6c616820646f6e617369206861727573206c65626968206461726920306044820152606401610e4a565b600380549060006128fd836139cd565b90915550506003546000868152600660205260408120600881018054919234926129289084906139b4565b9091555050600b8101805490600061293f836139cd565b91905055506000604051806101000160405280848152602001898152602001336001600160a01b03168152602001600089511161299a5760405180604001604052806006815260200165416e6f6e696d60d01b81525061299c565b885b8152346020820152604081018890524260608201526080016129bf6001436139e6565b40905260008481526008602090815260409182902083518155908301516001820155908201516002820180546001600160a01b0319166001600160a01b03909216919091179055606082015191925082916003820190612a1f9082613ae6565b506080820151600482015560a08201516005820190612a3e9082613ae6565b5060c0820151600682015560e0909101516007918201556000898152602091825260408082208054600180820183559184529284902085516008909402019283559284015192820192909255908201516002820180546001600160a01b0319166001600160a01b0390921691909117905560608201518291906003820190612ac69082613ae6565b506080820151600482015560a08201516005820190612ae59082613ae6565b5060c0820151600682015560e0909101516007909101553360008181526009602090815260408083208054600181018255908452919092200185905551899085907ff72c0e09c7877ae5a9c8ba71338c1f55d09bac17f3630ec28802676b1566eb8b90612b5e9034904290918252602082015260400190565b60405180910390a45050505050505050565b6008602052600090815260409020805460018201546002830154600384018054939492936001600160a01b0390921692916115609061396a565b81600081118015612bbd57506002548111155b612bd95760405162461bcd60e51b8152600401610e4a90613a47565b600083815260066020526040902060018101546001600160a01b03163314612c3c5760405162461bcd60e51b815260206004820152601660248201527548616e79612070656d696c696b206b616d70616e796560501b6044820152606401610e4a565b600a810154610100900460ff1615612c8b5760405162461bcd60e51b815260206004820152601260248201527144616e61207375646168206469746172696b60701b6044820152606401610e4a565b6000816008015411612cdf5760405162461bcd60e51b815260206004820152601c60248201527f546964616b206164612064616e6120756e74756b206469746172696b000000006044820152606401610e4a565b8060090154421180612cf957508060070154816008015410155b612d5f5760405162461bcd60e51b815260206004820152603160248201527f4b616d70616e79652062656c756d2073656c657361692061746175207461726760448201527065742062656c756d20746572636170616960781b6064820152608401610e4a565b6000835111612db05760405162461bcd60e51b815260206004820152601c60248201527f54756a75616e2070656e6172696b616e206861727573206469697369000000006044820152606401610e4a565b6008810154600a8201805461ffff191661010017905560048054906000612dd6836139cd565b919050555060006004549050604051806101000160405280828152602001878152602001846003018054612e099061396a565b80601f0160208091040260200160405190810160405280929190818152602001828054612e359061396a565b8015612e825780601f10612e5757610100808354040283529160200191612e82565b820191906000526020600020905b815481529060010190602001808311612e6557829003601f168201915b505050918352505060028501546001600160a01b03166020820152604081018490526060810187905242608082015260a001612ebf6001436139e6565b4090526000828152600b602090815260409182902083518155908301516001820155908201516002820190612ef49082613ae6565b5060608201516003820180546001600160a01b0319166001600160a01b039092169190911790556080820151600482015560a08201516005820190612f399082613ae6565b5060c0820151600682015560e090910151600790910155600e8054600181019091557fbb7b4a454dc3493923482f07822329ed19e8244eff582cc204f8554c3620c3fd018190556000868152600c6020526040808220839055600285015490516001600160a01b039091169184156108fc02918591818181858888f19350505050158015612fcb573d6000803e3d6000fd5b506002830154604080518481524260208201526001600160a01b039092169188917f3dbb1a26f29aef1264c12ca1285deb60cca5666d8b17100c7ea1602c0a4014f6910160405180910390a3505050505050565b60405180610100016040528060008152602001600081526020016060815260200160006001600160a01b03168152602001600081526020016060815260200160008152602001600080191681525090565b604051806101000160405280600081526020016000815260200160006001600160a01b0316815260200160608152602001600081526020016060815260200160008152602001600080191681525090565b604051806101c001604052806000815260200160006001600160a01b0316815260200160006001600160a01b031681526020016060815260200160608152602001606081526020016060815260200160008152602001600081526020016000815260200160001515815260200160001515815260200160008152602001600081525090565b6000815180845260005b8181101561316c57602081850181015186830182015201613150565b506000602082860101526020601f19601f83011685010191505092915050565b6000610100825184526020830151602085015260408301518160408601526131b682860182613146565b91505060018060a01b0360608401511660608501526080830151608085015260a083015184820360a08601526131ec8282613146565b91505060c083015160c085015260e083015160e08501528091505092915050565b600060208083016020845280855180835260408601915060408160051b87010192506020870160005b8281101561326457603f1988860301845261325285835161318c565b94509285019290850190600101613236565b5092979650505050505050565b60006020828403121561328357600080fd5b5035919050565b8e81526001600160a01b038e1660208201526001600160a01b038d1660408201526101c0606082015260006132c36101c083018e613146565b82810360808401526132d5818e613146565b905082810360a08401526132e9818d613146565b905082810360c08401526132fd818c613146565b9150508860e0830152876101008301528661012083015261332361014083018715159052565b8415156101608301526101808201939093526101a001529c9b505050505050505050505050565b600060208083018184528085518083526040925060408601915060408160051b87010184880160005b8381101561341157888303603f190185528151805184528781015188850152868101516001600160a01b03168785015260608082015161010082870181905291906133c083880182613146565b92505050608080830151818701525060a080830151868303828801526133e68382613146565b60c0858101519089015260e09485015194909701939093525050509386019390860190600101613373565b509098975050505050505050565b6001600160a01b038116811461343457600080fd5b50565b6000806040838503121561344a57600080fd5b82356134558161341f565b946020939093013593505050565b6000806040838503121561347657600080fd5b82356134818161341f565b91506020830135801515811461349657600080fd5b809150509250929050565b60006101c08251845260208301516134c460208601826001600160a01b03169052565b5060408301516134df60408601826001600160a01b03169052565b5060608301518160608601526134f782860182613146565b915050608083015184820360808601526135118282613146565b91505060a083015184820360a086015261352b8282613146565b91505060c083015184820360c08601526135458282613146565b91505060e083015160e08501526101008084015181860152506101208084015181860152506101408084015161357e8287018215159052565b50506101608381015115159085015261018080840151908501526101a09283015192909301919091525090565b6020815260006135be60208301846134a1565b9392505050565b60006101008a83528960208401528060408401526135e58184018a613146565b6001600160a01b03891660608501526080840188905283810360a0850152905061360f8187613146565b60c0840195909552505060e001529695505050505050565b6000806040838503121561363a57600080fd5b50508035926020909101359150565b888152602081018890526001600160a01b03871660408201526101006060820181905260009061367b83820189613146565b905086608084015282810360a084015261360f8187613146565b6000602082840312156136a757600080fd5b81356135be8161341f565b600060208083016020845280855180835260408601915060408160051b87010192506020870160005b8281101561326457603f198886030184526136f78583516134a1565b945092850192908501906001016136db565b634e487b7160e01b600052604160045260246000fd5b600082601f83011261373057600080fd5b813567ffffffffffffffff8082111561374b5761374b613709565b604051601f8301601f19908116603f0116810190828211818310171561377357613773613709565b8160405283815286602085880101111561378c57600080fd5b836020870160208301376000602085830101528094505050505092915050565b80356137b78161341f565b919050565b600080600080600080600060e0888a0312156137d757600080fd5b873567ffffffffffffffff808211156137ef57600080fd5b6137fb8b838c0161371f565b985060208a013591508082111561381157600080fd5b61381d8b838c0161371f565b975060408a013591508082111561383357600080fd5b61383f8b838c0161371f565b965060608a013591508082111561385557600080fd5b506138628a828b0161371f565b9450506080880135925060a0880135915061387f60c089016137ac565b905092959891949750929550565b6020815260006135be602083018461318c565b6000806000606084860312156138b557600080fd5b83359250602084013567ffffffffffffffff808211156138d457600080fd5b6138e08783880161371f565b935060408601359150808211156138f657600080fd5b506139038682870161371f565b9150509250925092565b6000806040838503121561392057600080fd5b82359150602083013567ffffffffffffffff81111561393e57600080fd5b61394a8582860161371f565b9150509250929050565b634e487b7160e01b600052603260045260246000fd5b600181811c9082168061397e57607f821691505b60208210810361086557634e487b7160e01b600052602260045260246000fd5b634e487b7160e01b600052601160045260246000fd5b808201808211156139c7576139c761399e565b92915050565b6000600182016139df576139df61399e565b5060010190565b818103818111156139c7576139c761399e565b6020808252602e908201527f48616e79612070656d696c696b206b6f6e7472616b2079616e6720646170617460408201526d206d656c616b756b616e20696e6960901b606082015260800190565b60208082526018908201527f4b616d70616e796520746964616b20646974656d756b616e0000000000000000604082015260600190565b80820281158282048414176139c7576139c761399e565b601f821115613ae1576000816000526020600020601f850160051c81016020861015613abe5750805b601f850160051c820191505b81811015613add57828155600101613aca565b5050505b505050565b815167ffffffffffffffff811115613b0057613b00613709565b613b1481613b0e845461396a565b84613a95565b602080601f831160018114613b495760008415613b315750858301515b600019600386901b1c1916600185901b178555613add565b600085815260208120601f198616915b82811015613b7857888601518255948401946001909101908401613b59565b5085821015613b965787850151600019600388901b60f8161c191681555b5050505050600190811b01905550565b606081526000613bb96060830186613146565b6020830194909452506040015291905056fea2646970667358221220b55307d20145319f9ea62c6b6cd276a05894a304bcc7294efa66163e4031ac9b64736f6c63430008180033",
  "linkReferences": {},
  "deployedLinkReferences": {}
}