{
  "_format": "hh-sol-artifact-1",
  "contractName": "MockUSDC",
  "sourceName": "contracts/MockUSDC.sol",
  "abi": [
    {
      "inputs": [],
      "stateMutability": "nonpayable",
      "type": "constructor"
    },
    {
      "anonymous": false,
      "inputs": [
        {
          "indexed": true,
          "internalType": "address",
          "name": "owner",
          "type": "address"
        },
        {
          "indexed": true,
          "internalType": "address",
          "name": "spender",
          "type": "address"
        },
        {
          "indexed": false,
          "internalType": "uint256",
          "name": "value",
          "type": "uint256"
        }
      ],
      "name": "Approval",
      "type": "event"
    },
    {
      "anonymous": false,
      "inputs": [
        {
          "indexed": true,
          "internalType": "address",
          "name": "to",
          "type": "address"
        },
        {
          "indexed": false,
          "internalType": "uint256",
          "name": "amount",
          "type": "uint256"
        }
      ],
      "name": "Mint",
      "type": "event"
    },
    {
      "anonymous": false,
      "inputs": [
        {
          "indexed": true,
          "internalType": "address",
          "name": "from",
          "type": "address"
        },
        {
          "indexed": true,
          "internalType": "address",
          "name": "to",
          "type": "address"
        },
        {
          "indexed": false,
          "internalType": "uint256",
          "name": "value",
          "type": "uint256"
        }
      ],
      "name": "Transfer",
      "type": "event"
    },
    {
      "stateMutability": "nonpayable",
      "type": "fallback"
    },
    {
      "inputs": [
        {
          "internalType": "address",
          "name": "",
          "type": "address"
        },
        {
          "internalType": "address",
          "name": "",
          "type": "address"
        }
      ],
      "name": "allowance",
      "outputs": [
        {
          "internalType": "uint256",
          "name": "",
          "type": "uint256"
        }
      ],
      "stateMutability": "view",
      "type": "function"
    },
    {
      "inputs": [
        {
          "internalType": "address",
          "name": "_spender",
          "type": "address"
        },
        {
          "internalType": "uint256",
          "name": "_amount",
          "type": "uint256"
        }
      ],
      "name": "approve",
      "outputs": [
        {
          "internalType": "bool",
          "name": "",
          "type": "bool"
        }
      ],
      "stateMutability": "nonpayable",
      "type": "function"
    },
    {
      "inputs": [
        {
          "internalType": "address",
          "name": "",
          "type": "address"
        }
      ],
      "name": "balanceOf",
      "outputs": [
        {
          "internalType": "uint256",
          "name": "",
          "type": "uint256"
        }
      ],
      "stateMutability": "view",
      "type": "function"
    },
    {
      "inputs": [],
      "name": "decimals",
      "outputs": [
        {
          "internalType": "uint8",
          "name": "",
          "type": "uint8"
        }
      ],
      "stateMutability": "view",
      "type": "function"
    },
    {
      "inputs": [
        {
          "internalType": "address",
          "name": "_to",
          "type": "address"
        },
        {
          "internalType": "uint256",
          "name": "_amount",
          "type": "uint256"
        }
      ],
      "name": "mint",
      "outputs": [],
      "stateMutability": "nonpayable",
      "type": "function"
    },
    {
      "inputs": [],
      "name": "name",
      "outputs": [
        {
          "internalType": "string",
          "name": "",
          "type": "string"
        }
      ],
      "stateMutability": "view",
      "type": "function"
    },
    {
      "inputs": [],
      "name": "owner",
      "outputs": [
        {
          "internalType": "address",
          "name": "",
          "type": "address"
        }
      ],
      "stateMutability": "view",
      "type": "function"
    },
    {
      "inputs": [],
      "name": "symbol",
      "outputs": [
        {
          "internalType": "string",
          "name": "",
          "type": "string"
        }
      ],
      "stateMutability": "view",
      "type": "function"
    },
    {
      "inputs": [],
      "name": "totalSupply",
      "outputs": [
        {
          "internalType": "uint256",
          "name": "",
          "type": "uint256"
        }
      ],
      "stateMutability": "view",
      "type": "function"
    },
    {
      "inputs": [
        {
          "internalType": "address",
          "name": "_to",
          "type": "address"
        },
        {
          "internalType": "uint256",
          "name": "_amount",
          "type": "uint256"
        }
      ],
      "name": "transfer",
      "outputs": [
        {
          "internalType": "bool",
          "name": "",
          "type": "bool"
        }
      ],
      "stateMutability": "nonpayable",
      "type": "function"
    },
    {
      "inputs": [
        {
          "internalType": "address",
          "name": "_from",
          "type": "address"
        },
        {
          "internalType": "address",
          "name": "_to",
          "type": "address"
        },
        {
          "internalType": "uint256",
          "name": "_amount",
          "type": "uint256"
        }
      ],
      "name": "transferFrom",
      "outputs": [
        {
          "internalType": "bool",
          "name": "",
          "type": "bool"
        }
      ],
      "stateMutability": "nonpayable",
      "type": "function"
    }
  ],
  "bytecode": "0x60c0604052600d60809081526c26b7b1b5902aa9a21021b7b4b760991b60a05260009061002c9082610128565b506040805180820190915260048152635553444360e01b60208201526001906100559082610128565b506002805460ff1916600617905534801561006f57600080fd5b50600480546001600160a01b031916331790556101e7565b634e487b7160e01b600052604160045260246000fd5b600181811c908216806100b157607f821691505b6020821081036100d157634e487b7160e01b600052602260045260246000fd5b50919050565b601f821115610123576000816000526020600020601f850160051c810160208610156101005750805b601f850160051c820191505b8181101561011f5782815560010161010c565b5050505b505050565b81516001600160401b0381111561014157610141610087565b6101558161014f845461009d565b846100d7565b602080601f83116001811461018a57600084156101725750858301515b600019600386901b1c1916600185901b17855561011f565b600085815260208120601f198616915b828110156101b95788860151825594840194600190910190840161019a565b50858210156101d75787850151600019600388901b60f8161c191681555b5050505050600190811b01905550565b610977806101f66000396000f3fe608060405234801561001057600080fd5b50600436106100a65760003560e01c806340c10f191161006e57806340c10f191461013257806370a08231146101455780638da5cb5b1461016557806395d89b4114610190578063a9059cbb14610198578063dd62ed3e146101ab57005b806306fdde03146100a8578063095ea7b3146100c657806318160ddd146100e957806323b872dd14610100578063313ce56714610113575b005b6100b06101d6565b6040516100bd9190610763565b60405180910390f35b6100d96100d43660046107ce565b610264565b60405190151581526020016100bd565b6100f260035481565b6040519081526020016100bd565b6100d961010e3660046107f8565b610331565b6002546101209060ff1681565b60405160ff90911681526020016100bd565b6100a66101403660046107ce565b61051f565b6100f2610153366004610834565b60056020526000908152604090205481565b600454610178906001600160a01b031681565b6040516001600160a01b0390911681526020016100bd565b6100b0610641565b6100d96101a63660046107ce565b61064e565b6100f26101b9366004610856565b600660209081526000928352604080842090915290825290205481565b600080546101e390610889565b80601f016020809104026020016040519081016040528092919081815260200182805461020f90610889565b801561025c5780601f106102315761010080835404028352916020019161025c565b820191906000526020600020905b81548152906001019060200180831161023f57829003601f168201915b505050505081565b60006001600160a01b0383166102cb5760405162461bcd60e51b815260206004820152602160248201527f4d6f636b555344433a20617070726f7665206b65207a65726f206164647265736044820152607360f81b60648201526084015b60405180910390fd5b3360008181526006602090815260408083206001600160a01b03881680855290835292819020869055518581529192917f8c5be1e5ebec7d5bd14f71427d1e84f3dd0314c0f7b2291e5b200ac8c7c3b92591015b60405180910390a35060015b92915050565b60006001600160a01b0383166103595760405162461bcd60e51b81526004016102c2906108c3565b6001600160a01b0384166000908152600560205260409020548211156103c15760405162461bcd60e51b815260206004820152601b60248201527f4d6f636b555344433a2073616c646f20746964616b2063756b7570000000000060448201526064016102c2565b6001600160a01b03841660009081526006602090815260408083203384529091529020548211156104345760405162461bcd60e51b815260206004820152601f60248201527f4d6f636b555344433a20616c6c6f77616e636520746964616b2063756b75700060448201526064016102c2565b6001600160a01b03841660009081526006602090815260408083203384529091528120805484929061046790849061091b565b90915550506001600160a01b0384166000908152600560205260408120805484929061049490849061091b565b90915550506001600160a01b038316600090815260056020526040812080548492906104c190849061092e565b92505081905550826001600160a01b0316846001600160a01b03167fddf252ad1be2c89b69c2b068fc378daa952ba7f163c4a11628f55a4df523b3ef8460405161050d91815260200190565b60405180910390a35060019392505050565b6001600160a01b0382166105755760405162461bcd60e51b815260206004820152601e60248201527f4d6f636b555344433a206d696e74206b65207a65726f2061646472657373000060448201526064016102c2565b8060036000828254610587919061092e565b90915550506001600160a01b038216600090815260056020526040812080548392906105b490849061092e565b90915550506040518181526001600160a01b038316906000907fddf252ad1be2c89b69c2b068fc378daa952ba7f163c4a11628f55a4df523b3ef9060200160405180910390a3816001600160a01b03167f0f6798a560793a54c3bcfe86a93cde1e73087d944c0ea20544137d41213968858260405161063591815260200190565b60405180910390a25050565b600180546101e390610889565b60006001600160a01b0383166106765760405162461bcd60e51b81526004016102c2906108c3565b336000908152600560205260409020548211156106d55760405162461bcd60e51b815260206004820152601b60248201527f4d6f636b555344433a2073616c646f20746964616b2063756b7570000000000060448201526064016102c2565b33600090815260056020526040812080548492906106f490849061091b565b90915550506001600160a01b0383166000908152600560205260408120805484929061072190849061092e565b90915550506040518281526001600160a01b0384169033907fddf252ad1be2c89b69c2b068fc378daa952ba7f163c4a11628f55a4df523b3ef9060200161031f565b60006020808352835180602085015260005b8181101561079157858101830151858201604001528201610775565b506000604082860101526040601f19601f8301168501019250505092915050565b80356001600160a01b03811681146107c957600080fd5b919050565b600080604083850312156107e157600080fd5b6107ea836107b2565b946020939093013593505050565b60008060006060848603121561080d57600080fd5b610816846107b2565b9250610824602085016107b2565b9150604084013590509250925092565b60006020828403121561084657600080fd5b61084f826107b2565b9392505050565b6000806040838503121561086957600080fd5b610872836107b2565b9150610880602084016107b2565b90509250929050565b600181811c9082168061089d57607f821691505b6020821081036108bd57634e487b7160e01b600052602260045260246000fd5b50919050565b60208082526022908201527f4d6f636b555344433a207472616e73666572206b65207a65726f206164647265604082015261737360f01b606082015260800190565b634e487b7160e01b600052601160045260246000fd5b8181038181111561032b5761032b610905565b8082018082111561032b5761032b61090556fea2646970667358221220796a4569b55fa653daf8bac5f809868eb45e5fd2484d2f7d51d0a6f4a3f0e2e464736f6c63430008180033",
  "linkReferences": {},
  "deployedLinkReferences": {}
}